{
	"final-contracts/LaborCoinExchangeV3.sol": {
		"LaborCoinExchangeV3": {
			"abi": [
				{
					"inputs": [
						{
							"internalType": "address",
							"name": "_labr",
							"type": "address"
						},
						{
							"internalType": "address",
							"name": "_daoTreasury",
							"type": "address"
						}
					],
					"stateMutability": "nonpayable",
					"type": "constructor"
				},
				{
					"inputs": [],
					"name": "ReentrancyGuardReentrantCall",
					"type": "error"
				},
				{
					"anonymous": false,
					"inputs": [
						{
							"indexed": true,
							"internalType": "address",
							"name": "user",
							"type": "address"
						},
						{
							"indexed": false,
							"internalType": "uint256",
							"name": "polIn",
							"type": "uint256"
						},
						{
							"indexed": false,
							"internalType": "uint256",
							"name": "tokensOut",
							"type": "uint256"
						}
					],
					"name": "Buy",
					"type": "event"
				},
				{
					"anonymous": false,
					"inputs": [
						{
							"indexed": true,
							"internalType": "address",
							"name": "user",
							"type": "address"
						},
						{
							"indexed": false,
							"internalType": "uint256",
							"name": "tokensIn",
							"type": "uint256"
						},
						{
							"indexed": false,
							"internalType": "uint256",
							"name": "polOut",
							"type": "uint256"
						}
					],
					"name": "Sell",
					"type": "event"
				},
				{
					"anonymous": false,
					"inputs": [
						{
							"indexed": false,
							"internalType": "uint256",
							"name": "unlocked",
							"type": "uint256"
						}
					],
					"name": "TrancheUnlocked",
					"type": "event"
				},
				{
					"inputs": [],
					"name": "COOLDOWN",
					"outputs": [
						{
							"internalType": "uint256",
							"name": "",
							"type": "uint256"
						}
					],
					"stateMutability": "view",
					"type": "function"
				},
				{
					"inputs": [],
					"name": "INITIAL_TRANCHE",
					"outputs": [
						{
							"internalType": "uint256",
							"name": "",
							"type": "uint256"
						}
					],
					"stateMutability": "view",
					"type": "function"
				},
				{
					"inputs": [],
					"name": "LABR",
					"outputs": [
						{
							"internalType": "contract IERC20",
							"name": "",
							"type": "address"
						}
					],
					"stateMutability": "view",
					"type": "function"
				},
				{
					"inputs": [],
					"name": "MAX_PRICE_POL",
					"outputs": [
						{
							"internalType": "uint256",
							"name": "",
							"type": "uint256"
						}
					],
					"stateMutability": "view",
					"type": "function"
				},
				{
					"inputs": [],
					"name": "MAX_SUPPLY",
					"outputs": [
						{
							"internalType": "uint256",
							"name": "",
							"type": "uint256"
						}
					],
					"stateMutability": "view",
					"type": "function"
				},
				{
					"inputs": [],
					"name": "TRANCHE_SIZE",
					"outputs": [
						{
							"internalType": "uint256",
							"name": "",
							"type": "uint256"
						}
					],
					"stateMutability": "view",
					"type": "function"
				},
				{
					"inputs": [
						{
							"internalType": "uint256",
							"name": "minTokensOut",
							"type": "uint256"
						}
					],
					"name": "buy",
					"outputs": [],
					"stateMutability": "payable",
					"type": "function"
				},
				{
					"inputs": [],
					"name": "daoTreasury",
					"outputs": [
						{
							"internalType": "address",
							"name": "",
							"type": "address"
						}
					],
					"stateMutability": "view",
					"type": "function"
				},
				{
					"inputs": [],
					"name": "getPOLPriceUSD",
					"outputs": [
						{
							"internalType": "uint256",
							"name": "",
							"type": "uint256"
						}
					],
					"stateMutability": "view",
					"type": "function"
				},
				{
					"inputs": [
						{
							"internalType": "uint256",
							"name": "sold",
							"type": "uint256"
						}
					],
					"name": "getPrice",
					"outputs": [
						{
							"internalType": "uint256",
							"name": "",
							"type": "uint256"
						}
					],
					"stateMutability": "view",
					"type": "function"
				},
				{
					"inputs": [
						{
							"internalType": "address",
							"name": "",
							"type": "address"
						}
					],
					"name": "lastTxTime",
					"outputs": [
						{
							"internalType": "uint256",
							"name": "",
							"type": "uint256"
						}
					],
					"stateMutability": "view",
					"type": "function"
				},
				{
					"inputs": [],
					"name": "priceFeed",
					"outputs": [
						{
							"internalType": "contract AggregatorV3Interface",
							"name": "",
							"type": "address"
						}
					],
					"stateMutability": "view",
					"type": "function"
				},
				{
					"inputs": [
						{
							"internalType": "uint256",
							"name": "amount",
							"type": "uint256"
						},
						{
							"internalType": "uint256",
							"name": "minPOL",
							"type": "uint256"
						}
					],
					"name": "sell",
					"outputs": [],
					"stateMutability": "nonpayable",
					"type": "function"
				},
				{
					"inputs": [],
					"name": "totalSold",
					"outputs": [
						{
							"internalType": "uint256",
							"name": "",
							"type": "uint256"
						}
					],
					"stateMutability": "view",
					"type": "function"
				},
				{
					"inputs": [],
					"name": "unlockedSupply",
					"outputs": [
						{
							"internalType": "uint256",
							"name": "",
							"type": "uint256"
						}
					],
					"stateMutability": "view",
					"type": "function"
				},
				{
					"stateMutability": "payable",
					"type": "receive"
				}
			],
			"devdoc": {
				"errors": {
					"ReentrancyGuardReentrantCall()": [
						{
							"details": "Unauthorized reentrant call."
						}
					]
				},
				"kind": "dev",
				"methods": {},
				"version": 1
			},
			"evm": {
				"assembly": "    /* \"final-contracts/LaborCoinExchangeV3.sol\":727:5897  contract LaborCoinExchangeV3 is ReentrancyGuard {... */\n  mstore(0x40, 0xc0)\n    /* \"final-contracts/LaborCoinExchangeV3.sol\":903:945  0xAB594600376Ec9fD91F8e885dADF0CE036862dE0 */\n  0xab594600376ec9fd91f8e885dadf0ce036862de0\n    /* \"final-contracts/LaborCoinExchangeV3.sol\":821:946  AggregatorV3Interface public immutable priceFeed =... */\n  0xa0\n  mstore\n    /* \"final-contracts/LaborCoinExchangeV3.sol\":1607:1912  constructor(... */\n  callvalue\n  dup1\n  iszero\n  tag_1\n  jumpi\n  revert(0x00, 0x00)\ntag_1:\n  pop\n  mload(0x40)\n  sub(codesize, bytecodeSize)\n  dup1\n  bytecodeSize\n  dup4\n  codecopy\n  dup2\n  add\n  0x40\n  dup2\n  swap1\n  mstore\n  tag_2\n  swap2\n  tag_3\n  jump\t// in\ntag_2:\n    /* \"@openzeppelin/contracts/utils/ReentrancyGuard.sol\":2365:2366  1 */\n  0x01\n    /* \"@openzeppelin/contracts/utils/ReentrancyGuard.sol\":1505:1571  0x9b779b17422d0df92223018b32b4d1fa46e071723d6817e2486d003becc55f00 */\n  0x9b779b17422d0df92223018b32b4d1fa46e071723d6817e2486d003becc55f00\n    /* \"@openzeppelin/contracts/utils/ReentrancyGuard.sol\":2539:2605  _reentrancyGuardStorageSlot().getUint256Slot().value = NOT_ENTERED */\n  sstore\n  sub(shl(0xa0, 0x01), 0x01)\n    /* \"final-contracts/LaborCoinExchangeV3.sol\":1700:1719  _labr != address(0) */\n  dup3\n  and\n    /* \"final-contracts/LaborCoinExchangeV3.sol\":1692:1732  require(_labr != address(0), \"Bad LABR\") */\n  tag_12\n  jumpi\n  mload(0x40)\n  shl(0xe5, 0x461bcd)\n  dup2\n  mstore\n    /* \"#utility.yul\":696:698   */\n  0x20\n    /* \"final-contracts/LaborCoinExchangeV3.sol\":1692:1732  require(_labr != address(0), \"Bad LABR\") */\n  0x04\n  dup3\n  add\n    /* \"#utility.yul\":678:699   */\n  mstore\n    /* \"#utility.yul\":735:736   */\n  0x08\n    /* \"#utility.yul\":715:733   */\n  0x24\n  dup3\n  add\n    /* \"#utility.yul\":708:737   */\n  mstore\n  shl(0xc1, 0x2130b2102620a129)\n    /* \"#utility.yul\":753:771   */\n  0x44\n  dup3\n  add\n    /* \"#utility.yul\":746:784   */\n  mstore\n    /* \"#utility.yul\":801:819   */\n  0x64\n  add\n    /* \"final-contracts/LaborCoinExchangeV3.sol\":1692:1732  require(_labr != address(0), \"Bad LABR\") */\ntag_13:\n  mload(0x40)\n  dup1\n  swap2\n  sub\n  swap1\n  revert\ntag_12:\n  sub(shl(0xa0, 0x01), 0x01)\n    /* \"final-contracts/LaborCoinExchangeV3.sol\":1751:1777  _daoTreasury != address(0) */\n  dup2\n  and\n    /* \"final-contracts/LaborCoinExchangeV3.sol\":1743:1789  require(_daoTreasury != address(0), \"Bad DAO\") */\n  tag_15\n  jumpi\n  mload(0x40)\n  shl(0xe5, 0x461bcd)\n  dup2\n  mstore\n    /* \"#utility.yul\":1032:1034   */\n  0x20\n    /* \"final-contracts/LaborCoinExchangeV3.sol\":1743:1789  require(_daoTreasury != address(0), \"Bad DAO\") */\n  0x04\n  dup3\n  add\n    /* \"#utility.yul\":1014:1035   */\n  mstore\n    /* \"#utility.yul\":1071:1072   */\n  0x07\n    /* \"#utility.yul\":1051:1069   */\n  0x24\n  dup3\n  add\n    /* \"#utility.yul\":1044:1073   */\n  mstore\n  shl(0xc8, 0x4261642044414f)\n    /* \"#utility.yul\":1089:1107   */\n  0x44\n  dup3\n  add\n    /* \"#utility.yul\":1082:1119   */\n  mstore\n    /* \"#utility.yul\":1136:1154   */\n  0x64\n  add\n    /* \"final-contracts/LaborCoinExchangeV3.sol\":1743:1789  require(_daoTreasury != address(0), \"Bad DAO\") */\n  tag_13\n    /* \"#utility.yul\":830:1160   */\n  jump\n    /* \"final-contracts/LaborCoinExchangeV3.sol\":1743:1789  require(_daoTreasury != address(0), \"Bad DAO\") */\ntag_15:\n  sub(shl(0xa0, 0x01), 0x01)\n    /* \"final-contracts/LaborCoinExchangeV3.sol\":1802:1822  LABR = IERC20(_labr) */\n  swap2\n  dup3\n  and\n  0x80\n  mstore\n    /* \"final-contracts/LaborCoinExchangeV3.sol\":1833:1844  daoTreasury */\n  0x00\n    /* \"final-contracts/LaborCoinExchangeV3.sol\":1833:1859  daoTreasury = _daoTreasury */\n  dup1\n  sload\n  not(sub(shl(0xa0, 0x01), 0x01))\n  and\n  swap2\n  swap1\n  swap3\n  and\n  or\n  swap1\n  sstore\n    /* \"final-contracts/LaborCoinExchangeV3.sol\":1095:1112  100_000_000 ether */\n  0x52b7d2dcc80cd2e4000000\n    /* \"final-contracts/LaborCoinExchangeV3.sol\":1872:1886  unlockedSupply */\n  0x02\n    /* \"final-contracts/LaborCoinExchangeV3.sol\":1872:1904  unlockedSupply = INITIAL_TRANCHE */\n  sstore\n    /* \"final-contracts/LaborCoinExchangeV3.sol\":727:5897  contract LaborCoinExchangeV3 is ReentrancyGuard {... */\n  jump(tag_22)\n    /* \"#utility.yul\":14:191   */\ntag_21:\n    /* \"#utility.yul\":93:106   */\n  dup1\n  mload\n  sub(shl(0xa0, 0x01), 0x01)\n    /* \"#utility.yul\":135:166   */\n  dup2\n  and\n    /* \"#utility.yul\":125:167   */\n  dup2\n  eq\n    /* \"#utility.yul\":115:185   */\n  tag_24\n  jumpi\n    /* \"#utility.yul\":181:182   */\n  0x00\n    /* \"#utility.yul\":178:179   */\n  0x00\n    /* \"#utility.yul\":171:183   */\n  revert\n    /* \"#utility.yul\":115:185   */\ntag_24:\n    /* \"#utility.yul\":14:191   */\n  swap2\n  swap1\n  pop\n  jump\t// out\n    /* \"#utility.yul\":196:489   */\ntag_3:\n    /* \"#utility.yul\":275:281   */\n  0x00\n    /* \"#utility.yul\":283:289   */\n  0x00\n    /* \"#utility.yul\":336:338   */\n  0x40\n    /* \"#utility.yul\":324:333   */\n  dup4\n    /* \"#utility.yul\":315:322   */\n  dup6\n    /* \"#utility.yul\":311:334   */\n  sub\n    /* \"#utility.yul\":307:339   */\n  slt\n    /* \"#utility.yul\":304:356   */\n  iszero\n  tag_26\n  jumpi\n    /* \"#utility.yul\":352:353   */\n  0x00\n    /* \"#utility.yul\":349:350   */\n  0x00\n    /* \"#utility.yul\":342:354   */\n  revert\n    /* \"#utility.yul\":304:356   */\ntag_26:\n    /* \"#utility.yul\":375:415   */\n  tag_27\n    /* \"#utility.yul\":405:414   */\n  dup4\n    /* \"#utility.yul\":375:415   */\n  tag_21\n  jump\t// in\ntag_27:\n    /* \"#utility.yul\":365:415   */\n  swap2\n  pop\n    /* \"#utility.yul\":434:483   */\n  tag_28\n    /* \"#utility.yul\":479:481   */\n  0x20\n    /* \"#utility.yul\":468:477   */\n  dup5\n    /* \"#utility.yul\":464:482   */\n  add\n    /* \"#utility.yul\":434:483   */\n  tag_21\n  jump\t// in\ntag_28:\n    /* \"#utility.yul\":424:483   */\n  swap1\n  pop\n    /* \"#utility.yul\":196:489   */\n  swap3\n  pop\n  swap3\n  swap1\n  pop\n  jump\t// out\n    /* \"#utility.yul\":830:1160   */\ntag_22:\n    /* \"final-contracts/LaborCoinExchangeV3.sol\":727:5897  contract LaborCoinExchangeV3 is ReentrancyGuard {... */\n  mload(0x80)\n  mload(0xa0)\n  codecopy(0x00, dataOffset(sub_0), dataSize(sub_0))\n  0x00\n  assignImmutable(\"0x06a86cedc6cacd68c72b41c10c237851dfed5ce85910507dd1c9be6a7d822d04\")\n  0x00\n  assignImmutable(\"0xb440c9986c01395f2aa716b5d1c22f7a6f50e50754b83b93de79b9bd54339a32\")\n  return(0x00, dataSize(sub_0))\nstop\n\nsub_0: assembly {\n        /* \"final-contracts/LaborCoinExchangeV3.sol\":727:5897  contract LaborCoinExchangeV3 is ReentrancyGuard {... */\n      mstore(0x40, 0x80)\n      jumpi(tag_1, lt(calldatasize, 0x04))\n      shr(0xe0, calldataload(0x00))\n      dup1\n      0xa2724a4d\n      gt\n      tag_18\n      jumpi\n      dup1\n      0xd96a094a\n      gt\n      tag_19\n      jumpi\n      dup1\n      0xd96a094a\n      eq\n      tag_14\n      jumpi\n      dup1\n      0xe7572230\n      eq\n      tag_15\n      jumpi\n      dup1\n      0xf2752d80\n      eq\n      tag_16\n      jumpi\n      dup1\n      0xfd3d27b8\n      eq\n      tag_17\n      jumpi\n      revert(0x00, 0x00)\n    tag_19:\n      dup1\n      0xa2724a4d\n      eq\n      tag_10\n      jumpi\n      dup1\n      0xbc96ec51\n      eq\n      tag_11\n      jumpi\n      dup1\n      0xc84dc519\n      eq\n      tag_12\n      jumpi\n      dup1\n      0xd79875eb\n      eq\n      tag_13\n      jumpi\n      revert(0x00, 0x00)\n    tag_18:\n      dup1\n      0x32cb6b0c\n      gt\n      tag_20\n      jumpi\n      dup1\n      0x32cb6b0c\n      eq\n      tag_6\n      jumpi\n      dup1\n      0x741bef1a\n      eq\n      tag_7\n      jumpi\n      dup1\n      0x79022a9f\n      eq\n      tag_8\n      jumpi\n      dup1\n      0x9106d7ba\n      eq\n      tag_9\n      jumpi\n      revert(0x00, 0x00)\n    tag_20:\n      dup1\n      0x0192d7a0\n      eq\n      tag_3\n      jumpi\n      dup1\n      0x17d63605\n      eq\n      tag_4\n      jumpi\n      dup1\n      0x2820ef51\n      eq\n      tag_5\n      jumpi\n      revert(0x00, 0x00)\n    tag_1:\n      jumpi(tag_2, calldatasize)\n      stop\n    tag_2:\n      revert(0x00, 0x00)\n        /* \"final-contracts/LaborCoinExchangeV3.sol\":1053:1112  uint256 public constant INITIAL_TRANCHE = 100_000_000 ether */\n    tag_3:\n      callvalue\n      dup1\n      iszero\n      tag_23\n      jumpi\n      revert(0x00, 0x00)\n    tag_23:\n      pop\n      tag_24\n        /* \"final-contracts/LaborCoinExchangeV3.sol\":1095:1112  100_000_000 ether */\n      0x52b7d2dcc80cd2e4000000\n        /* \"final-contracts/LaborCoinExchangeV3.sol\":1053:1112  uint256 public constant INITIAL_TRANCHE = 100_000_000 ether */\n      dup2\n      jump\n    tag_24:\n      mload(0x40)\n        /* \"#utility.yul\":160:185   */\n      swap1\n      dup2\n      mstore\n        /* \"#utility.yul\":148:150   */\n      0x20\n        /* \"#utility.yul\":133:151   */\n      add\n        /* \"final-contracts/LaborCoinExchangeV3.sol\":1053:1112  uint256 public constant INITIAL_TRANCHE = 100_000_000 ether */\n    tag_26:\n      mload(0x40)\n      dup1\n      swap2\n      sub\n      swap1\n      return\n        /* \"final-contracts/LaborCoinExchangeV3.sol\":1360:1405  mapping(address => uint256) public lastTxTime */\n    tag_4:\n      callvalue\n      dup1\n      iszero\n      tag_28\n      jumpi\n      revert(0x00, 0x00)\n    tag_28:\n      pop\n      tag_24\n      tag_30\n      calldatasize\n      0x04\n      tag_31\n      jump\t// in\n    tag_30:\n      mstore(0x20, 0x03)\n      0x00\n      swap1\n      dup2\n      mstore\n      0x40\n      swap1\n      keccak256\n      sload\n      dup2\n      jump\n        /* \"final-contracts/LaborCoinExchangeV3.sol\":2853:3143  function getPOLPriceUSD() public view returns (uint256) {... */\n    tag_5:\n      callvalue\n      dup1\n      iszero\n      tag_34\n      jumpi\n      revert(0x00, 0x00)\n    tag_34:\n      pop\n      tag_24\n      tag_36\n      jump\t// in\n        /* \"final-contracts/LaborCoinExchangeV3.sol\":990:1046  uint256 public constant MAX_SUPPLY = 1_000_000_000 ether */\n    tag_6:\n      callvalue\n      dup1\n      iszero\n      tag_38\n      jumpi\n      revert(0x00, 0x00)\n    tag_38:\n      pop\n      tag_24\n        /* \"final-contracts/LaborCoinExchangeV3.sol\":1027:1046  1_000_000_000 ether */\n      0x033b2e3c9fd0803ce8000000\n        /* \"final-contracts/LaborCoinExchangeV3.sol\":990:1046  uint256 public constant MAX_SUPPLY = 1_000_000_000 ether */\n      dup2\n      jump\n        /* \"final-contracts/LaborCoinExchangeV3.sol\":821:946  AggregatorV3Interface public immutable priceFeed =... */\n    tag_7:\n      callvalue\n      dup1\n      iszero\n      tag_42\n      jumpi\n      revert(0x00, 0x00)\n    tag_42:\n      pop\n      tag_43\n      immutable(\"0x06a86cedc6cacd68c72b41c10c237851dfed5ce85910507dd1c9be6a7d822d04\")\n      dup2\n      jump\n    tag_43:\n      mload(0x40)\n      sub(shl(0xa0, 0x01), 0x01)\n        /* \"#utility.yul\":680:712   */\n      swap1\n      swap2\n      and\n        /* \"#utility.yul\":662:713   */\n      dup2\n      mstore\n        /* \"#utility.yul\":650:652   */\n      0x20\n        /* \"#utility.yul\":635:653   */\n      add\n        /* \"final-contracts/LaborCoinExchangeV3.sol\":821:946  AggregatorV3Interface public immutable priceFeed =... */\n      tag_26\n        /* \"#utility.yul\":487:719   */\n      jump\n        /* \"final-contracts/LaborCoinExchangeV3.sol\":955:981  address public daoTreasury */\n    tag_8:\n      callvalue\n      dup1\n      iszero\n      tag_47\n      jumpi\n      revert(0x00, 0x00)\n    tag_47:\n      pop\n      sload(0x00)\n      tag_43\n      swap1\n      sub(shl(0xa0, 0x01), 0x01)\n      and\n      dup2\n      jump\n        /* \"final-contracts/LaborCoinExchangeV3.sol\":1291:1315  uint256 public totalSold */\n    tag_9:\n      callvalue\n      dup1\n      iszero\n      tag_52\n      jumpi\n      revert(0x00, 0x00)\n    tag_52:\n      pop\n      tag_24\n      sload(0x01)\n      dup2\n      jump\n        /* \"final-contracts/LaborCoinExchangeV3.sol\":1181:1224  uint256 public constant COOLDOWN = 12 hours */\n    tag_10:\n      callvalue\n      dup1\n      iszero\n      tag_56\n      jumpi\n      revert(0x00, 0x00)\n    tag_56:\n      pop\n      tag_24\n        /* \"final-contracts/LaborCoinExchangeV3.sol\":1216:1224  12 hours */\n      0xa8c0\n        /* \"final-contracts/LaborCoinExchangeV3.sol\":1181:1224  uint256 public constant COOLDOWN = 12 hours */\n      dup2\n      jump\n        /* \"final-contracts/LaborCoinExchangeV3.sol\":784:812  IERC20 public immutable LABR */\n    tag_11:\n      callvalue\n      dup1\n      iszero\n      tag_60\n      jumpi\n      revert(0x00, 0x00)\n    tag_60:\n      pop\n      tag_43\n      immutable(\"0xb440c9986c01395f2aa716b5d1c22f7a6f50e50754b83b93de79b9bd54339a32\")\n      dup2\n      jump\n        /* \"final-contracts/LaborCoinExchangeV3.sol\":1233:1282  uint256 public constant MAX_PRICE_POL = 100 ether */\n    tag_12:\n      callvalue\n      dup1\n      iszero\n      tag_65\n      jumpi\n      revert(0x00, 0x00)\n    tag_65:\n      pop\n      tag_24\n        /* \"final-contracts/LaborCoinExchangeV3.sol\":1273:1282  100 ether */\n      0x056bc75e2d63100000\n        /* \"final-contracts/LaborCoinExchangeV3.sol\":1233:1282  uint256 public constant MAX_PRICE_POL = 100 ether */\n      dup2\n      jump\n        /* \"final-contracts/LaborCoinExchangeV3.sol\":4666:5459  function sell(uint256 amount, uint256 minPOL)... */\n    tag_13:\n      callvalue\n      dup1\n      iszero\n      tag_69\n      jumpi\n      revert(0x00, 0x00)\n    tag_69:\n      pop\n      tag_70\n      tag_71\n      calldatasize\n      0x04\n      tag_72\n      jump\t// in\n    tag_71:\n      tag_73\n      jump\t// in\n    tag_70:\n      stop\n        /* \"final-contracts/LaborCoinExchangeV3.sol\":3757:4618  function buy(uint256 minTokensOut)... */\n    tag_14:\n      tag_70\n      tag_75\n      calldatasize\n      0x04\n      tag_76\n      jump\t// in\n    tag_75:\n      tag_77\n      jump\t// in\n        /* \"final-contracts/LaborCoinExchangeV3.sol\":3192:3710  function getPrice(uint256 sold) public view returns (uint256) {... */\n    tag_15:\n      callvalue\n      dup1\n      iszero\n      tag_78\n      jumpi\n      revert(0x00, 0x00)\n    tag_78:\n      pop\n      tag_24\n      tag_80\n      calldatasize\n      0x04\n      tag_76\n      jump\t// in\n    tag_80:\n      tag_81\n      jump\t// in\n        /* \"final-contracts/LaborCoinExchangeV3.sol\":1119:1174  uint256 public constant TRANCHE_SIZE = 50_000_000 ether */\n    tag_16:\n      callvalue\n      dup1\n      iszero\n      tag_83\n      jumpi\n      revert(0x00, 0x00)\n    tag_83:\n      pop\n      tag_24\n        /* \"final-contracts/LaborCoinExchangeV3.sol\":1158:1174  50_000_000 ether */\n      0x295be96e64066972000000\n        /* \"final-contracts/LaborCoinExchangeV3.sol\":1119:1174  uint256 public constant TRANCHE_SIZE = 50_000_000 ether */\n      dup2\n      jump\n        /* \"final-contracts/LaborCoinExchangeV3.sol\":1322:1351  uint256 public unlockedSupply */\n    tag_17:\n      callvalue\n      dup1\n      iszero\n      tag_87\n      jumpi\n      revert(0x00, 0x00)\n    tag_87:\n      pop\n      tag_24\n      sload(0x02)\n      dup2\n      jump\n        /* \"final-contracts/LaborCoinExchangeV3.sol\":2853:3143  function getPOLPriceUSD() public view returns (uint256) {... */\n    tag_36:\n        /* \"final-contracts/LaborCoinExchangeV3.sol\":2900:2907  uint256 */\n      0x00\n        /* \"final-contracts/LaborCoinExchangeV3.sol\":2923:2935  int256 price */\n      0x00\n        /* \"final-contracts/LaborCoinExchangeV3.sol\":2938:2955  uint256 updatedAt */\n      0x00\n        /* \"final-contracts/LaborCoinExchangeV3.sol\":2960:2969  priceFeed */\n      immutable(\"0x06a86cedc6cacd68c72b41c10c237851dfed5ce85910507dd1c9be6a7d822d04\")\n      sub(shl(0xa0, 0x01), 0x01)\n        /* \"final-contracts/LaborCoinExchangeV3.sol\":2960:2985  priceFeed.latestRoundData */\n      and\n      0xfeaf968c\n        /* \"final-contracts/LaborCoinExchangeV3.sol\":2960:2987  priceFeed.latestRoundData() */\n      mload(0x40)\n      dup2\n      0xffffffff\n      and\n      0xe0\n      shl\n      dup2\n      mstore\n      0x04\n      add\n      0xa0\n      mload(0x40)\n      dup1\n      dup4\n      sub\n      dup2\n      dup7\n      gas\n      staticcall\n      iszero\n      dup1\n      iszero\n      tag_93\n      jumpi\n      returndatacopy(0x00, 0x00, returndatasize)\n      revert(0x00, returndatasize)\n    tag_93:\n      pop\n      pop\n      pop\n      pop\n      mload(0x40)\n      returndatasize\n      not(0x1f)\n      0x1f\n      dup3\n      add\n      and\n      dup3\n      add\n      dup1\n      0x40\n      mstore\n      pop\n      dup2\n      add\n      swap1\n      tag_94\n      swap2\n      swap1\n      tag_95\n      jump\t// in\n    tag_94:\n        /* \"final-contracts/LaborCoinExchangeV3.sol\":2920:2987  (, int256 price,, uint256 updatedAt,) = priceFeed.latestRoundData() */\n      pop\n      swap4\n      pop\n      pop\n      swap3\n      pop\n      pop\n        /* \"final-contracts/LaborCoinExchangeV3.sol\":3016:3017  0 */\n      0x00\n        /* \"final-contracts/LaborCoinExchangeV3.sol\":3008:3013  price */\n      dup3\n        /* \"final-contracts/LaborCoinExchangeV3.sol\":3008:3017  price > 0 */\n      sgt\n        /* \"final-contracts/LaborCoinExchangeV3.sol\":3000:3032  require(price > 0, \"Bad oracle\") */\n      tag_96\n      jumpi\n      mload(0x40)\n      shl(0xe5, 0x461bcd)\n      dup2\n      mstore\n        /* \"#utility.yul\":2698:2700   */\n      0x20\n        /* \"final-contracts/LaborCoinExchangeV3.sol\":3000:3032  require(price > 0, \"Bad oracle\") */\n      0x04\n      dup3\n      add\n        /* \"#utility.yul\":2680:2701   */\n      mstore\n        /* \"#utility.yul\":2737:2739   */\n      0x0a\n        /* \"#utility.yul\":2717:2735   */\n      0x24\n      dup3\n      add\n        /* \"#utility.yul\":2710:2740   */\n      mstore\n      shl(0xb0, 0x426164206f7261636c65)\n        /* \"#utility.yul\":2756:2774   */\n      0x44\n      dup3\n      add\n        /* \"#utility.yul\":2749:2789   */\n      mstore\n        /* \"#utility.yul\":2806:2824   */\n      0x64\n      add\n        /* \"final-contracts/LaborCoinExchangeV3.sol\":3000:3032  require(price > 0, \"Bad oracle\") */\n    tag_97:\n      mload(0x40)\n      dup1\n      swap2\n      sub\n      swap1\n      revert\n    tag_96:\n        /* \"final-contracts/LaborCoinExchangeV3.sol\":3063:3091  block.timestamp - 30 minutes */\n      tag_99\n        /* \"final-contracts/LaborCoinExchangeV3.sol\":3081:3091  30 minutes */\n      0x0708\n        /* \"final-contracts/LaborCoinExchangeV3.sol\":3063:3078  block.timestamp */\n      timestamp\n        /* \"final-contracts/LaborCoinExchangeV3.sol\":3063:3091  block.timestamp - 30 minutes */\n      tag_100\n      jump\t// in\n    tag_99:\n        /* \"final-contracts/LaborCoinExchangeV3.sol\":3051:3060  updatedAt */\n      dup2\n        /* \"final-contracts/LaborCoinExchangeV3.sol\":3051:3091  updatedAt > block.timestamp - 30 minutes */\n      gt\n        /* \"final-contracts/LaborCoinExchangeV3.sol\":3043:3101  require(updatedAt > block.timestamp - 30 minutes, \"Stale\") */\n      tag_101\n      jumpi\n      mload(0x40)\n      shl(0xe5, 0x461bcd)\n      dup2\n      mstore\n        /* \"#utility.yul\":3302:3304   */\n      0x20\n        /* \"final-contracts/LaborCoinExchangeV3.sol\":3043:3101  require(updatedAt > block.timestamp - 30 minutes, \"Stale\") */\n      0x04\n      dup3\n      add\n        /* \"#utility.yul\":3284:3305   */\n      mstore\n        /* \"#utility.yul\":3341:3342   */\n      0x05\n        /* \"#utility.yul\":3321:3339   */\n      0x24\n      dup3\n      add\n        /* \"#utility.yul\":3314:3343   */\n      mstore\n      shl(0xd8, 0x5374616c65)\n        /* \"#utility.yul\":3359:3377   */\n      0x44\n      dup3\n      add\n        /* \"#utility.yul\":3352:3387   */\n      mstore\n        /* \"#utility.yul\":3404:3422   */\n      0x64\n      add\n        /* \"final-contracts/LaborCoinExchangeV3.sol\":3043:3101  require(updatedAt > block.timestamp - 30 minutes, \"Stale\") */\n      tag_97\n        /* \"#utility.yul\":3100:3428   */\n      jump\n        /* \"final-contracts/LaborCoinExchangeV3.sol\":3043:3101  require(updatedAt > block.timestamp - 30 minutes, \"Stale\") */\n    tag_101:\n      pop\n        /* \"final-contracts/LaborCoinExchangeV3.sol\":3129:3134  price */\n      swap2\n        /* \"final-contracts/LaborCoinExchangeV3.sol\":2853:3143  function getPOLPriceUSD() public view returns (uint256) {... */\n      swap1\n      pop\n      jump\t// out\n        /* \"final-contracts/LaborCoinExchangeV3.sol\":4666:5459  function sell(uint256 amount, uint256 minPOL)... */\n    tag_73:\n        /* \"@openzeppelin/contracts/utils/ReentrancyGuard.sol\":3023:3044  _nonReentrantBefore() */\n      tag_105\n        /* \"@openzeppelin/contracts/utils/ReentrancyGuard.sol\":3023:3042  _nonReentrantBefore */\n      tag_106\n        /* \"@openzeppelin/contracts/utils/ReentrancyGuard.sol\":3023:3044  _nonReentrantBefore() */\n      jump\t// in\n    tag_105:\n        /* \"final-contracts/LaborCoinExchangeV3.sol\":1994:2004  msg.sender */\n      caller\n        /* \"final-contracts/LaborCoinExchangeV3.sol\":1983:2005  lastTxTime[msg.sender] */\n      0x00\n      swap1\n      dup2\n      mstore\n        /* \"final-contracts/LaborCoinExchangeV3.sol\":1983:1993  lastTxTime */\n      0x03\n        /* \"final-contracts/LaborCoinExchangeV3.sol\":1983:2005  lastTxTime[msg.sender] */\n      0x20\n      mstore\n      0x40\n      swap1\n      keccak256\n      sload\n        /* \"final-contracts/LaborCoinExchangeV3.sol\":1983:2016  lastTxTime[msg.sender] + COOLDOWN */\n      tag_108\n      swap1\n        /* \"final-contracts/LaborCoinExchangeV3.sol\":1216:1224  12 hours */\n      0xa8c0\n      swap1\n        /* \"final-contracts/LaborCoinExchangeV3.sol\":1983:2016  lastTxTime[msg.sender] + COOLDOWN */\n      tag_109\n      jump\t// in\n    tag_108:\n        /* \"final-contracts/LaborCoinExchangeV3.sol\":1964:1979  block.timestamp */\n      timestamp\n        /* \"final-contracts/LaborCoinExchangeV3.sol\":1964:2016  block.timestamp >= lastTxTime[msg.sender] + COOLDOWN */\n      lt\n      iszero\n        /* \"final-contracts/LaborCoinExchangeV3.sol\":1956:2029  require(block.timestamp >= lastTxTime[msg.sender] + COOLDOWN, \"Cooldown\") */\n      tag_110\n      jumpi\n      mload(0x40)\n      shl(0xe5, 0x461bcd)\n      dup2\n      mstore\n        /* \"#utility.yul\":3765:3767   */\n      0x20\n        /* \"final-contracts/LaborCoinExchangeV3.sol\":1956:2029  require(block.timestamp >= lastTxTime[msg.sender] + COOLDOWN, \"Cooldown\") */\n      0x04\n      dup3\n      add\n        /* \"#utility.yul\":3747:3768   */\n      mstore\n        /* \"#utility.yul\":3804:3805   */\n      0x08\n        /* \"#utility.yul\":3784:3802   */\n      0x24\n      dup3\n      add\n        /* \"#utility.yul\":3777:3806   */\n      mstore\n      shl(0xc1, 0x21b7b7b63237bbb7)\n        /* \"#utility.yul\":3822:3840   */\n      0x44\n      dup3\n      add\n        /* \"#utility.yul\":3815:3853   */\n      mstore\n        /* \"#utility.yul\":3870:3888   */\n      0x64\n      add\n        /* \"final-contracts/LaborCoinExchangeV3.sol\":1956:2029  require(block.timestamp >= lastTxTime[msg.sender] + COOLDOWN, \"Cooldown\") */\n      tag_97\n        /* \"#utility.yul\":3563:3894   */\n      jump\n        /* \"final-contracts/LaborCoinExchangeV3.sol\":1956:2029  require(block.timestamp >= lastTxTime[msg.sender] + COOLDOWN, \"Cooldown\") */\n    tag_110:\n        /* \"final-contracts/LaborCoinExchangeV3.sol\":4808:4809  0 */\n      0x00\n        /* \"final-contracts/LaborCoinExchangeV3.sol\":4799:4805  amount */\n      dup3\n        /* \"final-contracts/LaborCoinExchangeV3.sol\":4799:4809  amount > 0 */\n      gt\n        /* \"final-contracts/LaborCoinExchangeV3.sol\":4791:4810  require(amount > 0) */\n      tag_114\n      jumpi\n      revert(0x00, 0x00)\n    tag_114:\n        /* \"final-contracts/LaborCoinExchangeV3.sol\":4839:4848  totalSold */\n      sload(0x01)\n        /* \"final-contracts/LaborCoinExchangeV3.sol\":4829:4835  amount */\n      dup3\n        /* \"final-contracts/LaborCoinExchangeV3.sol\":4829:4848  amount <= totalSold */\n      gt\n      iszero\n        /* \"final-contracts/LaborCoinExchangeV3.sol\":4821:4849  require(amount <= totalSold) */\n      tag_115\n      jumpi\n      revert(0x00, 0x00)\n    tag_115:\n        /* \"final-contracts/LaborCoinExchangeV3.sol\":4862:4875  uint256 price */\n      0x00\n        /* \"final-contracts/LaborCoinExchangeV3.sol\":4878:4897  getPrice(totalSold) */\n      tag_116\n        /* \"final-contracts/LaborCoinExchangeV3.sol\":4887:4896  totalSold */\n      sload(0x01)\n        /* \"final-contracts/LaborCoinExchangeV3.sol\":4878:4886  getPrice */\n      tag_81\n        /* \"final-contracts/LaborCoinExchangeV3.sol\":4878:4897  getPrice(totalSold) */\n      jump\t// in\n    tag_116:\n        /* \"final-contracts/LaborCoinExchangeV3.sol\":4927:4956  LABR.balanceOf(address(this)) */\n      mload(0x40)\n      shl(0xe0, 0x70a08231)\n      dup2\n      mstore\n        /* \"final-contracts/LaborCoinExchangeV3.sol\":4950:4954  this */\n      address\n        /* \"final-contracts/LaborCoinExchangeV3.sol\":4927:4956  LABR.balanceOf(address(this)) */\n      0x04\n      dup3\n      add\n        /* \"#utility.yul\":662:713   */\n      mstore\n        /* \"final-contracts/LaborCoinExchangeV3.sol\":4862:4897  uint256 price = getPrice(totalSold) */\n      swap1\n      swap2\n      pop\n        /* \"final-contracts/LaborCoinExchangeV3.sol\":4910:4924  uint256 before */\n      0x00\n      swap1\n      sub(shl(0xa0, 0x01), 0x01)\n        /* \"final-contracts/LaborCoinExchangeV3.sol\":4927:4931  LABR */\n      immutable(\"0xb440c9986c01395f2aa716b5d1c22f7a6f50e50754b83b93de79b9bd54339a32\")\n        /* \"final-contracts/LaborCoinExchangeV3.sol\":4927:4941  LABR.balanceOf */\n      and\n      swap1\n      0x70a08231\n      swap1\n        /* \"#utility.yul\":635:653   */\n      0x24\n      add\n        /* \"final-contracts/LaborCoinExchangeV3.sol\":4927:4956  LABR.balanceOf(address(this)) */\n      0x20\n      mload(0x40)\n      dup1\n      dup4\n      sub\n      dup2\n      dup7\n      gas\n      staticcall\n      iszero\n      dup1\n      iszero\n      tag_119\n      jumpi\n      returndatacopy(0x00, 0x00, returndatasize)\n      revert(0x00, returndatasize)\n    tag_119:\n      pop\n      pop\n      pop\n      pop\n      mload(0x40)\n      returndatasize\n      not(0x1f)\n      0x1f\n      dup3\n      add\n      and\n      dup3\n      add\n      dup1\n      0x40\n      mstore\n      pop\n      dup2\n      add\n      swap1\n      tag_120\n      swap2\n      swap1\n      tag_121\n      jump\t// in\n    tag_120:\n        /* \"final-contracts/LaborCoinExchangeV3.sol\":4910:4956  uint256 before = LABR.balanceOf(address(this)) */\n      swap1\n      pop\n        /* \"final-contracts/LaborCoinExchangeV3.sol\":4969:5021  _safeTransferFrom(msg.sender, address(this), amount) */\n      tag_122\n        /* \"final-contracts/LaborCoinExchangeV3.sol\":4987:4997  msg.sender */\n      caller\n        /* \"final-contracts/LaborCoinExchangeV3.sol\":5007:5011  this */\n      address\n        /* \"final-contracts/LaborCoinExchangeV3.sol\":5014:5020  amount */\n      dup7\n        /* \"final-contracts/LaborCoinExchangeV3.sol\":4969:4986  _safeTransferFrom */\n      tag_123\n        /* \"final-contracts/LaborCoinExchangeV3.sol\":4969:5021  _safeTransferFrom(msg.sender, address(this), amount) */\n      jump\t// in\n    tag_122:\n        /* \"final-contracts/LaborCoinExchangeV3.sol\":5053:5082  LABR.balanceOf(address(this)) */\n      mload(0x40)\n      shl(0xe0, 0x70a08231)\n      dup2\n      mstore\n        /* \"final-contracts/LaborCoinExchangeV3.sol\":5076:5080  this */\n      address\n        /* \"final-contracts/LaborCoinExchangeV3.sol\":5053:5082  LABR.balanceOf(address(this)) */\n      0x04\n      dup3\n      add\n        /* \"#utility.yul\":662:713   */\n      mstore\n        /* \"final-contracts/LaborCoinExchangeV3.sol\":5034:5050  uint256 received */\n      0x00\n      swap1\n        /* \"final-contracts/LaborCoinExchangeV3.sol\":5085:5091  before */\n      dup3\n      swap1\n      sub(shl(0xa0, 0x01), 0x01)\n        /* \"final-contracts/LaborCoinExchangeV3.sol\":5053:5057  LABR */\n      immutable(\"0xb440c9986c01395f2aa716b5d1c22f7a6f50e50754b83b93de79b9bd54339a32\")\n        /* \"final-contracts/LaborCoinExchangeV3.sol\":5053:5067  LABR.balanceOf */\n      and\n      swap1\n      0x70a08231\n      swap1\n        /* \"#utility.yul\":635:653   */\n      0x24\n      add\n        /* \"final-contracts/LaborCoinExchangeV3.sol\":5053:5082  LABR.balanceOf(address(this)) */\n      0x20\n      mload(0x40)\n      dup1\n      dup4\n      sub\n      dup2\n      dup7\n      gas\n      staticcall\n      iszero\n      dup1\n      iszero\n      tag_126\n      jumpi\n      returndatacopy(0x00, 0x00, returndatasize)\n      revert(0x00, returndatasize)\n    tag_126:\n      pop\n      pop\n      pop\n      pop\n      mload(0x40)\n      returndatasize\n      not(0x1f)\n      0x1f\n      dup3\n      add\n      and\n      dup3\n      add\n      dup1\n      0x40\n      mstore\n      pop\n      dup2\n      add\n      swap1\n      tag_127\n      swap2\n      swap1\n      tag_121\n      jump\t// in\n    tag_127:\n        /* \"final-contracts/LaborCoinExchangeV3.sol\":5053:5091  LABR.balanceOf(address(this)) - before */\n      tag_128\n      swap2\n      swap1\n      tag_100\n      jump\t// in\n    tag_128:\n        /* \"final-contracts/LaborCoinExchangeV3.sol\":5034:5091  uint256 received = LABR.balanceOf(address(this)) - before */\n      swap1\n      pop\n        /* \"final-contracts/LaborCoinExchangeV3.sol\":5125:5133  received */\n      dup1\n        /* \"final-contracts/LaborCoinExchangeV3.sol\":5112:5121  totalSold */\n      sload(0x01)\n        /* \"final-contracts/LaborCoinExchangeV3.sol\":5112:5133  totalSold >= received */\n      lt\n      iszero\n        /* \"final-contracts/LaborCoinExchangeV3.sol\":5104:5134  require(totalSold >= received) */\n      tag_129\n      jumpi\n      revert(0x00, 0x00)\n    tag_129:\n        /* \"final-contracts/LaborCoinExchangeV3.sol\":5147:5161  uint256 payout */\n      0x00\n        /* \"final-contracts/LaborCoinExchangeV3.sol\":5185:5189  1e18 */\n      0x0de0b6b3a7640000\n        /* \"final-contracts/LaborCoinExchangeV3.sol\":5165:5181  received * price */\n      tag_130\n        /* \"final-contracts/LaborCoinExchangeV3.sol\":5176:5181  price */\n      dup6\n        /* \"final-contracts/LaborCoinExchangeV3.sol\":5165:5173  received */\n      dup5\n        /* \"final-contracts/LaborCoinExchangeV3.sol\":5165:5181  received * price */\n      tag_131\n      jump\t// in\n    tag_130:\n        /* \"final-contracts/LaborCoinExchangeV3.sol\":5164:5189  (received * price) / 1e18 */\n      tag_132\n      swap2\n      swap1\n      tag_133\n      jump\t// in\n    tag_132:\n        /* \"final-contracts/LaborCoinExchangeV3.sol\":5147:5189  uint256 payout = (received * price) / 1e18 */\n      swap1\n      pop\n        /* \"final-contracts/LaborCoinExchangeV3.sol\":5220:5226  minPOL */\n      dup5\n        /* \"final-contracts/LaborCoinExchangeV3.sol\":5210:5216  payout */\n      dup2\n        /* \"final-contracts/LaborCoinExchangeV3.sol\":5210:5226  payout >= minPOL */\n      lt\n      iszero\n        /* \"final-contracts/LaborCoinExchangeV3.sol\":5202:5227  require(payout >= minPOL) */\n      tag_134\n      jumpi\n      revert(0x00, 0x00)\n    tag_134:\n        /* \"final-contracts/LaborCoinExchangeV3.sol\":5271:5277  payout */\n      dup1\n        /* \"final-contracts/LaborCoinExchangeV3.sol\":5246:5267  address(this).balance */\n      selfbalance\n        /* \"final-contracts/LaborCoinExchangeV3.sol\":5246:5277  address(this).balance >= payout */\n      lt\n      iszero\n        /* \"final-contracts/LaborCoinExchangeV3.sol\":5238:5278  require(address(this).balance >= payout) */\n      tag_135\n      jumpi\n      revert(0x00, 0x00)\n    tag_135:\n        /* \"final-contracts/LaborCoinExchangeV3.sol\":5304:5312  received */\n      dup2\n        /* \"final-contracts/LaborCoinExchangeV3.sol\":5291:5300  totalSold */\n      0x01\n      0x00\n        /* \"final-contracts/LaborCoinExchangeV3.sol\":5291:5312  totalSold -= received */\n      dup3\n      dup3\n      sload\n      tag_136\n      swap2\n      swap1\n      tag_100\n      jump\t// in\n    tag_136:\n      swap1\n      swap2\n      sstore\n      pop\n      pop\n        /* \"final-contracts/LaborCoinExchangeV3.sol\":5341:5375  msg.sender.call{value: payout}(\"\") */\n      mload(0x40)\n        /* \"final-contracts/LaborCoinExchangeV3.sol\":5326:5335  bool sent */\n      0x00\n      swap1\n        /* \"final-contracts/LaborCoinExchangeV3.sol\":5341:5351  msg.sender */\n      caller\n      swap1\n        /* \"final-contracts/LaborCoinExchangeV3.sol\":5364:5370  payout */\n      dup4\n      swap1\n        /* \"final-contracts/LaborCoinExchangeV3.sol\":5326:5335  bool sent */\n      dup4\n        /* \"final-contracts/LaborCoinExchangeV3.sol\":5341:5375  msg.sender.call{value: payout}(\"\") */\n      dup2\n        /* \"final-contracts/LaborCoinExchangeV3.sol\":5326:5335  bool sent */\n      dup2\n        /* \"final-contracts/LaborCoinExchangeV3.sol\":5341:5375  msg.sender.call{value: payout}(\"\") */\n      dup2\n        /* \"final-contracts/LaborCoinExchangeV3.sol\":5364:5370  payout */\n      dup6\n        /* \"final-contracts/LaborCoinExchangeV3.sol\":5341:5351  msg.sender */\n      dup8\n        /* \"final-contracts/LaborCoinExchangeV3.sol\":5341:5375  msg.sender.call{value: payout}(\"\") */\n      gas\n      call\n      swap3\n      pop\n      pop\n      pop\n      returndatasize\n      dup1\n      0x00\n      dup2\n      eq\n      tag_141\n      jumpi\n      mload(0x40)\n      swap2\n      pop\n      and(add(returndatasize, 0x3f), not(0x1f))\n      dup3\n      add\n      0x40\n      mstore\n      returndatasize\n      dup3\n      mstore\n      returndatasize\n      0x00\n      0x20\n      dup5\n      add\n      returndatacopy\n      jump(tag_140)\n    tag_141:\n      0x60\n      swap2\n      pop\n    tag_140:\n      pop\n        /* \"final-contracts/LaborCoinExchangeV3.sol\":5325:5375  (bool sent, ) = msg.sender.call{value: payout}(\"\") */\n      pop\n      swap1\n      pop\n        /* \"final-contracts/LaborCoinExchangeV3.sol\":5394:5398  sent */\n      dup1\n        /* \"final-contracts/LaborCoinExchangeV3.sol\":5386:5399  require(sent) */\n      tag_142\n      jumpi\n      revert(0x00, 0x00)\n    tag_142:\n        /* \"final-contracts/LaborCoinExchangeV3.sol\":5417:5451  Sell(msg.sender, received, payout) */\n      0x40\n      dup1\n      mload\n        /* \"#utility.yul\":4913:4938   */\n      dup5\n      dup2\n      mstore\n        /* \"#utility.yul\":4969:4971   */\n      0x20\n        /* \"#utility.yul\":4954:4972   */\n      dup2\n      add\n        /* \"#utility.yul\":4947:4981   */\n      dup5\n      swap1\n      mstore\n        /* \"final-contracts/LaborCoinExchangeV3.sol\":5422:5432  msg.sender */\n      caller\n      swap2\n        /* \"final-contracts/LaborCoinExchangeV3.sol\":5417:5451  Sell(msg.sender, received, payout) */\n      0xed7a144fad14804d5c249145e3e0e2b63a9eb455b76aee5bc92d711e9bba3e4a\n      swap2\n        /* \"#utility.yul\":4886:4904   */\n      add\n        /* \"final-contracts/LaborCoinExchangeV3.sol\":5417:5451  Sell(msg.sender, received, payout) */\n      mload(0x40)\n      dup1\n      swap2\n      sub\n      swap1\n      log2\n      pop\n      pop\n        /* \"final-contracts/LaborCoinExchangeV3.sol\":2063:2073  msg.sender */\n      caller\n        /* \"final-contracts/LaborCoinExchangeV3.sol\":2052:2074  lastTxTime[msg.sender] */\n      0x00\n      swap1\n      dup2\n      mstore\n        /* \"final-contracts/LaborCoinExchangeV3.sol\":2052:2062  lastTxTime */\n      0x03\n        /* \"final-contracts/LaborCoinExchangeV3.sol\":2052:2074  lastTxTime[msg.sender] */\n      0x20\n      mstore\n      0x40\n      swap1\n      keccak256\n        /* \"final-contracts/LaborCoinExchangeV3.sol\":2077:2092  block.timestamp */\n      timestamp\n        /* \"final-contracts/LaborCoinExchangeV3.sol\":2052:2092  lastTxTime[msg.sender] = block.timestamp */\n      swap1\n      sstore\n      pop\n        /* \"@openzeppelin/contracts/utils/ReentrancyGuard.sol\":3065:3085  _nonReentrantAfter() */\n      tag_145\n      swap2\n      pop\n        /* \"@openzeppelin/contracts/utils/ReentrancyGuard.sol\":3065:3083  _nonReentrantAfter */\n      tag_146\n      swap1\n      pop\n        /* \"@openzeppelin/contracts/utils/ReentrancyGuard.sol\":3065:3085  _nonReentrantAfter() */\n      jump\t// in\n    tag_145:\n        /* \"final-contracts/LaborCoinExchangeV3.sol\":4666:5459  function sell(uint256 amount, uint256 minPOL)... */\n      pop\n      pop\n      jump\t// out\n        /* \"final-contracts/LaborCoinExchangeV3.sol\":3757:4618  function buy(uint256 minTokensOut)... */\n    tag_77:\n        /* \"@openzeppelin/contracts/utils/ReentrancyGuard.sol\":3023:3044  _nonReentrantBefore() */\n      tag_148\n        /* \"@openzeppelin/contracts/utils/ReentrancyGuard.sol\":3023:3042  _nonReentrantBefore */\n      tag_106\n        /* \"@openzeppelin/contracts/utils/ReentrancyGuard.sol\":3023:3044  _nonReentrantBefore() */\n      jump\t// in\n    tag_148:\n        /* \"final-contracts/LaborCoinExchangeV3.sol\":1994:2004  msg.sender */\n      caller\n        /* \"final-contracts/LaborCoinExchangeV3.sol\":1983:2005  lastTxTime[msg.sender] */\n      0x00\n      swap1\n      dup2\n      mstore\n        /* \"final-contracts/LaborCoinExchangeV3.sol\":1983:1993  lastTxTime */\n      0x03\n        /* \"final-contracts/LaborCoinExchangeV3.sol\":1983:2005  lastTxTime[msg.sender] */\n      0x20\n      mstore\n      0x40\n      swap1\n      keccak256\n      sload\n        /* \"final-contracts/LaborCoinExchangeV3.sol\":1983:2016  lastTxTime[msg.sender] + COOLDOWN */\n      tag_150\n      swap1\n        /* \"final-contracts/LaborCoinExchangeV3.sol\":1216:1224  12 hours */\n      0xa8c0\n      swap1\n        /* \"final-contracts/LaborCoinExchangeV3.sol\":1983:2016  lastTxTime[msg.sender] + COOLDOWN */\n      tag_109\n      jump\t// in\n    tag_150:\n        /* \"final-contracts/LaborCoinExchangeV3.sol\":1964:1979  block.timestamp */\n      timestamp\n        /* \"final-contracts/LaborCoinExchangeV3.sol\":1964:2016  block.timestamp >= lastTxTime[msg.sender] + COOLDOWN */\n      lt\n      iszero\n        /* \"final-contracts/LaborCoinExchangeV3.sol\":1956:2029  require(block.timestamp >= lastTxTime[msg.sender] + COOLDOWN, \"Cooldown\") */\n      tag_151\n      jumpi\n      mload(0x40)\n      shl(0xe5, 0x461bcd)\n      dup2\n      mstore\n        /* \"#utility.yul\":3765:3767   */\n      0x20\n        /* \"final-contracts/LaborCoinExchangeV3.sol\":1956:2029  require(block.timestamp >= lastTxTime[msg.sender] + COOLDOWN, \"Cooldown\") */\n      0x04\n      dup3\n      add\n        /* \"#utility.yul\":3747:3768   */\n      mstore\n        /* \"#utility.yul\":3804:3805   */\n      0x08\n        /* \"#utility.yul\":3784:3802   */\n      0x24\n      dup3\n      add\n        /* \"#utility.yul\":3777:3806   */\n      mstore\n      shl(0xc1, 0x21b7b7b63237bbb7)\n        /* \"#utility.yul\":3822:3840   */\n      0x44\n      dup3\n      add\n        /* \"#utility.yul\":3815:3853   */\n      mstore\n        /* \"#utility.yul\":3870:3888   */\n      0x64\n      add\n        /* \"final-contracts/LaborCoinExchangeV3.sol\":1956:2029  require(block.timestamp >= lastTxTime[msg.sender] + COOLDOWN, \"Cooldown\") */\n      tag_97\n        /* \"#utility.yul\":3563:3894   */\n      jump\n        /* \"final-contracts/LaborCoinExchangeV3.sol\":1956:2029  require(block.timestamp >= lastTxTime[msg.sender] + COOLDOWN, \"Cooldown\") */\n    tag_151:\n        /* \"final-contracts/LaborCoinExchangeV3.sol\":3908:3909  0 */\n      0x00\n        /* \"final-contracts/LaborCoinExchangeV3.sol\":3896:3905  msg.value */\n      callvalue\n        /* \"final-contracts/LaborCoinExchangeV3.sol\":3896:3909  msg.value > 0 */\n      gt\n        /* \"final-contracts/LaborCoinExchangeV3.sol\":3888:3910  require(msg.value > 0) */\n      tag_154\n      jumpi\n      revert(0x00, 0x00)\n    tag_154:\n        /* \"final-contracts/LaborCoinExchangeV3.sol\":3923:3936  uint256 price */\n      0x00\n        /* \"final-contracts/LaborCoinExchangeV3.sol\":3939:3958  getPrice(totalSold) */\n      tag_155\n        /* \"final-contracts/LaborCoinExchangeV3.sol\":3948:3957  totalSold */\n      sload(0x01)\n        /* \"final-contracts/LaborCoinExchangeV3.sol\":3939:3947  getPrice */\n      tag_81\n        /* \"final-contracts/LaborCoinExchangeV3.sol\":3939:3958  getPrice(totalSold) */\n      jump\t// in\n    tag_155:\n        /* \"final-contracts/LaborCoinExchangeV3.sol\":3923:3958  uint256 price = getPrice(totalSold) */\n      swap1\n      pop\n        /* \"final-contracts/LaborCoinExchangeV3.sol\":3969:3985  uint256 expected */\n      0x00\n        /* \"final-contracts/LaborCoinExchangeV3.sol\":3923:3958  uint256 price = getPrice(totalSold) */\n      dup2\n        /* \"final-contracts/LaborCoinExchangeV3.sol\":3989:4005  msg.value * 1e18 */\n      tag_156\n        /* \"final-contracts/LaborCoinExchangeV3.sol\":3989:3998  msg.value */\n      callvalue\n        /* \"final-contracts/LaborCoinExchangeV3.sol\":4001:4005  1e18 */\n      0x0de0b6b3a7640000\n        /* \"final-contracts/LaborCoinExchangeV3.sol\":3989:4005  msg.value * 1e18 */\n      tag_131\n      jump\t// in\n    tag_156:\n        /* \"final-contracts/LaborCoinExchangeV3.sol\":3988:4014  (msg.value * 1e18) / price */\n      tag_157\n      swap2\n      swap1\n      tag_133\n      jump\t// in\n    tag_157:\n        /* \"final-contracts/LaborCoinExchangeV3.sol\":3969:4014  uint256 expected = (msg.value * 1e18) / price */\n      swap1\n      pop\n        /* \"final-contracts/LaborCoinExchangeV3.sol\":4059:4073  unlockedSupply */\n      sload(0x02)\n        /* \"final-contracts/LaborCoinExchangeV3.sol\":4047:4055  expected */\n      dup2\n        /* \"final-contracts/LaborCoinExchangeV3.sol\":4035:4044  totalSold */\n      sload(0x01)\n        /* \"final-contracts/LaborCoinExchangeV3.sol\":4035:4055  totalSold + expected */\n      tag_158\n      swap2\n      swap1\n      tag_109\n      jump\t// in\n    tag_158:\n        /* \"final-contracts/LaborCoinExchangeV3.sol\":4035:4073  totalSold + expected <= unlockedSupply */\n      gt\n      iszero\n        /* \"final-contracts/LaborCoinExchangeV3.sol\":4027:4074  require(totalSold + expected <= unlockedSupply) */\n      tag_159\n      jumpi\n      revert(0x00, 0x00)\n    tag_159:\n        /* \"final-contracts/LaborCoinExchangeV3.sol\":4093:4122  LABR.balanceOf(address(this)) */\n      mload(0x40)\n      shl(0xe0, 0x70a08231)\n      dup2\n      mstore\n        /* \"final-contracts/LaborCoinExchangeV3.sol\":4116:4120  this */\n      address\n        /* \"final-contracts/LaborCoinExchangeV3.sol\":4093:4122  LABR.balanceOf(address(this)) */\n      0x04\n      dup3\n      add\n        /* \"#utility.yul\":662:713   */\n      mstore\n        /* \"final-contracts/LaborCoinExchangeV3.sol\":4126:4134  expected */\n      dup2\n      swap1\n        /* \"final-contracts/LaborCoinExchangeV3.sol\":4093:4097  LABR */\n      immutable(\"0xb440c9986c01395f2aa716b5d1c22f7a6f50e50754b83b93de79b9bd54339a32\")\n      sub(shl(0xa0, 0x01), 0x01)\n        /* \"final-contracts/LaborCoinExchangeV3.sol\":4093:4107  LABR.balanceOf */\n      and\n      swap1\n      0x70a08231\n      swap1\n        /* \"#utility.yul\":635:653   */\n      0x24\n      add\n        /* \"final-contracts/LaborCoinExchangeV3.sol\":4093:4122  LABR.balanceOf(address(this)) */\n      0x20\n      mload(0x40)\n      dup1\n      dup4\n      sub\n      dup2\n      dup7\n      gas\n      staticcall\n      iszero\n      dup1\n      iszero\n      tag_162\n      jumpi\n      returndatacopy(0x00, 0x00, returndatasize)\n      revert(0x00, returndatasize)\n    tag_162:\n      pop\n      pop\n      pop\n      pop\n      mload(0x40)\n      returndatasize\n      not(0x1f)\n      0x1f\n      dup3\n      add\n      and\n      dup3\n      add\n      dup1\n      0x40\n      mstore\n      pop\n      dup2\n      add\n      swap1\n      tag_163\n      swap2\n      swap1\n      tag_121\n      jump\t// in\n    tag_163:\n        /* \"final-contracts/LaborCoinExchangeV3.sol\":4093:4134  LABR.balanceOf(address(this)) >= expected */\n      lt\n      iszero\n        /* \"final-contracts/LaborCoinExchangeV3.sol\":4085:4135  require(LABR.balanceOf(address(this)) >= expected) */\n      tag_164\n      jumpi\n      revert(0x00, 0x00)\n    tag_164:\n        /* \"final-contracts/LaborCoinExchangeV3.sol\":4165:4191  LABR.balanceOf(msg.sender) */\n      mload(0x40)\n      shl(0xe0, 0x70a08231)\n      dup2\n      mstore\n        /* \"final-contracts/LaborCoinExchangeV3.sol\":4180:4190  msg.sender */\n      caller\n        /* \"final-contracts/LaborCoinExchangeV3.sol\":4165:4191  LABR.balanceOf(msg.sender) */\n      0x04\n      dup3\n      add\n        /* \"#utility.yul\":662:713   */\n      mstore\n        /* \"final-contracts/LaborCoinExchangeV3.sol\":4148:4162  uint256 before */\n      0x00\n      swap1\n        /* \"final-contracts/LaborCoinExchangeV3.sol\":4165:4169  LABR */\n      immutable(\"0xb440c9986c01395f2aa716b5d1c22f7a6f50e50754b83b93de79b9bd54339a32\")\n      sub(shl(0xa0, 0x01), 0x01)\n        /* \"final-contracts/LaborCoinExchangeV3.sol\":4165:4179  LABR.balanceOf */\n      and\n      swap1\n      0x70a08231\n      swap1\n        /* \"#utility.yul\":635:653   */\n      0x24\n      add\n        /* \"final-contracts/LaborCoinExchangeV3.sol\":4165:4191  LABR.balanceOf(msg.sender) */\n      0x20\n      mload(0x40)\n      dup1\n      dup4\n      sub\n      dup2\n      dup7\n      gas\n      staticcall\n      iszero\n      dup1\n      iszero\n      tag_167\n      jumpi\n      returndatacopy(0x00, 0x00, returndatasize)\n      revert(0x00, returndatasize)\n    tag_167:\n      pop\n      pop\n      pop\n      pop\n      mload(0x40)\n      returndatasize\n      not(0x1f)\n      0x1f\n      dup3\n      add\n      and\n      dup3\n      add\n      dup1\n      0x40\n      mstore\n      pop\n      dup2\n      add\n      swap1\n      tag_168\n      swap2\n      swap1\n      tag_121\n      jump\t// in\n    tag_168:\n        /* \"final-contracts/LaborCoinExchangeV3.sol\":4148:4191  uint256 before = LABR.balanceOf(msg.sender) */\n      swap1\n      pop\n        /* \"final-contracts/LaborCoinExchangeV3.sol\":4204:4239  _safeTransfer(msg.sender, expected) */\n      tag_169\n        /* \"final-contracts/LaborCoinExchangeV3.sol\":4218:4228  msg.sender */\n      caller\n        /* \"final-contracts/LaborCoinExchangeV3.sol\":4230:4238  expected */\n      dup4\n        /* \"final-contracts/LaborCoinExchangeV3.sol\":4204:4217  _safeTransfer */\n      tag_170\n        /* \"final-contracts/LaborCoinExchangeV3.sol\":4204:4239  _safeTransfer(msg.sender, expected) */\n      jump\t// in\n    tag_169:\n        /* \"final-contracts/LaborCoinExchangeV3.sol\":4271:4297  LABR.balanceOf(msg.sender) */\n      mload(0x40)\n      shl(0xe0, 0x70a08231)\n      dup2\n      mstore\n        /* \"final-contracts/LaborCoinExchangeV3.sol\":4286:4296  msg.sender */\n      caller\n        /* \"final-contracts/LaborCoinExchangeV3.sol\":4271:4297  LABR.balanceOf(msg.sender) */\n      0x04\n      dup3\n      add\n        /* \"#utility.yul\":662:713   */\n      mstore\n        /* \"final-contracts/LaborCoinExchangeV3.sol\":4252:4268  uint256 received */\n      0x00\n      swap1\n        /* \"final-contracts/LaborCoinExchangeV3.sol\":4300:4306  before */\n      dup3\n      swap1\n      sub(shl(0xa0, 0x01), 0x01)\n        /* \"final-contracts/LaborCoinExchangeV3.sol\":4271:4275  LABR */\n      immutable(\"0xb440c9986c01395f2aa716b5d1c22f7a6f50e50754b83b93de79b9bd54339a32\")\n        /* \"final-contracts/LaborCoinExchangeV3.sol\":4271:4285  LABR.balanceOf */\n      and\n      swap1\n      0x70a08231\n      swap1\n        /* \"#utility.yul\":635:653   */\n      0x24\n      add\n        /* \"final-contracts/LaborCoinExchangeV3.sol\":4271:4297  LABR.balanceOf(msg.sender) */\n      0x20\n      mload(0x40)\n      dup1\n      dup4\n      sub\n      dup2\n      dup7\n      gas\n      staticcall\n      iszero\n      dup1\n      iszero\n      tag_173\n      jumpi\n      returndatacopy(0x00, 0x00, returndatasize)\n      revert(0x00, returndatasize)\n    tag_173:\n      pop\n      pop\n      pop\n      pop\n      mload(0x40)\n      returndatasize\n      not(0x1f)\n      0x1f\n      dup3\n      add\n      and\n      dup3\n      add\n      dup1\n      0x40\n      mstore\n      pop\n      dup2\n      add\n      swap1\n      tag_174\n      swap2\n      swap1\n      tag_121\n      jump\t// in\n    tag_174:\n        /* \"final-contracts/LaborCoinExchangeV3.sol\":4271:4306  LABR.balanceOf(msg.sender) - before */\n      tag_175\n      swap2\n      swap1\n      tag_100\n      jump\t// in\n    tag_175:\n        /* \"final-contracts/LaborCoinExchangeV3.sol\":4252:4306  uint256 received = LABR.balanceOf(msg.sender) - before */\n      swap1\n      pop\n        /* \"final-contracts/LaborCoinExchangeV3.sol\":4339:4351  minTokensOut */\n      dup5\n        /* \"final-contracts/LaborCoinExchangeV3.sol\":4327:4335  received */\n      dup2\n        /* \"final-contracts/LaborCoinExchangeV3.sol\":4327:4351  received >= minTokensOut */\n      lt\n      iszero\n        /* \"final-contracts/LaborCoinExchangeV3.sol\":4319:4352  require(received >= minTokensOut) */\n      tag_176\n      jumpi\n      revert(0x00, 0x00)\n    tag_176:\n        /* \"final-contracts/LaborCoinExchangeV3.sol\":4378:4386  received */\n      dup1\n        /* \"final-contracts/LaborCoinExchangeV3.sol\":4365:4374  totalSold */\n      0x01\n      0x00\n        /* \"final-contracts/LaborCoinExchangeV3.sol\":4365:4386  totalSold += received */\n      dup3\n      dup3\n      sload\n      tag_177\n      swap2\n      swap1\n      tag_109\n      jump\t// in\n    tag_177:\n      swap1\n      swap2\n      sstore\n      pop\n        /* \"final-contracts/LaborCoinExchangeV3.sol\":4399:4412  _autoUnlock() */\n      tag_178\n      swap1\n      pop\n        /* \"final-contracts/LaborCoinExchangeV3.sol\":4399:4410  _autoUnlock */\n      tag_179\n        /* \"final-contracts/LaborCoinExchangeV3.sol\":4399:4412  _autoUnlock() */\n      jump\t// in\n    tag_178:\n        /* \"final-contracts/LaborCoinExchangeV3.sol\":4425:4441  uint256 daoShare */\n      0x00\n        /* \"final-contracts/LaborCoinExchangeV3.sol\":4463:4466  100 */\n      0x64\n        /* \"final-contracts/LaborCoinExchangeV3.sol\":4445:4459  msg.value * 10 */\n      tag_180\n        /* \"final-contracts/LaborCoinExchangeV3.sol\":4445:4454  msg.value */\n      callvalue\n        /* \"final-contracts/LaborCoinExchangeV3.sol\":4457:4459  10 */\n      0x0a\n        /* \"final-contracts/LaborCoinExchangeV3.sol\":4445:4459  msg.value * 10 */\n      tag_131\n      jump\t// in\n    tag_180:\n        /* \"final-contracts/LaborCoinExchangeV3.sol\":4444:4466  (msg.value * 10) / 100 */\n      tag_181\n      swap2\n      swap1\n      tag_133\n      jump\t// in\n    tag_181:\n        /* \"final-contracts/LaborCoinExchangeV3.sol\":4480:4489  bool sent */\n      0x00\n        /* \"final-contracts/LaborCoinExchangeV3.sol\":4495:4506  daoTreasury */\n      dup1\n      sload\n        /* \"final-contracts/LaborCoinExchangeV3.sol\":4495:4532  daoTreasury.call{value: daoShare}(\"\") */\n      mload(0x40)\n        /* \"final-contracts/LaborCoinExchangeV3.sol\":4425:4466  uint256 daoShare = (msg.value * 10) / 100 */\n      swap3\n      swap4\n      pop\n        /* \"final-contracts/LaborCoinExchangeV3.sol\":4480:4489  bool sent */\n      swap1\n      swap2\n      sub(shl(0xa0, 0x01), 0x01)\n        /* \"final-contracts/LaborCoinExchangeV3.sol\":4495:4506  daoTreasury */\n      swap1\n      swap2\n      and\n      swap1\n        /* \"final-contracts/LaborCoinExchangeV3.sol\":4425:4466  uint256 daoShare = (msg.value * 10) / 100 */\n      dup4\n      swap1\n        /* \"final-contracts/LaborCoinExchangeV3.sol\":4480:4489  bool sent */\n      dup4\n        /* \"final-contracts/LaborCoinExchangeV3.sol\":4495:4532  daoTreasury.call{value: daoShare}(\"\") */\n      dup2\n        /* \"final-contracts/LaborCoinExchangeV3.sol\":4480:4489  bool sent */\n      dup2\n        /* \"final-contracts/LaborCoinExchangeV3.sol\":4495:4532  daoTreasury.call{value: daoShare}(\"\") */\n      dup2\n        /* \"final-contracts/LaborCoinExchangeV3.sol\":4425:4466  uint256 daoShare = (msg.value * 10) / 100 */\n      dup6\n        /* \"final-contracts/LaborCoinExchangeV3.sol\":4495:4506  daoTreasury */\n      dup8\n        /* \"final-contracts/LaborCoinExchangeV3.sol\":4495:4532  daoTreasury.call{value: daoShare}(\"\") */\n      gas\n      call\n      swap3\n      pop\n      pop\n      pop\n      returndatasize\n      dup1\n      0x00\n      dup2\n      eq\n      tag_185\n      jumpi\n      mload(0x40)\n      swap2\n      pop\n      and(add(returndatasize, 0x3f), not(0x1f))\n      dup3\n      add\n      0x40\n      mstore\n      returndatasize\n      dup3\n      mstore\n      returndatasize\n      0x00\n      0x20\n      dup5\n      add\n      returndatacopy\n      jump(tag_184)\n    tag_185:\n      0x60\n      swap2\n      pop\n    tag_184:\n      pop\n        /* \"final-contracts/LaborCoinExchangeV3.sol\":4479:4532  (bool sent, ) = daoTreasury.call{value: daoShare}(\"\") */\n      pop\n      swap1\n      pop\n        /* \"final-contracts/LaborCoinExchangeV3.sol\":4551:4555  sent */\n      dup1\n        /* \"final-contracts/LaborCoinExchangeV3.sol\":4543:4556  require(sent) */\n      tag_186\n      jumpi\n      revert(0x00, 0x00)\n    tag_186:\n        /* \"final-contracts/LaborCoinExchangeV3.sol\":4574:4610  Buy(msg.sender, msg.value, received) */\n      0x40\n      dup1\n      mload\n        /* \"final-contracts/LaborCoinExchangeV3.sol\":4590:4599  msg.value */\n      callvalue\n        /* \"#utility.yul\":4913:4938   */\n      dup2\n      mstore\n        /* \"#utility.yul\":4969:4971   */\n      0x20\n        /* \"#utility.yul\":4954:4972   */\n      dup2\n      add\n        /* \"#utility.yul\":4947:4981   */\n      dup6\n      swap1\n      mstore\n        /* \"final-contracts/LaborCoinExchangeV3.sol\":4578:4588  msg.sender */\n      caller\n      swap2\n        /* \"final-contracts/LaborCoinExchangeV3.sol\":4574:4610  Buy(msg.sender, msg.value, received) */\n      0x1cbc5ab135991bd2b6a4b034a04aa2aa086dac1371cb9b16b8b5e2ed6b036bed\n      swap2\n        /* \"#utility.yul\":4886:4904   */\n      add\n        /* \"final-contracts/LaborCoinExchangeV3.sol\":4574:4610  Buy(msg.sender, msg.value, received) */\n      mload(0x40)\n      dup1\n      swap2\n      sub\n      swap1\n      log2\n      pop\n      pop\n        /* \"final-contracts/LaborCoinExchangeV3.sol\":2063:2073  msg.sender */\n      caller\n        /* \"final-contracts/LaborCoinExchangeV3.sol\":2052:2074  lastTxTime[msg.sender] */\n      0x00\n      swap1\n      dup2\n      mstore\n        /* \"final-contracts/LaborCoinExchangeV3.sol\":2052:2062  lastTxTime */\n      0x03\n        /* \"final-contracts/LaborCoinExchangeV3.sol\":2052:2074  lastTxTime[msg.sender] */\n      0x20\n      mstore\n      0x40\n      swap1\n      keccak256\n        /* \"final-contracts/LaborCoinExchangeV3.sol\":2077:2092  block.timestamp */\n      timestamp\n        /* \"final-contracts/LaborCoinExchangeV3.sol\":2052:2092  lastTxTime[msg.sender] = block.timestamp */\n      swap1\n      sstore\n      pop\n        /* \"@openzeppelin/contracts/utils/ReentrancyGuard.sol\":3065:3085  _nonReentrantAfter() */\n      tag_188\n      swap3\n      pop\n        /* \"@openzeppelin/contracts/utils/ReentrancyGuard.sol\":3065:3083  _nonReentrantAfter */\n      tag_146\n      swap2\n      pop\n      pop\n        /* \"@openzeppelin/contracts/utils/ReentrancyGuard.sol\":3065:3085  _nonReentrantAfter() */\n      jump\t// in\n    tag_188:\n        /* \"final-contracts/LaborCoinExchangeV3.sol\":3757:4618  function buy(uint256 minTokensOut)... */\n      pop\n      jump\t// out\n        /* \"final-contracts/LaborCoinExchangeV3.sol\":3192:3710  function getPrice(uint256 sold) public view returns (uint256) {... */\n    tag_81:\n        /* \"final-contracts/LaborCoinExchangeV3.sol\":3245:3252  uint256 */\n      0x00\n        /* \"final-contracts/LaborCoinExchangeV3.sol\":1027:1046  1_000_000_000 ether */\n      0x033b2e3c9fd0803ce8000000\n        /* \"final-contracts/LaborCoinExchangeV3.sol\":3269:3273  sold */\n      dup3\n        /* \"final-contracts/LaborCoinExchangeV3.sol\":3269:3286  sold > MAX_SUPPLY */\n      gt\n        /* \"final-contracts/LaborCoinExchangeV3.sol\":3265:3305  if (sold > MAX_SUPPLY) sold = MAX_SUPPLY */\n      iszero\n      tag_190\n      jumpi\n        /* \"final-contracts/LaborCoinExchangeV3.sol\":1027:1046  1_000_000_000 ether */\n      0x033b2e3c9fd0803ce8000000\n        /* \"final-contracts/LaborCoinExchangeV3.sol\":3288:3305  sold = MAX_SUPPLY */\n      swap2\n      pop\n        /* \"final-contracts/LaborCoinExchangeV3.sol\":3265:3305  if (sold > MAX_SUPPLY) sold = MAX_SUPPLY */\n    tag_190:\n        /* \"final-contracts/LaborCoinExchangeV3.sol\":3334:3337  1e8 */\n      0x05f5e100\n        /* \"final-contracts/LaborCoinExchangeV3.sol\":3364:3368  15e8 */\n      0x59682f00\n        /* \"final-contracts/LaborCoinExchangeV3.sol\":3318:3331  uint256 P_MIN */\n      0x00\n        /* \"final-contracts/LaborCoinExchangeV3.sol\":1027:1046  1_000_000_000 ether */\n      0x033b2e3c9fd0803ce8000000\n        /* \"final-contracts/LaborCoinExchangeV3.sol\":3394:3405  sold * 1e18 */\n      tag_191\n        /* \"final-contracts/LaborCoinExchangeV3.sol\":3394:3398  sold */\n      dup7\n        /* \"final-contracts/LaborCoinExchangeV3.sol\":3401:3405  1e18 */\n      0x0de0b6b3a7640000\n        /* \"final-contracts/LaborCoinExchangeV3.sol\":3394:3405  sold * 1e18 */\n      tag_131\n      jump\t// in\n    tag_191:\n        /* \"final-contracts/LaborCoinExchangeV3.sol\":3393:3419  (sold * 1e18) / MAX_SUPPLY */\n      tag_192\n      swap2\n      swap1\n      tag_133\n      jump\t// in\n    tag_192:\n        /* \"final-contracts/LaborCoinExchangeV3.sol\":3381:3419  uint256 x = (sold * 1e18) / MAX_SUPPLY */\n      swap1\n      pop\n        /* \"final-contracts/LaborCoinExchangeV3.sol\":3430:3440  uint256 x2 */\n      0x00\n        /* \"final-contracts/LaborCoinExchangeV3.sol\":3453:3457  1e18 */\n      0x0de0b6b3a7640000\n        /* \"final-contracts/LaborCoinExchangeV3.sol\":3444:3449  x * x */\n      tag_193\n        /* \"final-contracts/LaborCoinExchangeV3.sol\":3381:3419  uint256 x = (sold * 1e18) / MAX_SUPPLY */\n      dup4\n      dup1\n        /* \"final-contracts/LaborCoinExchangeV3.sol\":3444:3449  x * x */\n      tag_131\n      jump\t// in\n    tag_193:\n        /* \"final-contracts/LaborCoinExchangeV3.sol\":3443:3457  (x * x) / 1e18 */\n      tag_194\n      swap2\n      swap1\n      tag_133\n      jump\t// in\n    tag_194:\n        /* \"final-contracts/LaborCoinExchangeV3.sol\":3430:3457  uint256 x2 = (x * x) / 1e18 */\n      swap1\n      pop\n        /* \"final-contracts/LaborCoinExchangeV3.sol\":3470:3481  uint256 usd */\n      0x00\n        /* \"final-contracts/LaborCoinExchangeV3.sol\":3517:3521  1e18 */\n      0x0de0b6b3a7640000\n        /* \"final-contracts/LaborCoinExchangeV3.sol\":3430:3457  uint256 x2 = (x * x) / 1e18 */\n      dup3\n        /* \"final-contracts/LaborCoinExchangeV3.sol\":3494:3507  P_MAX - P_MIN */\n      tag_195\n        /* \"final-contracts/LaborCoinExchangeV3.sol\":3502:3507  P_MIN */\n      dup8\n        /* \"final-contracts/LaborCoinExchangeV3.sol\":3494:3499  P_MAX */\n      dup8\n        /* \"final-contracts/LaborCoinExchangeV3.sol\":3494:3507  P_MAX - P_MIN */\n      tag_100\n      jump\t// in\n    tag_195:\n        /* \"final-contracts/LaborCoinExchangeV3.sol\":3493:3513  (P_MAX - P_MIN) * x2 */\n      tag_196\n      swap2\n      swap1\n      tag_131\n      jump\t// in\n    tag_196:\n        /* \"final-contracts/LaborCoinExchangeV3.sol\":3492:3521  ((P_MAX - P_MIN) * x2) / 1e18 */\n      tag_197\n      swap2\n      swap1\n      tag_133\n      jump\t// in\n    tag_197:\n        /* \"final-contracts/LaborCoinExchangeV3.sol\":3484:3521  P_MIN + ((P_MAX - P_MIN) * x2) / 1e18 */\n      tag_198\n      swap1\n        /* \"final-contracts/LaborCoinExchangeV3.sol\":3484:3489  P_MIN */\n      dup7\n        /* \"final-contracts/LaborCoinExchangeV3.sol\":3484:3521  P_MIN + ((P_MAX - P_MIN) * x2) / 1e18 */\n      tag_109\n      jump\t// in\n    tag_198:\n        /* \"final-contracts/LaborCoinExchangeV3.sol\":3470:3521  uint256 usd = P_MIN + ((P_MAX - P_MIN) * x2) / 1e18 */\n      swap1\n      pop\n        /* \"final-contracts/LaborCoinExchangeV3.sol\":3532:3546  uint256 polUSD */\n      0x00\n        /* \"final-contracts/LaborCoinExchangeV3.sol\":3549:3565  getPOLPriceUSD() */\n      tag_199\n        /* \"final-contracts/LaborCoinExchangeV3.sol\":3549:3563  getPOLPriceUSD */\n      tag_36\n        /* \"final-contracts/LaborCoinExchangeV3.sol\":3549:3565  getPOLPriceUSD() */\n      jump\t// in\n    tag_199:\n        /* \"final-contracts/LaborCoinExchangeV3.sol\":3532:3565  uint256 polUSD = getPOLPriceUSD() */\n      swap1\n      pop\n        /* \"final-contracts/LaborCoinExchangeV3.sol\":3578:3591  uint256 price */\n      0x00\n        /* \"final-contracts/LaborCoinExchangeV3.sol\":3532:3565  uint256 polUSD = getPOLPriceUSD() */\n      dup2\n        /* \"final-contracts/LaborCoinExchangeV3.sol\":3595:3605  usd * 1e18 */\n      tag_200\n        /* \"final-contracts/LaborCoinExchangeV3.sol\":3595:3598  usd */\n      dup5\n        /* \"final-contracts/LaborCoinExchangeV3.sol\":3601:3605  1e18 */\n      0x0de0b6b3a7640000\n        /* \"final-contracts/LaborCoinExchangeV3.sol\":3595:3605  usd * 1e18 */\n      tag_131\n      jump\t// in\n    tag_200:\n        /* \"final-contracts/LaborCoinExchangeV3.sol\":3594:3615  (usd * 1e18) / polUSD */\n      tag_201\n      swap2\n      swap1\n      tag_133\n      jump\t// in\n    tag_201:\n        /* \"final-contracts/LaborCoinExchangeV3.sol\":3578:3615  uint256 price = (usd * 1e18) / polUSD */\n      swap1\n      pop\n        /* \"final-contracts/LaborCoinExchangeV3.sol\":1273:1282  100 ether */\n      0x056bc75e2d63100000\n        /* \"final-contracts/LaborCoinExchangeV3.sol\":3636:3641  price */\n      dup2\n        /* \"final-contracts/LaborCoinExchangeV3.sol\":3636:3658  price <= MAX_PRICE_POL */\n      gt\n      iszero\n        /* \"final-contracts/LaborCoinExchangeV3.sol\":3628:3677  require(price <= MAX_PRICE_POL, \"Oracle anomaly\") */\n      tag_202\n      jumpi\n      mload(0x40)\n      shl(0xe5, 0x461bcd)\n      dup2\n      mstore\n        /* \"#utility.yul\":5194:5196   */\n      0x20\n        /* \"final-contracts/LaborCoinExchangeV3.sol\":3628:3677  require(price <= MAX_PRICE_POL, \"Oracle anomaly\") */\n      0x04\n      dup3\n      add\n        /* \"#utility.yul\":5176:5197   */\n      mstore\n        /* \"#utility.yul\":5233:5235   */\n      0x0e\n        /* \"#utility.yul\":5213:5231   */\n      0x24\n      dup3\n      add\n        /* \"#utility.yul\":5206:5236   */\n      mstore\n      shl(0x90, 0x4f7261636c6520616e6f6d616c79)\n        /* \"#utility.yul\":5252:5270   */\n      0x44\n      dup3\n      add\n        /* \"#utility.yul\":5245:5289   */\n      mstore\n        /* \"#utility.yul\":5306:5324   */\n      0x64\n      add\n        /* \"final-contracts/LaborCoinExchangeV3.sol\":3628:3677  require(price <= MAX_PRICE_POL, \"Oracle anomaly\") */\n      tag_97\n        /* \"#utility.yul\":4992:5330   */\n      jump\n        /* \"final-contracts/LaborCoinExchangeV3.sol\":3628:3677  require(price <= MAX_PRICE_POL, \"Oracle anomaly\") */\n    tag_202:\n        /* \"final-contracts/LaborCoinExchangeV3.sol\":3697:3702  price */\n      swap9\n        /* \"final-contracts/LaborCoinExchangeV3.sol\":3192:3710  function getPrice(uint256 sold) public view returns (uint256) {... */\n      swap8\n      pop\n      pop\n      pop\n      pop\n      pop\n      pop\n      pop\n      pop\n      jump\t// out\n        /* \"@openzeppelin/contracts/utils/ReentrancyGuard.sol\":3749:4041  function _nonReentrantBefore() private {... */\n    tag_106:\n        /* \"@openzeppelin/contracts/utils/ReentrancyGuard.sol\":3872:3897  _nonReentrantBeforeView() */\n      tag_206\n        /* \"@openzeppelin/contracts/utils/ReentrancyGuard.sol\":3872:3895  _nonReentrantBeforeView */\n      tag_207\n        /* \"@openzeppelin/contracts/utils/ReentrancyGuard.sol\":3872:3897  _nonReentrantBeforeView() */\n      jump\t// in\n    tag_206:\n        /* \"@openzeppelin/contracts/utils/ReentrancyGuard.sol\":2407:2408  2 */\n      0x02\n        /* \"@openzeppelin/contracts/utils/ReentrancyGuard.sol\":1505:1571  0x9b779b17422d0df92223018b32b4d1fa46e071723d6817e2486d003becc55f00 */\n      0x9b779b17422d0df92223018b32b4d1fa46e071723d6817e2486d003becc55f00\n        /* \"@openzeppelin/contracts/utils/ReentrancyGuard.sol\":3972:4034  _reentrancyGuardStorageSlot().getUint256Slot().value = ENTERED */\n      sstore\n        /* \"@openzeppelin/contracts/utils/ReentrancyGuard.sol\":3749:4041  function _nonReentrantBefore() private {... */\n      jump\t// out\n        /* \"final-contracts/LaborCoinExchangeV3.sol\":2471:2803  function _safeTransferFrom(address from, address to, uint256 amount) internal {... */\n    tag_123:\n        /* \"final-contracts/LaborCoinExchangeV3.sol\":2628:2696  abi.encodeWithSelector(LABR.transferFrom.selector, from, to, amount) */\n      0x40\n      dup1\n      mload\n      sub(shl(0xa0, 0x01), 0x01)\n        /* \"#utility.yul\":5555:5587   */\n      dup6\n      dup2\n      and\n        /* \"final-contracts/LaborCoinExchangeV3.sol\":2628:2696  abi.encodeWithSelector(LABR.transferFrom.selector, from, to, amount) */\n      0x24\n      dup4\n      add\n        /* \"#utility.yul\":5537:5588   */\n      mstore\n        /* \"#utility.yul\":5624:5656   */\n      dup5\n      dup2\n      and\n        /* \"#utility.yul\":5604:5622   */\n      0x44\n      dup4\n      add\n        /* \"#utility.yul\":5597:5657   */\n      mstore\n        /* \"#utility.yul\":5673:5691   */\n      0x64\n      dup1\n      dup4\n      add\n        /* \"#utility.yul\":5666:5700   */\n      dup6\n      swap1\n      mstore\n        /* \"final-contracts/LaborCoinExchangeV3.sol\":2628:2696  abi.encodeWithSelector(LABR.transferFrom.selector, from, to, amount) */\n      dup4\n      mload\n      dup1\n      dup5\n      sub\n      swap1\n      swap2\n      add\n      dup2\n      mstore\n        /* \"#utility.yul\":5510:5528   */\n      0x84\n      swap1\n      swap3\n      add\n        /* \"final-contracts/LaborCoinExchangeV3.sol\":2628:2696  abi.encodeWithSelector(LABR.transferFrom.selector, from, to, amount) */\n      dup4\n      mstore\n      0x20\n      dup3\n      add\n      dup1\n      mload\n      sub(shl(0xe0, 0x01), 0x01)\n      and\n      shl(0xe0, 0x23b872dd)\n      or\n      swap1\n      mstore\n        /* \"final-contracts/LaborCoinExchangeV3.sol\":2609:2697  address(LABR).call(abi.encodeWithSelector(LABR.transferFrom.selector, from, to, amount)) */\n      swap2\n      mload\n      0x00\n      swap3\n      dup4\n      swap3\n        /* \"final-contracts/LaborCoinExchangeV3.sol\":2617:2621  LABR */\n      immutable(\"0xb440c9986c01395f2aa716b5d1c22f7a6f50e50754b83b93de79b9bd54339a32\")\n        /* \"final-contracts/LaborCoinExchangeV3.sol\":2609:2627  address(LABR).call */\n      swap1\n      swap2\n      and\n      swap2\n        /* \"final-contracts/LaborCoinExchangeV3.sol\":2609:2697  address(LABR).call(abi.encodeWithSelector(LABR.transferFrom.selector, from, to, amount)) */\n      tag_215\n      swap2\n        /* \"final-contracts/LaborCoinExchangeV3.sol\":2628:2696  abi.encodeWithSelector(LABR.transferFrom.selector, from, to, amount) */\n      swap1\n        /* \"final-contracts/LaborCoinExchangeV3.sol\":2609:2697  address(LABR).call(abi.encodeWithSelector(LABR.transferFrom.selector, from, to, amount)) */\n      tag_216\n      jump\t// in\n    tag_215:\n      0x00\n      mload(0x40)\n      dup1\n      dup4\n      sub\n      dup2\n      0x00\n      dup7\n      gas\n      call\n      swap2\n      pop\n      pop\n      returndatasize\n      dup1\n      0x00\n      dup2\n      eq\n      tag_219\n      jumpi\n      mload(0x40)\n      swap2\n      pop\n      and(add(returndatasize, 0x3f), not(0x1f))\n      dup3\n      add\n      0x40\n      mstore\n      returndatasize\n      dup3\n      mstore\n      returndatasize\n      0x00\n      0x20\n      dup5\n      add\n      returndatacopy\n      jump(tag_218)\n    tag_219:\n      0x60\n      swap2\n      pop\n    tag_218:\n      pop\n        /* \"final-contracts/LaborCoinExchangeV3.sol\":2560:2697  (bool success, bytes memory data) =... */\n      swap2\n      pop\n      swap2\n      pop\n        /* \"final-contracts/LaborCoinExchangeV3.sol\":2716:2723  success */\n      dup2\n        /* \"final-contracts/LaborCoinExchangeV3.sol\":2716:2773  success && (data.length == 0 || abi.decode(data, (bool))) */\n      dup1\n      iszero\n      tag_222\n      jumpi\n      pop\n        /* \"final-contracts/LaborCoinExchangeV3.sol\":2728:2739  data.length */\n      dup1\n      mload\n        /* \"final-contracts/LaborCoinExchangeV3.sol\":2728:2744  data.length == 0 */\n      iszero\n      dup1\n        /* \"final-contracts/LaborCoinExchangeV3.sol\":2728:2772  data.length == 0 || abi.decode(data, (bool)) */\n      tag_222\n      jumpi\n      pop\n        /* \"final-contracts/LaborCoinExchangeV3.sol\":2759:2763  data */\n      dup1\n        /* \"final-contracts/LaborCoinExchangeV3.sol\":2748:2772  abi.decode(data, (bool)) */\n      dup1\n      0x20\n      add\n      swap1\n      mload\n      dup2\n      add\n      swap1\n      tag_222\n      swap2\n      swap1\n      tag_223\n      jump\t// in\n    tag_222:\n        /* \"final-contracts/LaborCoinExchangeV3.sol\":2708:2795  require(success && (data.length == 0 || abi.decode(data, (bool))), \"TransferFrom fail\") */\n      tag_224\n      jumpi\n      mload(0x40)\n      shl(0xe5, 0x461bcd)\n      dup2\n      mstore\n        /* \"#utility.yul\":6501:6503   */\n      0x20\n        /* \"final-contracts/LaborCoinExchangeV3.sol\":2708:2795  require(success && (data.length == 0 || abi.decode(data, (bool))), \"TransferFrom fail\") */\n      0x04\n      dup3\n      add\n        /* \"#utility.yul\":6483:6504   */\n      mstore\n        /* \"#utility.yul\":6540:6542   */\n      0x11\n        /* \"#utility.yul\":6520:6538   */\n      0x24\n      dup3\n      add\n        /* \"#utility.yul\":6513:6543   */\n      mstore\n      shl(0x7a, 0x151c985b9cd9995c919c9bdb4819985a5b)\n        /* \"#utility.yul\":6559:6577   */\n      0x44\n      dup3\n      add\n        /* \"#utility.yul\":6552:6599   */\n      mstore\n        /* \"#utility.yul\":6616:6634   */\n      0x64\n      add\n        /* \"final-contracts/LaborCoinExchangeV3.sol\":2708:2795  require(success && (data.length == 0 || abi.decode(data, (bool))), \"TransferFrom fail\") */\n      tag_97\n        /* \"#utility.yul\":6299:6640   */\n      jump\n        /* \"final-contracts/LaborCoinExchangeV3.sol\":2708:2795  require(success && (data.length == 0 || abi.decode(data, (bool))), \"TransferFrom fail\") */\n    tag_224:\n        /* \"final-contracts/LaborCoinExchangeV3.sol\":2549:2803  {... */\n      pop\n      pop\n        /* \"final-contracts/LaborCoinExchangeV3.sol\":2471:2803  function _safeTransferFrom(address from, address to, uint256 amount) internal {... */\n      pop\n      pop\n      pop\n      jump\t// out\n        /* \"@openzeppelin/contracts/utils/ReentrancyGuard.sol\":4047:4300  function _nonReentrantAfter() private {... */\n    tag_146:\n        /* \"@openzeppelin/contracts/utils/ReentrancyGuard.sol\":2365:2366  1 */\n      0x01\n        /* \"@openzeppelin/contracts/utils/ReentrancyGuard.sol\":1505:1571  0x9b779b17422d0df92223018b32b4d1fa46e071723d6817e2486d003becc55f00 */\n      0x9b779b17422d0df92223018b32b4d1fa46e071723d6817e2486d003becc55f00\n        /* \"@openzeppelin/contracts/utils/ReentrancyGuard.sol\":3972:4034  _reentrancyGuardStorageSlot().getUint256Slot().value = ENTERED */\n      sstore\n        /* \"@openzeppelin/contracts/utils/ReentrancyGuard.sol\":3749:4041  function _nonReentrantBefore() private {... */\n      jump\t// out\n        /* \"final-contracts/LaborCoinExchangeV3.sol\":2163:2463  function _safeTransfer(address to, uint256 amount) internal {... */\n    tag_170:\n        /* \"final-contracts/LaborCoinExchangeV3.sol\":2302:2360  abi.encodeWithSelector(LABR.transfer.selector, to, amount) */\n      0x40\n      dup1\n      mload\n      sub(shl(0xa0, 0x01), 0x01)\n        /* \"#utility.yul\":6837:6869   */\n      dup5\n      dup2\n      and\n        /* \"final-contracts/LaborCoinExchangeV3.sol\":2302:2360  abi.encodeWithSelector(LABR.transfer.selector, to, amount) */\n      0x24\n      dup4\n      add\n        /* \"#utility.yul\":6819:6870   */\n      mstore\n        /* \"#utility.yul\":6886:6904   */\n      0x44\n      dup1\n      dup4\n      add\n        /* \"#utility.yul\":6879:6913   */\n      dup6\n      swap1\n      mstore\n        /* \"final-contracts/LaborCoinExchangeV3.sol\":2302:2360  abi.encodeWithSelector(LABR.transfer.selector, to, amount) */\n      dup4\n      mload\n      dup1\n      dup5\n      sub\n      swap1\n      swap2\n      add\n      dup2\n      mstore\n        /* \"#utility.yul\":6792:6810   */\n      0x64\n      swap1\n      swap3\n      add\n        /* \"final-contracts/LaborCoinExchangeV3.sol\":2302:2360  abi.encodeWithSelector(LABR.transfer.selector, to, amount) */\n      dup4\n      mstore\n      0x20\n      dup3\n      add\n      dup1\n      mload\n      sub(shl(0xe0, 0x01), 0x01)\n      and\n      shl(0xe0, 0xa9059cbb)\n      or\n      swap1\n      mstore\n        /* \"final-contracts/LaborCoinExchangeV3.sol\":2283:2361  address(LABR).call(abi.encodeWithSelector(LABR.transfer.selector, to, amount)) */\n      swap2\n      mload\n      0x00\n      swap3\n      dup4\n      swap3\n        /* \"final-contracts/LaborCoinExchangeV3.sol\":2291:2295  LABR */\n      immutable(\"0xb440c9986c01395f2aa716b5d1c22f7a6f50e50754b83b93de79b9bd54339a32\")\n        /* \"final-contracts/LaborCoinExchangeV3.sol\":2283:2301  address(LABR).call */\n      swap1\n      swap2\n      and\n      swap2\n        /* \"final-contracts/LaborCoinExchangeV3.sol\":2283:2361  address(LABR).call(abi.encodeWithSelector(LABR.transfer.selector, to, amount)) */\n      tag_233\n      swap2\n        /* \"final-contracts/LaborCoinExchangeV3.sol\":2302:2360  abi.encodeWithSelector(LABR.transfer.selector, to, amount) */\n      swap1\n        /* \"final-contracts/LaborCoinExchangeV3.sol\":2283:2361  address(LABR).call(abi.encodeWithSelector(LABR.transfer.selector, to, amount)) */\n      tag_216\n      jump\t// in\n    tag_233:\n      0x00\n      mload(0x40)\n      dup1\n      dup4\n      sub\n      dup2\n      0x00\n      dup7\n      gas\n      call\n      swap2\n      pop\n      pop\n      returndatasize\n      dup1\n      0x00\n      dup2\n      eq\n      tag_236\n      jumpi\n      mload(0x40)\n      swap2\n      pop\n      and(add(returndatasize, 0x3f), not(0x1f))\n      dup3\n      add\n      0x40\n      mstore\n      returndatasize\n      dup3\n      mstore\n      returndatasize\n      0x00\n      0x20\n      dup5\n      add\n      returndatacopy\n      jump(tag_235)\n    tag_236:\n      0x60\n      swap2\n      pop\n    tag_235:\n      pop\n        /* \"final-contracts/LaborCoinExchangeV3.sol\":2234:2361  (bool success, bytes memory data) =... */\n      swap2\n      pop\n      swap2\n      pop\n        /* \"final-contracts/LaborCoinExchangeV3.sol\":2380:2387  success */\n      dup2\n        /* \"final-contracts/LaborCoinExchangeV3.sol\":2380:2437  success && (data.length == 0 || abi.decode(data, (bool))) */\n      dup1\n      iszero\n      tag_239\n      jumpi\n      pop\n        /* \"final-contracts/LaborCoinExchangeV3.sol\":2392:2403  data.length */\n      dup1\n      mload\n        /* \"final-contracts/LaborCoinExchangeV3.sol\":2392:2408  data.length == 0 */\n      iszero\n      dup1\n        /* \"final-contracts/LaborCoinExchangeV3.sol\":2392:2436  data.length == 0 || abi.decode(data, (bool)) */\n      tag_239\n      jumpi\n      pop\n        /* \"final-contracts/LaborCoinExchangeV3.sol\":2423:2427  data */\n      dup1\n        /* \"final-contracts/LaborCoinExchangeV3.sol\":2412:2436  abi.decode(data, (bool)) */\n      dup1\n      0x20\n      add\n      swap1\n      mload\n      dup2\n      add\n      swap1\n      tag_239\n      swap2\n      swap1\n      tag_223\n      jump\t// in\n    tag_239:\n        /* \"final-contracts/LaborCoinExchangeV3.sol\":2372:2455  require(success && (data.length == 0 || abi.decode(data, (bool))), \"Transfer fail\") */\n      tag_240\n      jumpi\n      mload(0x40)\n      shl(0xe5, 0x461bcd)\n      dup2\n      mstore\n        /* \"#utility.yul\":7126:7128   */\n      0x20\n        /* \"final-contracts/LaborCoinExchangeV3.sol\":2372:2455  require(success && (data.length == 0 || abi.decode(data, (bool))), \"Transfer fail\") */\n      0x04\n      dup3\n      add\n        /* \"#utility.yul\":7108:7129   */\n      mstore\n        /* \"#utility.yul\":7165:7167   */\n      0x0d\n        /* \"#utility.yul\":7145:7163   */\n      0x24\n      dup3\n      add\n        /* \"#utility.yul\":7138:7168   */\n      mstore\n      shl(0x9a, 0x151c985b9cd9995c8819985a5b)\n        /* \"#utility.yul\":7184:7202   */\n      0x44\n      dup3\n      add\n        /* \"#utility.yul\":7177:7220   */\n      mstore\n        /* \"#utility.yul\":7237:7255   */\n      0x64\n      add\n        /* \"final-contracts/LaborCoinExchangeV3.sol\":2372:2455  require(success && (data.length == 0 || abi.decode(data, (bool))), \"Transfer fail\") */\n      tag_97\n        /* \"#utility.yul\":6924:7261   */\n      jump\n        /* \"final-contracts/LaborCoinExchangeV3.sol\":2372:2455  require(success && (data.length == 0 || abi.decode(data, (bool))), \"Transfer fail\") */\n    tag_240:\n        /* \"final-contracts/LaborCoinExchangeV3.sol\":2223:2463  {... */\n      pop\n      pop\n        /* \"final-contracts/LaborCoinExchangeV3.sol\":2163:2463  function _safeTransfer(address to, uint256 amount) internal {... */\n      pop\n      pop\n      jump\t// out\n        /* \"final-contracts/LaborCoinExchangeV3.sol\":5467:5814  function _autoUnlock() internal {... */\n    tag_179:\n        /* \"final-contracts/LaborCoinExchangeV3.sol\":5510:5519  uint256 i */\n      0x00\n        /* \"final-contracts/LaborCoinExchangeV3.sol\":5530:5807  while (totalSold >= unlockedSupply && i < 10) {... */\n    tag_244:\n        /* \"final-contracts/LaborCoinExchangeV3.sol\":5550:5564  unlockedSupply */\n      sload(0x02)\n        /* \"final-contracts/LaborCoinExchangeV3.sol\":5537:5546  totalSold */\n      sload(0x01)\n        /* \"final-contracts/LaborCoinExchangeV3.sol\":5537:5564  totalSold >= unlockedSupply */\n      lt\n      iszero\n        /* \"final-contracts/LaborCoinExchangeV3.sol\":5537:5574  totalSold >= unlockedSupply && i < 10 */\n      dup1\n      iszero\n      tag_246\n      jumpi\n      pop\n        /* \"final-contracts/LaborCoinExchangeV3.sol\":5572:5574  10 */\n      0x0a\n        /* \"final-contracts/LaborCoinExchangeV3.sol\":5568:5569  i */\n      dup2\n        /* \"final-contracts/LaborCoinExchangeV3.sol\":5568:5574  i < 10 */\n      lt\n        /* \"final-contracts/LaborCoinExchangeV3.sol\":5537:5574  totalSold >= unlockedSupply && i < 10 */\n    tag_246:\n        /* \"final-contracts/LaborCoinExchangeV3.sol\":5530:5807  while (totalSold >= unlockedSupply && i < 10) {... */\n      iszero\n      tag_188\n      jumpi\n        /* \"final-contracts/LaborCoinExchangeV3.sol\":5591:5603  uint256 next */\n      0x00\n        /* \"final-contracts/LaborCoinExchangeV3.sol\":1158:1174  50_000_000 ether */\n      0x295be96e64066972000000\n        /* \"final-contracts/LaborCoinExchangeV3.sol\":5606:5620  unlockedSupply */\n      sload(0x02)\n        /* \"final-contracts/LaborCoinExchangeV3.sol\":5606:5635  unlockedSupply + TRANCHE_SIZE */\n      tag_247\n      swap2\n      swap1\n      tag_109\n      jump\t// in\n    tag_247:\n        /* \"final-contracts/LaborCoinExchangeV3.sol\":5591:5635  uint256 next = unlockedSupply + TRANCHE_SIZE */\n      swap1\n      pop\n        /* \"final-contracts/LaborCoinExchangeV3.sol\":1027:1046  1_000_000_000 ether */\n      0x033b2e3c9fd0803ce8000000\n        /* \"final-contracts/LaborCoinExchangeV3.sol\":5654:5658  next */\n      dup2\n        /* \"final-contracts/LaborCoinExchangeV3.sol\":5654:5671  next > MAX_SUPPLY */\n      gt\n        /* \"final-contracts/LaborCoinExchangeV3.sol\":5650:5690  if (next > MAX_SUPPLY) next = MAX_SUPPLY */\n      iszero\n      tag_248\n      jumpi\n      pop\n        /* \"final-contracts/LaborCoinExchangeV3.sol\":1027:1046  1_000_000_000 ether */\n      0x033b2e3c9fd0803ce8000000\n        /* \"final-contracts/LaborCoinExchangeV3.sol\":5650:5690  if (next > MAX_SUPPLY) next = MAX_SUPPLY */\n    tag_248:\n        /* \"final-contracts/LaborCoinExchangeV3.sol\":5705:5719  unlockedSupply */\n      0x02\n        /* \"final-contracts/LaborCoinExchangeV3.sol\":5705:5726  unlockedSupply = next */\n      dup2\n      swap1\n      sstore\n        /* \"final-contracts/LaborCoinExchangeV3.sol\":5746:5777  TrancheUnlocked(unlockedSupply) */\n      mload(0x40)\n        /* \"#utility.yul\":160:185   */\n      dup2\n      dup2\n      mstore\n        /* \"final-contracts/LaborCoinExchangeV3.sol\":5746:5777  TrancheUnlocked(unlockedSupply) */\n      0xc1fa8e88841fa38aed8218549bd24903570c58976a974eb8b3329e98a92a9c3c\n      swap1\n        /* \"#utility.yul\":148:150   */\n      0x20\n        /* \"#utility.yul\":133:151   */\n      add\n        /* \"final-contracts/LaborCoinExchangeV3.sol\":5746:5777  TrancheUnlocked(unlockedSupply) */\n      mload(0x40)\n      dup1\n      swap2\n      sub\n      swap1\n      log1\n        /* \"final-contracts/LaborCoinExchangeV3.sol\":5792:5795  i++ */\n      dup2\n      tag_250\n      dup2\n      tag_251\n      jump\t// in\n    tag_250:\n      swap3\n      pop\n      pop\n        /* \"final-contracts/LaborCoinExchangeV3.sol\":5576:5807  {... */\n      pop\n        /* \"final-contracts/LaborCoinExchangeV3.sol\":5530:5807  while (totalSold >= unlockedSupply && i < 10) {... */\n      jump(tag_244)\n        /* \"@openzeppelin/contracts/utils/ReentrancyGuard.sol\":3586:3743  function _nonReentrantBeforeView() private view {... */\n    tag_207:\n        /* \"@openzeppelin/contracts/utils/ReentrancyGuard.sol\":1505:1571  0x9b779b17422d0df92223018b32b4d1fa46e071723d6817e2486d003becc55f00 */\n      0x9b779b17422d0df92223018b32b4d1fa46e071723d6817e2486d003becc55f00\n        /* \"@openzeppelin/contracts/utils/ReentrancyGuard.sol\":4560:4612  _reentrancyGuardStorageSlot().getUint256Slot().value */\n      sload\n        /* \"@openzeppelin/contracts/utils/ReentrancyGuard.sol\":2407:2408  2 */\n      0x02\n        /* \"@openzeppelin/contracts/utils/ReentrancyGuard.sol\":4560:4623  _reentrancyGuardStorageSlot().getUint256Slot().value == ENTERED */\n      sub\n        /* \"@openzeppelin/contracts/utils/ReentrancyGuard.sol\":3644:3737  if (_reentrancyGuardEntered()) {... */\n      tag_255\n      jumpi\n        /* \"@openzeppelin/contracts/utils/ReentrancyGuard.sol\":3696:3726  ReentrancyGuardReentrantCall() */\n      mload(0x40)\n      shl(0xe0, 0x3ee5aeb5)\n      dup2\n      mstore\n      0x04\n      add\n      mload(0x40)\n      dup1\n      swap2\n      sub\n      swap1\n      revert\n        /* \"@openzeppelin/contracts/utils/ReentrancyGuard.sol\":3644:3737  if (_reentrancyGuardEntered()) {... */\n    tag_255:\n        /* \"@openzeppelin/contracts/utils/ReentrancyGuard.sol\":3586:3743  function _nonReentrantBeforeView() private view {... */\n      jump\t// out\n        /* \"#utility.yul\":196:482   */\n    tag_31:\n        /* \"#utility.yul\":255:261   */\n      0x00\n        /* \"#utility.yul\":308:310   */\n      0x20\n        /* \"#utility.yul\":296:305   */\n      dup3\n        /* \"#utility.yul\":287:294   */\n      dup5\n        /* \"#utility.yul\":283:306   */\n      sub\n        /* \"#utility.yul\":279:311   */\n      slt\n        /* \"#utility.yul\":276:328   */\n      iszero\n      tag_266\n      jumpi\n        /* \"#utility.yul\":324:325   */\n      0x00\n        /* \"#utility.yul\":321:322   */\n      0x00\n        /* \"#utility.yul\":314:326   */\n      revert\n        /* \"#utility.yul\":276:328   */\n    tag_266:\n        /* \"#utility.yul\":350:373   */\n      dup2\n      calldataload\n      sub(shl(0xa0, 0x01), 0x01)\n        /* \"#utility.yul\":402:433   */\n      dup2\n      and\n        /* \"#utility.yul\":392:434   */\n      dup2\n      eq\n        /* \"#utility.yul\":382:452   */\n      tag_267\n      jumpi\n        /* \"#utility.yul\":448:449   */\n      0x00\n        /* \"#utility.yul\":445:446   */\n      0x00\n        /* \"#utility.yul\":438:450   */\n      revert\n        /* \"#utility.yul\":382:452   */\n    tag_267:\n        /* \"#utility.yul\":471:476   */\n      swap4\n        /* \"#utility.yul\":196:482   */\n      swap3\n      pop\n      pop\n      pop\n      jump\t// out\n        /* \"#utility.yul\":1154:1500   */\n    tag_72:\n        /* \"#utility.yul\":1222:1228   */\n      0x00\n        /* \"#utility.yul\":1230:1236   */\n      0x00\n        /* \"#utility.yul\":1283:1285   */\n      0x40\n        /* \"#utility.yul\":1271:1280   */\n      dup4\n        /* \"#utility.yul\":1262:1269   */\n      dup6\n        /* \"#utility.yul\":1258:1281   */\n      sub\n        /* \"#utility.yul\":1254:1286   */\n      slt\n        /* \"#utility.yul\":1251:1303   */\n      iszero\n      tag_272\n      jumpi\n        /* \"#utility.yul\":1299:1300   */\n      0x00\n        /* \"#utility.yul\":1296:1297   */\n      0x00\n        /* \"#utility.yul\":1289:1301   */\n      revert\n        /* \"#utility.yul\":1251:1303   */\n    tag_272:\n      pop\n      pop\n        /* \"#utility.yul\":1344:1367   */\n      dup1\n      calldataload\n      swap3\n        /* \"#utility.yul\":1464:1466   */\n      0x20\n        /* \"#utility.yul\":1449:1467   */\n      swap1\n      swap2\n      add\n        /* \"#utility.yul\":1436:1468   */\n      calldataload\n      swap2\n      pop\n        /* \"#utility.yul\":1154:1500   */\n      jump\t// out\n        /* \"#utility.yul\":1505:1731   */\n    tag_76:\n        /* \"#utility.yul\":1564:1570   */\n      0x00\n        /* \"#utility.yul\":1617:1619   */\n      0x20\n        /* \"#utility.yul\":1605:1614   */\n      dup3\n        /* \"#utility.yul\":1596:1603   */\n      dup5\n        /* \"#utility.yul\":1592:1615   */\n      sub\n        /* \"#utility.yul\":1588:1620   */\n      slt\n        /* \"#utility.yul\":1585:1637   */\n      iszero\n      tag_274\n      jumpi\n        /* \"#utility.yul\":1633:1634   */\n      0x00\n        /* \"#utility.yul\":1630:1631   */\n      0x00\n        /* \"#utility.yul\":1623:1635   */\n      revert\n        /* \"#utility.yul\":1585:1637   */\n    tag_274:\n      pop\n        /* \"#utility.yul\":1678:1701   */\n      calldataload\n      swap2\n        /* \"#utility.yul\":1505:1731   */\n      swap1\n      pop\n      jump\t// out\n        /* \"#utility.yul\":1736:1915   */\n    tag_261:\n        /* \"#utility.yul\":1814:1827   */\n      dup1\n      mload\n        /* \"#utility.yul\":1867:1889   */\n      0xffffffffffffffffffff\n        /* \"#utility.yul\":1856:1890   */\n      dup2\n      and\n        /* \"#utility.yul\":1846:1891   */\n      dup2\n      eq\n        /* \"#utility.yul\":1836:1909   */\n      tag_276\n      jumpi\n        /* \"#utility.yul\":1905:1906   */\n      0x00\n        /* \"#utility.yul\":1902:1903   */\n      0x00\n        /* \"#utility.yul\":1895:1907   */\n      revert\n        /* \"#utility.yul\":1836:1909   */\n    tag_276:\n        /* \"#utility.yul\":1736:1915   */\n      swap2\n      swap1\n      pop\n      jump\t// out\n        /* \"#utility.yul\":1920:2491   */\n    tag_95:\n        /* \"#utility.yul\":2023:2029   */\n      0x00\n        /* \"#utility.yul\":2031:2037   */\n      0x00\n        /* \"#utility.yul\":2039:2045   */\n      0x00\n        /* \"#utility.yul\":2047:2053   */\n      0x00\n        /* \"#utility.yul\":2055:2061   */\n      0x00\n        /* \"#utility.yul\":2108:2111   */\n      0xa0\n        /* \"#utility.yul\":2096:2105   */\n      dup7\n        /* \"#utility.yul\":2087:2094   */\n      dup9\n        /* \"#utility.yul\":2083:2106   */\n      sub\n        /* \"#utility.yul\":2079:2112   */\n      slt\n        /* \"#utility.yul\":2076:2129   */\n      iszero\n      tag_278\n      jumpi\n        /* \"#utility.yul\":2125:2126   */\n      0x00\n        /* \"#utility.yul\":2122:2123   */\n      0x00\n        /* \"#utility.yul\":2115:2127   */\n      revert\n        /* \"#utility.yul\":2076:2129   */\n    tag_278:\n        /* \"#utility.yul\":2148:2187   */\n      tag_279\n        /* \"#utility.yul\":2177:2186   */\n      dup7\n        /* \"#utility.yul\":2148:2187   */\n      tag_261\n      jump\t// in\n    tag_279:\n        /* \"#utility.yul\":2227:2229   */\n      0x20\n        /* \"#utility.yul\":2212:2230   */\n      dup8\n      add\n        /* \"#utility.yul\":2206:2231   */\n      mload\n        /* \"#utility.yul\":2293:2295   */\n      0x40\n        /* \"#utility.yul\":2278:2296   */\n      dup9\n      add\n        /* \"#utility.yul\":2272:2297   */\n      mload\n        /* \"#utility.yul\":2387:2389   */\n      0x60\n        /* \"#utility.yul\":2372:2390   */\n      dup10\n      add\n        /* \"#utility.yul\":2366:2391   */\n      mload\n        /* \"#utility.yul\":2138:2187   */\n      swap3\n      swap8\n      pop\n        /* \"#utility.yul\":2206:2231   */\n      swap1\n      swap6\n      pop\n        /* \"#utility.yul\":2272:2297   */\n      swap4\n      pop\n        /* \"#utility.yul\":2366:2391   */\n      swap2\n      pop\n        /* \"#utility.yul\":2436:2485   */\n      tag_280\n        /* \"#utility.yul\":2480:2483   */\n      0x80\n        /* \"#utility.yul\":2465:2484   */\n      dup8\n      add\n        /* \"#utility.yul\":2436:2485   */\n      tag_261\n      jump\t// in\n    tag_280:\n        /* \"#utility.yul\":2426:2485   */\n      swap1\n      pop\n        /* \"#utility.yul\":1920:2491   */\n      swap3\n      swap6\n      pop\n      swap3\n      swap6\n      swap1\n      swap4\n      pop\n      jump\t// out\n        /* \"#utility.yul\":2835:2962   */\n    tag_262:\n        /* \"#utility.yul\":2896:2906   */\n      0x4e487b71\n        /* \"#utility.yul\":2891:2894   */\n      0xe0\n        /* \"#utility.yul\":2887:2907   */\n      shl\n        /* \"#utility.yul\":2884:2885   */\n      0x00\n        /* \"#utility.yul\":2877:2908   */\n      mstore\n        /* \"#utility.yul\":2927:2931   */\n      0x11\n        /* \"#utility.yul\":2924:2925   */\n      0x04\n        /* \"#utility.yul\":2917:2932   */\n      mstore\n        /* \"#utility.yul\":2951:2955   */\n      0x24\n        /* \"#utility.yul\":2948:2949   */\n      0x00\n        /* \"#utility.yul\":2941:2956   */\n      revert\n        /* \"#utility.yul\":2967:3095   */\n    tag_100:\n        /* \"#utility.yul\":3034:3043   */\n      dup2\n      dup2\n      sub\n        /* \"#utility.yul\":3055:3066   */\n      dup2\n      dup2\n      gt\n        /* \"#utility.yul\":3052:3089   */\n      iszero\n      tag_285\n      jumpi\n        /* \"#utility.yul\":3069:3087   */\n      tag_285\n      tag_262\n      jump\t// in\n    tag_285:\n        /* \"#utility.yul\":2967:3095   */\n      swap3\n      swap2\n      pop\n      pop\n      jump\t// out\n        /* \"#utility.yul\":3433:3558   */\n    tag_109:\n        /* \"#utility.yul\":3498:3507   */\n      dup1\n      dup3\n      add\n        /* \"#utility.yul\":3519:3529   */\n      dup1\n      dup3\n      gt\n        /* \"#utility.yul\":3516:3552   */\n      iszero\n      tag_285\n      jumpi\n        /* \"#utility.yul\":3532:3550   */\n      tag_285\n      tag_262\n      jump\t// in\n        /* \"#utility.yul\":3899:4129   */\n    tag_121:\n        /* \"#utility.yul\":3969:3975   */\n      0x00\n        /* \"#utility.yul\":4022:4024   */\n      0x20\n        /* \"#utility.yul\":4010:4019   */\n      dup3\n        /* \"#utility.yul\":4001:4008   */\n      dup5\n        /* \"#utility.yul\":3997:4020   */\n      sub\n        /* \"#utility.yul\":3993:4025   */\n      slt\n        /* \"#utility.yul\":3990:4042   */\n      iszero\n      tag_292\n      jumpi\n        /* \"#utility.yul\":4038:4039   */\n      0x00\n        /* \"#utility.yul\":4035:4036   */\n      0x00\n        /* \"#utility.yul\":4028:4040   */\n      revert\n        /* \"#utility.yul\":3990:4042   */\n    tag_292:\n      pop\n        /* \"#utility.yul\":4083:4099   */\n      mload\n      swap2\n        /* \"#utility.yul\":3899:4129   */\n      swap1\n      pop\n      jump\t// out\n        /* \"#utility.yul\":4134:4302   */\n    tag_131:\n        /* \"#utility.yul\":4207:4216   */\n      dup1\n      dup3\n      mul\n        /* \"#utility.yul\":4238:4247   */\n      dup2\n      iszero\n        /* \"#utility.yul\":4255:4270   */\n      dup3\n      dup3\n      div\n        /* \"#utility.yul\":4249:4271   */\n      dup5\n      eq\n        /* \"#utility.yul\":4235:4272   */\n      or\n        /* \"#utility.yul\":4225:4296   */\n      tag_285\n      jumpi\n        /* \"#utility.yul\":4276:4294   */\n      tag_285\n      tag_262\n      jump\t// in\n        /* \"#utility.yul\":4307:4524   */\n    tag_133:\n        /* \"#utility.yul\":4347:4348   */\n      0x00\n        /* \"#utility.yul\":4373:4374   */\n      dup3\n        /* \"#utility.yul\":4363:4495   */\n      tag_297\n      jumpi\n        /* \"#utility.yul\":4417:4427   */\n      0x4e487b71\n        /* \"#utility.yul\":4412:4415   */\n      0xe0\n        /* \"#utility.yul\":4408:4428   */\n      shl\n        /* \"#utility.yul\":4405:4406   */\n      0x00\n        /* \"#utility.yul\":4398:4429   */\n      mstore\n        /* \"#utility.yul\":4452:4456   */\n      0x12\n        /* \"#utility.yul\":4449:4450   */\n      0x04\n        /* \"#utility.yul\":4442:4457   */\n      mstore\n        /* \"#utility.yul\":4480:4484   */\n      0x24\n        /* \"#utility.yul\":4477:4478   */\n      0x00\n        /* \"#utility.yul\":4470:4485   */\n      revert\n        /* \"#utility.yul\":4363:4495   */\n    tag_297:\n      pop\n        /* \"#utility.yul\":4509:4518   */\n      div\n      swap1\n        /* \"#utility.yul\":4307:4524   */\n      jump\t// out\n        /* \"#utility.yul\":5711:6012   */\n    tag_216:\n        /* \"#utility.yul\":5840:5843   */\n      0x00\n        /* \"#utility.yul\":5878:5884   */\n      dup3\n        /* \"#utility.yul\":5872:5885   */\n      mload\n        /* \"#utility.yul\":5924:5930   */\n      dup1\n        /* \"#utility.yul\":5917:5921   */\n      0x20\n        /* \"#utility.yul\":5909:5915   */\n      dup6\n        /* \"#utility.yul\":5905:5922   */\n      add\n        /* \"#utility.yul\":5900:5903   */\n      dup5\n        /* \"#utility.yul\":5894:5931   */\n      mcopy\n        /* \"#utility.yul\":5986:5987   */\n      0x00\n        /* \"#utility.yul\":5950:5966   */\n      swap3\n      add\n        /* \"#utility.yul\":5975:5988   */\n      swap2\n      dup3\n      mstore\n      pop\n        /* \"#utility.yul\":5950:5966   */\n      swap2\n        /* \"#utility.yul\":5711:6012   */\n      swap1\n      pop\n      jump\t// out\n        /* \"#utility.yul\":6017:6294   */\n    tag_223:\n        /* \"#utility.yul\":6084:6090   */\n      0x00\n        /* \"#utility.yul\":6137:6139   */\n      0x20\n        /* \"#utility.yul\":6125:6134   */\n      dup3\n        /* \"#utility.yul\":6116:6123   */\n      dup5\n        /* \"#utility.yul\":6112:6135   */\n      sub\n        /* \"#utility.yul\":6108:6140   */\n      slt\n        /* \"#utility.yul\":6105:6157   */\n      iszero\n      tag_304\n      jumpi\n        /* \"#utility.yul\":6153:6154   */\n      0x00\n        /* \"#utility.yul\":6150:6151   */\n      0x00\n        /* \"#utility.yul\":6143:6155   */\n      revert\n        /* \"#utility.yul\":6105:6157   */\n    tag_304:\n        /* \"#utility.yul\":6185:6194   */\n      dup2\n        /* \"#utility.yul\":6179:6195   */\n      mload\n        /* \"#utility.yul\":6238:6243   */\n      dup1\n        /* \"#utility.yul\":6231:6244   */\n      iszero\n        /* \"#utility.yul\":6224:6245   */\n      iszero\n        /* \"#utility.yul\":6217:6222   */\n      dup2\n        /* \"#utility.yul\":6214:6246   */\n      eq\n        /* \"#utility.yul\":6204:6264   */\n      tag_267\n      jumpi\n        /* \"#utility.yul\":6260:6261   */\n      0x00\n        /* \"#utility.yul\":6257:6258   */\n      0x00\n        /* \"#utility.yul\":6250:6262   */\n      revert\n        /* \"#utility.yul\":7266:7401   */\n    tag_251:\n        /* \"#utility.yul\":7305:7308   */\n      0x00\n        /* \"#utility.yul\":7326:7343   */\n      0x01\n      dup3\n      add\n        /* \"#utility.yul\":7323:7366   */\n      tag_311\n      jumpi\n        /* \"#utility.yul\":7346:7364   */\n      tag_311\n      tag_262\n      jump\t// in\n    tag_311:\n      pop\n        /* \"#utility.yul\":7393:7394   */\n      0x01\n        /* \"#utility.yul\":7382:7395   */\n      add\n      swap1\n        /* \"#utility.yul\":7266:7401   */\n      jump\t// out\n\n    auxdata: 0xa2646970667358221220e0ad87f1bd90d637d9d28968b76b15e5133699412d76ecd8981b57b9097db72364736f6c634300081e0033\n}\n",
				"bytecode": {
					"linkReferences": {},
					"object": "60c060405273ab594600376ec9fd91f8e885dadf0ce036862de060a052348015610027575f5ffd5b5060405161129c38038061129c83398101604081905261004691610141565b60017f9b779b17422d0df92223018b32b4d1fa46e071723d6817e2486d003becc55f00556001600160a01b0382166100b05760405162461bcd60e51b81526020600482015260086024820152672130b2102620a12960c11b60448201526064015b60405180910390fd5b6001600160a01b0381166100f05760405162461bcd60e51b81526020600482015260076024820152664261642044414f60c81b60448201526064016100a7565b6001600160a01b039182166080525f80546001600160a01b031916919092161790556a52b7d2dcc80cd2e4000000600255610172565b80516001600160a01b038116811461013c575f5ffd5b919050565b5f5f60408385031215610152575f5ffd5b61015b83610126565b915061016960208401610126565b90509250929050565b60805160a0516110d16101cb5f395f818161019201526102ee01525f8181610225015281816104a1015281816105380152818161078201528181610814015281816108b201528181610be00152610d3101526110d15ff3fe6080604052600436106100e7575f3560e01c8063a2724a4d11610087578063d96a094a11610057578063d96a094a14610284578063e757223014610297578063f2752d80146102b6578063fd3d27b8146102d4575f5ffd5b8063a2724a4d146101ff578063bc96ec5114610214578063c84dc51914610247578063d79875eb14610263575f5ffd5b806332cb6b0c116100c257806332cb6b0c14610162578063741bef1a1461018157806379022a9f146101cc5780639106d7ba146101ea575f5ffd5b80630192d7a0146100f257806317d63605146101235780632820ef511461014e575f5ffd5b366100ee57005b5f5ffd5b3480156100fd575f5ffd5b506101106a52b7d2dcc80cd2e400000081565b6040519081526020015b60405180910390f35b34801561012e575f5ffd5b5061011061013d366004610ef1565b60036020525f908152604090205481565b348015610159575f5ffd5b506101106102e9565b34801561016d575f5ffd5b506101106b033b2e3c9fd0803ce800000081565b34801561018c575f5ffd5b506101b47f000000000000000000000000000000000000000000000000000000000000000081565b6040516001600160a01b03909116815260200161011a565b3480156101d7575f5ffd5b505f546101b4906001600160a01b031681565b3480156101f5575f5ffd5b5061011060015481565b34801561020a575f5ffd5b5061011061a8c081565b34801561021f575f5ffd5b506101b47f000000000000000000000000000000000000000000000000000000000000000081565b348015610252575f5ffd5b5061011068056bc75e2d6310000081565b34801561026e575f5ffd5b5061028261027d366004610f1e565b6103fc565b005b610282610292366004610f3e565b6106b9565b3480156102a2575f5ffd5b506101106102b1366004610f3e565b610a2a565b3480156102c1575f5ffd5b506101106a295be96e6406697200000081565b3480156102df575f5ffd5b5061011060025481565b5f5f5f7f00000000000000000000000000000000000000000000000000000000000000006001600160a01b031663feaf968c6040518163ffffffff1660e01b815260040160a060405180830381865afa158015610348573d5f5f3e3d5ffd5b505050506040513d601f19601f8201168201806040525081019061036c9190610f73565b509350509250505f82136103b45760405162461bcd60e51b815260206004820152600a602482015269426164206f7261636c6560b01b60448201526064015b60405180910390fd5b6103c061070842610fd5565b81116103f65760405162461bcd60e51b81526020600482015260056024820152645374616c6560d81b60448201526064016103ab565b50919050565b610404610b5b565b335f908152600360205260409020546104209061a8c090610fee565b42101561045a5760405162461bcd60e51b815260206004820152600860248201526721b7b7b63237bbb760c11b60448201526064016103ab565b5f8211610465575f5ffd5b600154821115610473575f5ffd5b5f61047f600154610a2a565b6040516370a0823160e01b81523060048201529091505f906001600160a01b037f000000000000000000000000000000000000000000000000000000000000000016906370a0823190602401602060405180830381865afa1580156104e6573d5f5f3e3d5ffd5b505050506040513d601f19601f8201168201806040525081019061050a9190611001565b9050610517333086610b89565b6040516370a0823160e01b81523060048201525f9082906001600160a01b037f000000000000000000000000000000000000000000000000000000000000000016906370a0823190602401602060405180830381865afa15801561057d573d5f5f3e3d5ffd5b505050506040513d601f19601f820116820180604052508101906105a19190611001565b6105ab9190610fd5565b90508060015410156105bb575f5ffd5b5f670de0b6b3a76400006105cf8584611018565b6105d9919061102f565b9050848110156105e7575f5ffd5b804710156105f3575f5ffd5b8160015f8282546106049190610fd5565b90915550506040515f90339083908381818185875af1925050503d805f8114610648576040519150601f19603f3d011682016040523d82523d5f602084013e61064d565b606091505b505090508061065a575f5ffd5b604080518481526020810184905233917fed7a144fad14804d5c249145e3e0e2b63a9eb455b76aee5bc92d711e9bba3e4a910160405180910390a25050335f908152600360205260409020429055506106b59150610cbc9050565b5050565b6106c1610b5b565b335f908152600360205260409020546106dd9061a8c090610fee565b4210156107175760405162461bcd60e51b815260206004820152600860248201526721b7b7b63237bbb760c11b60448201526064016103ab565b5f3411610722575f5ffd5b5f61072e600154610a2a565b90505f8161074434670de0b6b3a7640000611018565b61074e919061102f565b9050600254816001546107619190610fee565b111561076b575f5ffd5b6040516370a0823160e01b815230600482015281907f00000000000000000000000000000000000000000000000000000000000000006001600160a01b0316906370a0823190602401602060405180830381865afa1580156107cf573d5f5f3e3d5ffd5b505050506040513d601f19601f820116820180604052508101906107f39190611001565b10156107fd575f5ffd5b6040516370a0823160e01b81523360048201525f907f00000000000000000000000000000000000000000000000000000000000000006001600160a01b0316906370a0823190602401602060405180830381865afa158015610861573d5f5f3e3d5ffd5b505050506040513d601f19601f820116820180604052508101906108859190611001565b90506108913383610ce2565b6040516370a0823160e01b81523360048201525f9082906001600160a01b037f000000000000000000000000000000000000000000000000000000000000000016906370a0823190602401602060405180830381865afa1580156108f7573d5f5f3e3d5ffd5b505050506040513d601f19601f8201168201806040525081019061091b9190611001565b6109259190610fd5565b905084811015610933575f5ffd5b8060015f8282546109449190610fee565b909155506109529050610e08565b5f606461096034600a611018565b61096a919061102f565b5f805460405192935090916001600160a01b039091169083908381818185875af1925050503d805f81146109b9576040519150601f19603f3d011682016040523d82523d5f602084013e6109be565b606091505b50509050806109cb575f5ffd5b604080513481526020810185905233917f1cbc5ab135991bd2b6a4b034a04aa2aa086dac1371cb9b16b8b5e2ed6b036bed910160405180910390a25050335f90815260036020526040902042905550610a279250610cbc915050565b50565b5f6b033b2e3c9fd0803ce8000000821115610a4f576b033b2e3c9fd0803ce800000091505b6305f5e1006359682f005f6b033b2e3c9fd0803ce8000000610a7986670de0b6b3a7640000611018565b610a83919061102f565b90505f670de0b6b3a7640000610a998380611018565b610aa3919061102f565b90505f670de0b6b3a764000082610aba8787610fd5565b610ac49190611018565b610ace919061102f565b610ad89086610fee565b90505f610ae36102e9565b90505f81610af984670de0b6b3a7640000611018565b610b03919061102f565b905068056bc75e2d63100000811115610b4f5760405162461bcd60e51b815260206004820152600e60248201526d4f7261636c6520616e6f6d616c7960901b60448201526064016103ab565b98975050505050505050565b610b63610ead565b60027f9b779b17422d0df92223018b32b4d1fa46e071723d6817e2486d003becc55f0055565b604080516001600160a01b0385811660248301528481166044830152606480830185905283518084039091018152608490920183526020820180516001600160e01b03166323b872dd60e01b17905291515f9283927f000000000000000000000000000000000000000000000000000000000000000090911691610c0d919061104e565b5f604051808303815f865af19150503d805f8114610c46576040519150601f19603f3d011682016040523d82523d5f602084013e610c4b565b606091505b5091509150818015610c75575080511580610c75575080806020019051810190610c759190611064565b610cb55760405162461bcd60e51b8152602060048201526011602482015270151c985b9cd9995c919c9bdb4819985a5b607a1b60448201526064016103ab565b5050505050565b60017f9b779b17422d0df92223018b32b4d1fa46e071723d6817e2486d003becc55f0055565b604080516001600160a01b038481166024830152604480830185905283518084039091018152606490920183526020820180516001600160e01b031663a9059cbb60e01b17905291515f9283927f000000000000000000000000000000000000000000000000000000000000000090911691610d5e919061104e565b5f604051808303815f865af19150503d805f8114610d97576040519150601f19603f3d011682016040523d82523d5f602084013e610d9c565b606091505b5091509150818015610dc6575080511580610dc6575080806020019051810190610dc69190611064565b610e025760405162461bcd60e51b815260206004820152600d60248201526c151c985b9cd9995c8819985a5b609a1b60448201526064016103ab565b50505050565b5f5b60025460015410158015610e1e5750600a81105b15610a27575f6a295be96e64066972000000600254610e3d9190610fee565b90506b033b2e3c9fd0803ce8000000811115610e6257506b033b2e3c9fd0803ce80000005b60028190556040518181527fc1fa8e88841fa38aed8218549bd24903570c58976a974eb8b3329e98a92a9c3c9060200160405180910390a181610ea481611083565b92505050610e0a565b7f9b779b17422d0df92223018b32b4d1fa46e071723d6817e2486d003becc55f0054600203610eef57604051633ee5aeb560e01b815260040160405180910390fd5b565b5f60208284031215610f01575f5ffd5b81356001600160a01b0381168114610f17575f5ffd5b9392505050565b5f5f60408385031215610f2f575f5ffd5b50508035926020909101359150565b5f60208284031215610f4e575f5ffd5b5035919050565b805169ffffffffffffffffffff81168114610f6e575f5ffd5b919050565b5f5f5f5f5f60a08688031215610f87575f5ffd5b610f9086610f55565b60208701516040880151606089015192975090955093509150610fb560808701610f55565b90509295509295909350565b634e487b7160e01b5f52601160045260245ffd5b81810381811115610fe857610fe8610fc1565b92915050565b80820180821115610fe857610fe8610fc1565b5f60208284031215611011575f5ffd5b5051919050565b8082028115828204841417610fe857610fe8610fc1565b5f8261104957634e487b7160e01b5f52601260045260245ffd5b500490565b5f82518060208501845e5f920191825250919050565b5f60208284031215611074575f5ffd5b81518015158114610f17575f5ffd5b5f6001820161109457611094610fc1565b506001019056fea2646970667358221220e0ad87f1bd90d637d9d28968b76b15e5133699412d76ecd8981b57b9097db72364736f6c634300081e0033",
					"opcodes": "PUSH1 0xC0 PUSH1 0x40 MSTORE PUSH20 0xAB594600376EC9FD91F8E885DADF0CE036862DE0 PUSH1 0xA0 MSTORE CALLVALUE DUP1 ISZERO PUSH2 0x27 JUMPI PUSH0 PUSH0 REVERT JUMPDEST POP PUSH1 0x40 MLOAD PUSH2 0x129C CODESIZE SUB DUP1 PUSH2 0x129C DUP4 CODECOPY DUP2 ADD PUSH1 0x40 DUP2 SWAP1 MSTORE PUSH2 0x46 SWAP2 PUSH2 0x141 JUMP JUMPDEST PUSH1 0x1 PUSH32 0x9B779B17422D0DF92223018B32B4D1FA46E071723D6817E2486D003BECC55F00 SSTORE PUSH1 0x1 PUSH1 0x1 PUSH1 0xA0 SHL SUB DUP3 AND PUSH2 0xB0 JUMPI PUSH1 0x40 MLOAD PUSH3 0x461BCD PUSH1 0xE5 SHL DUP2 MSTORE PUSH1 0x20 PUSH1 0x4 DUP3 ADD MSTORE PUSH1 0x8 PUSH1 0x24 DUP3 ADD MSTORE PUSH8 0x2130B2102620A129 PUSH1 0xC1 SHL PUSH1 0x44 DUP3 ADD MSTORE PUSH1 0x64 ADD JUMPDEST PUSH1 0x40 MLOAD DUP1 SWAP2 SUB SWAP1 REVERT JUMPDEST PUSH1 0x1 PUSH1 0x1 PUSH1 0xA0 SHL SUB DUP2 AND PUSH2 0xF0 JUMPI PUSH1 0x40 MLOAD PUSH3 0x461BCD PUSH1 0xE5 SHL DUP2 MSTORE PUSH1 0x20 PUSH1 0x4 DUP3 ADD MSTORE PUSH1 0x7 PUSH1 0x24 DUP3 ADD MSTORE PUSH7 0x4261642044414F PUSH1 0xC8 SHL PUSH1 0x44 DUP3 ADD MSTORE PUSH1 0x64 ADD PUSH2 0xA7 JUMP JUMPDEST PUSH1 0x1 PUSH1 0x1 PUSH1 0xA0 SHL SUB SWAP2 DUP3 AND PUSH1 0x80 MSTORE PUSH0 DUP1 SLOAD PUSH1 0x1 PUSH1 0x1 PUSH1 0xA0 SHL SUB NOT AND SWAP2 SWAP1 SWAP3 AND OR SWAP1 SSTORE PUSH11 0x52B7D2DCC80CD2E4000000 PUSH1 0x2 SSTORE PUSH2 0x172 JUMP JUMPDEST DUP1 MLOAD PUSH1 0x1 PUSH1 0x1 PUSH1 0xA0 SHL SUB DUP2 AND DUP2 EQ PUSH2 0x13C JUMPI PUSH0 PUSH0 REVERT JUMPDEST SWAP2 SWAP1 POP JUMP JUMPDEST PUSH0 PUSH0 PUSH1 0x40 DUP4 DUP6 SUB SLT ISZERO PUSH2 0x152 JUMPI PUSH0 PUSH0 REVERT JUMPDEST PUSH2 0x15B DUP4 PUSH2 0x126 JUMP JUMPDEST SWAP2 POP PUSH2 0x169 PUSH1 0x20 DUP5 ADD PUSH2 0x126 JUMP JUMPDEST SWAP1 POP SWAP3 POP SWAP3 SWAP1 POP JUMP JUMPDEST PUSH1 0x80 MLOAD PUSH1 0xA0 MLOAD PUSH2 0x10D1 PUSH2 0x1CB PUSH0 CODECOPY PUSH0 DUP2 DUP2 PUSH2 0x192 ADD MSTORE PUSH2 0x2EE ADD MSTORE PUSH0 DUP2 DUP2 PUSH2 0x225 ADD MSTORE DUP2 DUP2 PUSH2 0x4A1 ADD MSTORE DUP2 DUP2 PUSH2 0x538 ADD MSTORE DUP2 DUP2 PUSH2 0x782 ADD MSTORE DUP2 DUP2 PUSH2 0x814 ADD MSTORE DUP2 DUP2 PUSH2 0x8B2 ADD MSTORE DUP2 DUP2 PUSH2 0xBE0 ADD MSTORE PUSH2 0xD31 ADD MSTORE PUSH2 0x10D1 PUSH0 RETURN INVALID PUSH1 0x80 PUSH1 0x40 MSTORE PUSH1 0x4 CALLDATASIZE LT PUSH2 0xE7 JUMPI PUSH0 CALLDATALOAD PUSH1 0xE0 SHR DUP1 PUSH4 0xA2724A4D GT PUSH2 0x87 JUMPI DUP1 PUSH4 0xD96A094A GT PUSH2 0x57 JUMPI DUP1 PUSH4 0xD96A094A EQ PUSH2 0x284 JUMPI DUP1 PUSH4 0xE7572230 EQ PUSH2 0x297 JUMPI DUP1 PUSH4 0xF2752D80 EQ PUSH2 0x2B6 JUMPI DUP1 PUSH4 0xFD3D27B8 EQ PUSH2 0x2D4 JUMPI PUSH0 PUSH0 REVERT JUMPDEST DUP1 PUSH4 0xA2724A4D EQ PUSH2 0x1FF JUMPI DUP1 PUSH4 0xBC96EC51 EQ PUSH2 0x214 JUMPI DUP1 PUSH4 0xC84DC519 EQ PUSH2 0x247 JUMPI DUP1 PUSH4 0xD79875EB EQ PUSH2 0x263 JUMPI PUSH0 PUSH0 REVERT JUMPDEST DUP1 PUSH4 0x32CB6B0C GT PUSH2 0xC2 JUMPI DUP1 PUSH4 0x32CB6B0C EQ PUSH2 0x162 JUMPI DUP1 PUSH4 0x741BEF1A EQ PUSH2 0x181 JUMPI DUP1 PUSH4 0x79022A9F EQ PUSH2 0x1CC JUMPI DUP1 PUSH4 0x9106D7BA EQ PUSH2 0x1EA JUMPI PUSH0 PUSH0 REVERT JUMPDEST DUP1 PUSH4 0x192D7A0 EQ PUSH2 0xF2 JUMPI DUP1 PUSH4 0x17D63605 EQ PUSH2 0x123 JUMPI DUP1 PUSH4 0x2820EF51 EQ PUSH2 0x14E JUMPI PUSH0 PUSH0 REVERT JUMPDEST CALLDATASIZE PUSH2 0xEE JUMPI STOP JUMPDEST PUSH0 PUSH0 REVERT JUMPDEST CALLVALUE DUP1 ISZERO PUSH2 0xFD JUMPI PUSH0 PUSH0 REVERT JUMPDEST POP PUSH2 0x110 PUSH11 0x52B7D2DCC80CD2E4000000 DUP2 JUMP JUMPDEST PUSH1 0x40 MLOAD SWAP1 DUP2 MSTORE PUSH1 0x20 ADD JUMPDEST PUSH1 0x40 MLOAD DUP1 SWAP2 SUB SWAP1 RETURN JUMPDEST CALLVALUE DUP1 ISZERO PUSH2 0x12E JUMPI PUSH0 PUSH0 REVERT JUMPDEST POP PUSH2 0x110 PUSH2 0x13D CALLDATASIZE PUSH1 0x4 PUSH2 0xEF1 JUMP JUMPDEST PUSH1 0x3 PUSH1 0x20 MSTORE PUSH0 SWAP1 DUP2 MSTORE PUSH1 0x40 SWAP1 KECCAK256 SLOAD DUP2 JUMP JUMPDEST CALLVALUE DUP1 ISZERO PUSH2 0x159 JUMPI PUSH0 PUSH0 REVERT JUMPDEST POP PUSH2 0x110 PUSH2 0x2E9 JUMP JUMPDEST CALLVALUE DUP1 ISZERO PUSH2 0x16D JUMPI PUSH0 PUSH0 REVERT JUMPDEST POP PUSH2 0x110 PUSH12 0x33B2E3C9FD0803CE8000000 DUP2 JUMP JUMPDEST CALLVALUE DUP1 ISZERO PUSH2 0x18C JUMPI PUSH0 PUSH0 REVERT JUMPDEST POP PUSH2 0x1B4 PUSH32 0x0 DUP2 JUMP JUMPDEST PUSH1 0x40 MLOAD PUSH1 0x1 PUSH1 0x1 PUSH1 0xA0 SHL SUB SWAP1 SWAP2 AND DUP2 MSTORE PUSH1 0x20 ADD PUSH2 0x11A JUMP JUMPDEST CALLVALUE DUP1 ISZERO PUSH2 0x1D7 JUMPI PUSH0 PUSH0 REVERT JUMPDEST POP PUSH0 SLOAD PUSH2 0x1B4 SWAP1 PUSH1 0x1 PUSH1 0x1 PUSH1 0xA0 SHL SUB AND DUP2 JUMP JUMPDEST CALLVALUE DUP1 ISZERO PUSH2 0x1F5 JUMPI PUSH0 PUSH0 REVERT JUMPDEST POP PUSH2 0x110 PUSH1 0x1 SLOAD DUP2 JUMP JUMPDEST CALLVALUE DUP1 ISZERO PUSH2 0x20A JUMPI PUSH0 PUSH0 REVERT JUMPDEST POP PUSH2 0x110 PUSH2 0xA8C0 DUP2 JUMP JUMPDEST CALLVALUE DUP1 ISZERO PUSH2 0x21F JUMPI PUSH0 PUSH0 REVERT JUMPDEST POP PUSH2 0x1B4 PUSH32 0x0 DUP2 JUMP JUMPDEST CALLVALUE DUP1 ISZERO PUSH2 0x252 JUMPI PUSH0 PUSH0 REVERT JUMPDEST POP PUSH2 0x110 PUSH9 0x56BC75E2D63100000 DUP2 JUMP JUMPDEST CALLVALUE DUP1 ISZERO PUSH2 0x26E JUMPI PUSH0 PUSH0 REVERT JUMPDEST POP PUSH2 0x282 PUSH2 0x27D CALLDATASIZE PUSH1 0x4 PUSH2 0xF1E JUMP JUMPDEST PUSH2 0x3FC JUMP JUMPDEST STOP JUMPDEST PUSH2 0x282 PUSH2 0x292 CALLDATASIZE PUSH1 0x4 PUSH2 0xF3E JUMP JUMPDEST PUSH2 0x6B9 JUMP JUMPDEST CALLVALUE DUP1 ISZERO PUSH2 0x2A2 JUMPI PUSH0 PUSH0 REVERT JUMPDEST POP PUSH2 0x110 PUSH2 0x2B1 CALLDATASIZE PUSH1 0x4 PUSH2 0xF3E JUMP JUMPDEST PUSH2 0xA2A JUMP JUMPDEST CALLVALUE DUP1 ISZERO PUSH2 0x2C1 JUMPI PUSH0 PUSH0 REVERT JUMPDEST POP PUSH2 0x110 PUSH11 0x295BE96E64066972000000 DUP2 JUMP JUMPDEST CALLVALUE DUP1 ISZERO PUSH2 0x2DF JUMPI PUSH0 PUSH0 REVERT JUMPDEST POP PUSH2 0x110 PUSH1 0x2 SLOAD DUP2 JUMP JUMPDEST PUSH0 PUSH0 PUSH0 PUSH32 0x0 PUSH1 0x1 PUSH1 0x1 PUSH1 0xA0 SHL SUB AND PUSH4 0xFEAF968C PUSH1 0x40 MLOAD DUP2 PUSH4 0xFFFFFFFF AND PUSH1 0xE0 SHL DUP2 MSTORE PUSH1 0x4 ADD PUSH1 0xA0 PUSH1 0x40 MLOAD DUP1 DUP4 SUB DUP2 DUP7 GAS STATICCALL ISZERO DUP1 ISZERO PUSH2 0x348 JUMPI RETURNDATASIZE PUSH0 PUSH0 RETURNDATACOPY RETURNDATASIZE PUSH0 REVERT JUMPDEST POP POP POP POP PUSH1 0x40 MLOAD RETURNDATASIZE PUSH1 0x1F NOT PUSH1 0x1F DUP3 ADD AND DUP3 ADD DUP1 PUSH1 0x40 MSTORE POP DUP2 ADD SWAP1 PUSH2 0x36C SWAP2 SWAP1 PUSH2 0xF73 JUMP JUMPDEST POP SWAP4 POP POP SWAP3 POP POP PUSH0 DUP3 SGT PUSH2 0x3B4 JUMPI PUSH1 0x40 MLOAD PUSH3 0x461BCD PUSH1 0xE5 SHL DUP2 MSTORE PUSH1 0x20 PUSH1 0x4 DUP3 ADD MSTORE PUSH1 0xA PUSH1 0x24 DUP3 ADD MSTORE PUSH10 0x426164206F7261636C65 PUSH1 0xB0 SHL PUSH1 0x44 DUP3 ADD MSTORE PUSH1 0x64 ADD JUMPDEST PUSH1 0x40 MLOAD DUP1 SWAP2 SUB SWAP1 REVERT JUMPDEST PUSH2 0x3C0 PUSH2 0x708 TIMESTAMP PUSH2 0xFD5 JUMP JUMPDEST DUP2 GT PUSH2 0x3F6 JUMPI PUSH1 0x40 MLOAD PUSH3 0x461BCD PUSH1 0xE5 SHL DUP2 MSTORE PUSH1 0x20 PUSH1 0x4 DUP3 ADD MSTORE PUSH1 0x5 PUSH1 0x24 DUP3 ADD MSTORE PUSH5 0x5374616C65 PUSH1 0xD8 SHL PUSH1 0x44 DUP3 ADD MSTORE PUSH1 0x64 ADD PUSH2 0x3AB JUMP JUMPDEST POP SWAP2 SWAP1 POP JUMP JUMPDEST PUSH2 0x404 PUSH2 0xB5B JUMP JUMPDEST CALLER PUSH0 SWAP1 DUP2 MSTORE PUSH1 0x3 PUSH1 0x20 MSTORE PUSH1 0x40 SWAP1 KECCAK256 SLOAD PUSH2 0x420 SWAP1 PUSH2 0xA8C0 SWAP1 PUSH2 0xFEE JUMP JUMPDEST TIMESTAMP LT ISZERO PUSH2 0x45A JUMPI PUSH1 0x40 MLOAD PUSH3 0x461BCD PUSH1 0xE5 SHL DUP2 MSTORE PUSH1 0x20 PUSH1 0x4 DUP3 ADD MSTORE PUSH1 0x8 PUSH1 0x24 DUP3 ADD MSTORE PUSH8 0x21B7B7B63237BBB7 PUSH1 0xC1 SHL PUSH1 0x44 DUP3 ADD MSTORE PUSH1 0x64 ADD PUSH2 0x3AB JUMP JUMPDEST PUSH0 DUP3 GT PUSH2 0x465 JUMPI PUSH0 PUSH0 REVERT JUMPDEST PUSH1 0x1 SLOAD DUP3 GT ISZERO PUSH2 0x473 JUMPI PUSH0 PUSH0 REVERT JUMPDEST PUSH0 PUSH2 0x47F PUSH1 0x1 SLOAD PUSH2 0xA2A JUMP JUMPDEST PUSH1 0x40 MLOAD PUSH4 0x70A08231 PUSH1 0xE0 SHL DUP2 MSTORE ADDRESS PUSH1 0x4 DUP3 ADD MSTORE SWAP1 SWAP2 POP PUSH0 SWAP1 PUSH1 0x1 PUSH1 0x1 PUSH1 0xA0 SHL SUB PUSH32 0x0 AND SWAP1 PUSH4 0x70A08231 SWAP1 PUSH1 0x24 ADD PUSH1 0x20 PUSH1 0x40 MLOAD DUP1 DUP4 SUB DUP2 DUP7 GAS STATICCALL ISZERO DUP1 ISZERO PUSH2 0x4E6 JUMPI RETURNDATASIZE PUSH0 PUSH0 RETURNDATACOPY RETURNDATASIZE PUSH0 REVERT JUMPDEST POP POP POP POP PUSH1 0x40 MLOAD RETURNDATASIZE PUSH1 0x1F NOT PUSH1 0x1F DUP3 ADD AND DUP3 ADD DUP1 PUSH1 0x40 MSTORE POP DUP2 ADD SWAP1 PUSH2 0x50A SWAP2 SWAP1 PUSH2 0x1001 JUMP JUMPDEST SWAP1 POP PUSH2 0x517 CALLER ADDRESS DUP7 PUSH2 0xB89 JUMP JUMPDEST PUSH1 0x40 MLOAD PUSH4 0x70A08231 PUSH1 0xE0 SHL DUP2 MSTORE ADDRESS PUSH1 0x4 DUP3 ADD MSTORE PUSH0 SWAP1 DUP3 SWAP1 PUSH1 0x1 PUSH1 0x1 PUSH1 0xA0 SHL SUB PUSH32 0x0 AND SWAP1 PUSH4 0x70A08231 SWAP1 PUSH1 0x24 ADD PUSH1 0x20 PUSH1 0x40 MLOAD DUP1 DUP4 SUB DUP2 DUP7 GAS STATICCALL ISZERO DUP1 ISZERO PUSH2 0x57D JUMPI RETURNDATASIZE PUSH0 PUSH0 RETURNDATACOPY RETURNDATASIZE PUSH0 REVERT JUMPDEST POP POP POP POP PUSH1 0x40 MLOAD RETURNDATASIZE PUSH1 0x1F NOT PUSH1 0x1F DUP3 ADD AND DUP3 ADD DUP1 PUSH1 0x40 MSTORE POP DUP2 ADD SWAP1 PUSH2 0x5A1 SWAP2 SWAP1 PUSH2 0x1001 JUMP JUMPDEST PUSH2 0x5AB SWAP2 SWAP1 PUSH2 0xFD5 JUMP JUMPDEST SWAP1 POP DUP1 PUSH1 0x1 SLOAD LT ISZERO PUSH2 0x5BB JUMPI PUSH0 PUSH0 REVERT JUMPDEST PUSH0 PUSH8 0xDE0B6B3A7640000 PUSH2 0x5CF DUP6 DUP5 PUSH2 0x1018 JUMP JUMPDEST PUSH2 0x5D9 SWAP2 SWAP1 PUSH2 0x102F JUMP JUMPDEST SWAP1 POP DUP5 DUP2 LT ISZERO PUSH2 0x5E7 JUMPI PUSH0 PUSH0 REVERT JUMPDEST DUP1 SELFBALANCE LT ISZERO PUSH2 0x5F3 JUMPI PUSH0 PUSH0 REVERT JUMPDEST DUP2 PUSH1 0x1 PUSH0 DUP3 DUP3 SLOAD PUSH2 0x604 SWAP2 SWAP1 PUSH2 0xFD5 JUMP JUMPDEST SWAP1 SWAP2 SSTORE POP POP PUSH1 0x40 MLOAD PUSH0 SWAP1 CALLER SWAP1 DUP4 SWAP1 DUP4 DUP2 DUP2 DUP2 DUP6 DUP8 GAS CALL SWAP3 POP POP POP RETURNDATASIZE DUP1 PUSH0 DUP2 EQ PUSH2 0x648 JUMPI PUSH1 0x40 MLOAD SWAP2 POP PUSH1 0x1F NOT PUSH1 0x3F RETURNDATASIZE ADD AND DUP3 ADD PUSH1 0x40 MSTORE RETURNDATASIZE DUP3 MSTORE RETURNDATASIZE PUSH0 PUSH1 0x20 DUP5 ADD RETURNDATACOPY PUSH2 0x64D JUMP JUMPDEST PUSH1 0x60 SWAP2 POP JUMPDEST POP POP SWAP1 POP DUP1 PUSH2 0x65A JUMPI PUSH0 PUSH0 REVERT JUMPDEST PUSH1 0x40 DUP1 MLOAD DUP5 DUP2 MSTORE PUSH1 0x20 DUP2 ADD DUP5 SWAP1 MSTORE CALLER SWAP2 PUSH32 0xED7A144FAD14804D5C249145E3E0E2B63A9EB455B76AEE5BC92D711E9BBA3E4A SWAP2 ADD PUSH1 0x40 MLOAD DUP1 SWAP2 SUB SWAP1 LOG2 POP POP CALLER PUSH0 SWAP1 DUP2 MSTORE PUSH1 0x3 PUSH1 0x20 MSTORE PUSH1 0x40 SWAP1 KECCAK256 TIMESTAMP SWAP1 SSTORE POP PUSH2 0x6B5 SWAP2 POP PUSH2 0xCBC SWAP1 POP JUMP JUMPDEST POP POP JUMP JUMPDEST PUSH2 0x6C1 PUSH2 0xB5B JUMP JUMPDEST CALLER PUSH0 SWAP1 DUP2 MSTORE PUSH1 0x3 PUSH1 0x20 MSTORE PUSH1 0x40 SWAP1 KECCAK256 SLOAD PUSH2 0x6DD SWAP1 PUSH2 0xA8C0 SWAP1 PUSH2 0xFEE JUMP JUMPDEST TIMESTAMP LT ISZERO PUSH2 0x717 JUMPI PUSH1 0x40 MLOAD PUSH3 0x461BCD PUSH1 0xE5 SHL DUP2 MSTORE PUSH1 0x20 PUSH1 0x4 DUP3 ADD MSTORE PUSH1 0x8 PUSH1 0x24 DUP3 ADD MSTORE PUSH8 0x21B7B7B63237BBB7 PUSH1 0xC1 SHL PUSH1 0x44 DUP3 ADD MSTORE PUSH1 0x64 ADD PUSH2 0x3AB JUMP JUMPDEST PUSH0 CALLVALUE GT PUSH2 0x722 JUMPI PUSH0 PUSH0 REVERT JUMPDEST PUSH0 PUSH2 0x72E PUSH1 0x1 SLOAD PUSH2 0xA2A JUMP JUMPDEST SWAP1 POP PUSH0 DUP2 PUSH2 0x744 CALLVALUE PUSH8 0xDE0B6B3A7640000 PUSH2 0x1018 JUMP JUMPDEST PUSH2 0x74E SWAP2 SWAP1 PUSH2 0x102F JUMP JUMPDEST SWAP1 POP PUSH1 0x2 SLOAD DUP2 PUSH1 0x1 SLOAD PUSH2 0x761 SWAP2 SWAP1 PUSH2 0xFEE JUMP JUMPDEST GT ISZERO PUSH2 0x76B JUMPI PUSH0 PUSH0 REVERT JUMPDEST PUSH1 0x40 MLOAD PUSH4 0x70A08231 PUSH1 0xE0 SHL DUP2 MSTORE ADDRESS PUSH1 0x4 DUP3 ADD MSTORE DUP2 SWAP1 PUSH32 0x0 PUSH1 0x1 PUSH1 0x1 PUSH1 0xA0 SHL SUB AND SWAP1 PUSH4 0x70A08231 SWAP1 PUSH1 0x24 ADD PUSH1 0x20 PUSH1 0x40 MLOAD DUP1 DUP4 SUB DUP2 DUP7 GAS STATICCALL ISZERO DUP1 ISZERO PUSH2 0x7CF JUMPI RETURNDATASIZE PUSH0 PUSH0 RETURNDATACOPY RETURNDATASIZE PUSH0 REVERT JUMPDEST POP POP POP POP PUSH1 0x40 MLOAD RETURNDATASIZE PUSH1 0x1F NOT PUSH1 0x1F DUP3 ADD AND DUP3 ADD DUP1 PUSH1 0x40 MSTORE POP DUP2 ADD SWAP1 PUSH2 0x7F3 SWAP2 SWAP1 PUSH2 0x1001 JUMP JUMPDEST LT ISZERO PUSH2 0x7FD JUMPI PUSH0 PUSH0 REVERT JUMPDEST PUSH1 0x40 MLOAD PUSH4 0x70A08231 PUSH1 0xE0 SHL DUP2 MSTORE CALLER PUSH1 0x4 DUP3 ADD MSTORE PUSH0 SWAP1 PUSH32 0x0 PUSH1 0x1 PUSH1 0x1 PUSH1 0xA0 SHL SUB AND SWAP1 PUSH4 0x70A08231 SWAP1 PUSH1 0x24 ADD PUSH1 0x20 PUSH1 0x40 MLOAD DUP1 DUP4 SUB DUP2 DUP7 GAS STATICCALL ISZERO DUP1 ISZERO PUSH2 0x861 JUMPI RETURNDATASIZE PUSH0 PUSH0 RETURNDATACOPY RETURNDATASIZE PUSH0 REVERT JUMPDEST POP POP POP POP PUSH1 0x40 MLOAD RETURNDATASIZE PUSH1 0x1F NOT PUSH1 0x1F DUP3 ADD AND DUP3 ADD DUP1 PUSH1 0x40 MSTORE POP DUP2 ADD SWAP1 PUSH2 0x885 SWAP2 SWAP1 PUSH2 0x1001 JUMP JUMPDEST SWAP1 POP PUSH2 0x891 CALLER DUP4 PUSH2 0xCE2 JUMP JUMPDEST PUSH1 0x40 MLOAD PUSH4 0x70A08231 PUSH1 0xE0 SHL DUP2 MSTORE CALLER PUSH1 0x4 DUP3 ADD MSTORE PUSH0 SWAP1 DUP3 SWAP1 PUSH1 0x1 PUSH1 0x1 PUSH1 0xA0 SHL SUB PUSH32 0x0 AND SWAP1 PUSH4 0x70A08231 SWAP1 PUSH1 0x24 ADD PUSH1 0x20 PUSH1 0x40 MLOAD DUP1 DUP4 SUB DUP2 DUP7 GAS STATICCALL ISZERO DUP1 ISZERO PUSH2 0x8F7 JUMPI RETURNDATASIZE PUSH0 PUSH0 RETURNDATACOPY RETURNDATASIZE PUSH0 REVERT JUMPDEST POP POP POP POP PUSH1 0x40 MLOAD RETURNDATASIZE PUSH1 0x1F NOT PUSH1 0x1F DUP3 ADD AND DUP3 ADD DUP1 PUSH1 0x40 MSTORE POP DUP2 ADD SWAP1 PUSH2 0x91B SWAP2 SWAP1 PUSH2 0x1001 JUMP JUMPDEST PUSH2 0x925 SWAP2 SWAP1 PUSH2 0xFD5 JUMP JUMPDEST SWAP1 POP DUP5 DUP2 LT ISZERO PUSH2 0x933 JUMPI PUSH0 PUSH0 REVERT JUMPDEST DUP1 PUSH1 0x1 PUSH0 DUP3 DUP3 SLOAD PUSH2 0x944 SWAP2 SWAP1 PUSH2 0xFEE JUMP JUMPDEST SWAP1 SWAP2 SSTORE POP PUSH2 0x952 SWAP1 POP PUSH2 0xE08 JUMP JUMPDEST PUSH0 PUSH1 0x64 PUSH2 0x960 CALLVALUE PUSH1 0xA PUSH2 0x1018 JUMP JUMPDEST PUSH2 0x96A SWAP2 SWAP1 PUSH2 0x102F JUMP JUMPDEST PUSH0 DUP1 SLOAD PUSH1 0x40 MLOAD SWAP3 SWAP4 POP SWAP1 SWAP2 PUSH1 0x1 PUSH1 0x1 PUSH1 0xA0 SHL SUB SWAP1 SWAP2 AND SWAP1 DUP4 SWAP1 DUP4 DUP2 DUP2 DUP2 DUP6 DUP8 GAS CALL SWAP3 POP POP POP RETURNDATASIZE DUP1 PUSH0 DUP2 EQ PUSH2 0x9B9 JUMPI PUSH1 0x40 MLOAD SWAP2 POP PUSH1 0x1F NOT PUSH1 0x3F RETURNDATASIZE ADD AND DUP3 ADD PUSH1 0x40 MSTORE RETURNDATASIZE DUP3 MSTORE RETURNDATASIZE PUSH0 PUSH1 0x20 DUP5 ADD RETURNDATACOPY PUSH2 0x9BE JUMP JUMPDEST PUSH1 0x60 SWAP2 POP JUMPDEST POP POP SWAP1 POP DUP1 PUSH2 0x9CB JUMPI PUSH0 PUSH0 REVERT JUMPDEST PUSH1 0x40 DUP1 MLOAD CALLVALUE DUP2 MSTORE PUSH1 0x20 DUP2 ADD DUP6 SWAP1 MSTORE CALLER SWAP2 PUSH32 0x1CBC5AB135991BD2B6A4B034A04AA2AA086DAC1371CB9B16B8B5E2ED6B036BED SWAP2 ADD PUSH1 0x40 MLOAD DUP1 SWAP2 SUB SWAP1 LOG2 POP POP CALLER PUSH0 SWAP1 DUP2 MSTORE PUSH1 0x3 PUSH1 0x20 MSTORE PUSH1 0x40 SWAP1 KECCAK256 TIMESTAMP SWAP1 SSTORE POP PUSH2 0xA27 SWAP3 POP PUSH2 0xCBC SWAP2 POP POP JUMP JUMPDEST POP JUMP JUMPDEST PUSH0 PUSH12 0x33B2E3C9FD0803CE8000000 DUP3 GT ISZERO PUSH2 0xA4F JUMPI PUSH12 0x33B2E3C9FD0803CE8000000 SWAP2 POP JUMPDEST PUSH4 0x5F5E100 PUSH4 0x59682F00 PUSH0 PUSH12 0x33B2E3C9FD0803CE8000000 PUSH2 0xA79 DUP7 PUSH8 0xDE0B6B3A7640000 PUSH2 0x1018 JUMP JUMPDEST PUSH2 0xA83 SWAP2 SWAP1 PUSH2 0x102F JUMP JUMPDEST SWAP1 POP PUSH0 PUSH8 0xDE0B6B3A7640000 PUSH2 0xA99 DUP4 DUP1 PUSH2 0x1018 JUMP JUMPDEST PUSH2 0xAA3 SWAP2 SWAP1 PUSH2 0x102F JUMP JUMPDEST SWAP1 POP PUSH0 PUSH8 0xDE0B6B3A7640000 DUP3 PUSH2 0xABA DUP8 DUP8 PUSH2 0xFD5 JUMP JUMPDEST PUSH2 0xAC4 SWAP2 SWAP1 PUSH2 0x1018 JUMP JUMPDEST PUSH2 0xACE SWAP2 SWAP1 PUSH2 0x102F JUMP JUMPDEST PUSH2 0xAD8 SWAP1 DUP7 PUSH2 0xFEE JUMP JUMPDEST SWAP1 POP PUSH0 PUSH2 0xAE3 PUSH2 0x2E9 JUMP JUMPDEST SWAP1 POP PUSH0 DUP2 PUSH2 0xAF9 DUP5 PUSH8 0xDE0B6B3A7640000 PUSH2 0x1018 JUMP JUMPDEST PUSH2 0xB03 SWAP2 SWAP1 PUSH2 0x102F JUMP JUMPDEST SWAP1 POP PUSH9 0x56BC75E2D63100000 DUP2 GT ISZERO PUSH2 0xB4F JUMPI PUSH1 0x40 MLOAD PUSH3 0x461BCD PUSH1 0xE5 SHL DUP2 MSTORE PUSH1 0x20 PUSH1 0x4 DUP3 ADD MSTORE PUSH1 0xE PUSH1 0x24 DUP3 ADD MSTORE PUSH14 0x4F7261636C6520616E6F6D616C79 PUSH1 0x90 SHL PUSH1 0x44 DUP3 ADD MSTORE PUSH1 0x64 ADD PUSH2 0x3AB JUMP JUMPDEST SWAP9 SWAP8 POP POP POP POP POP POP POP POP JUMP JUMPDEST PUSH2 0xB63 PUSH2 0xEAD JUMP JUMPDEST PUSH1 0x2 PUSH32 0x9B779B17422D0DF92223018B32B4D1FA46E071723D6817E2486D003BECC55F00 SSTORE JUMP JUMPDEST PUSH1 0x40 DUP1 MLOAD PUSH1 0x1 PUSH1 0x1 PUSH1 0xA0 SHL SUB DUP6 DUP2 AND PUSH1 0x24 DUP4 ADD MSTORE DUP5 DUP2 AND PUSH1 0x44 DUP4 ADD MSTORE PUSH1 0x64 DUP1 DUP4 ADD DUP6 SWAP1 MSTORE DUP4 MLOAD DUP1 DUP5 SUB SWAP1 SWAP2 ADD DUP2 MSTORE PUSH1 0x84 SWAP1 SWAP3 ADD DUP4 MSTORE PUSH1 0x20 DUP3 ADD DUP1 MLOAD PUSH1 0x1 PUSH1 0x1 PUSH1 0xE0 SHL SUB AND PUSH4 0x23B872DD PUSH1 0xE0 SHL OR SWAP1 MSTORE SWAP2 MLOAD PUSH0 SWAP3 DUP4 SWAP3 PUSH32 0x0 SWAP1 SWAP2 AND SWAP2 PUSH2 0xC0D SWAP2 SWAP1 PUSH2 0x104E JUMP JUMPDEST PUSH0 PUSH1 0x40 MLOAD DUP1 DUP4 SUB DUP2 PUSH0 DUP7 GAS CALL SWAP2 POP POP RETURNDATASIZE DUP1 PUSH0 DUP2 EQ PUSH2 0xC46 JUMPI PUSH1 0x40 MLOAD SWAP2 POP PUSH1 0x1F NOT PUSH1 0x3F RETURNDATASIZE ADD AND DUP3 ADD PUSH1 0x40 MSTORE RETURNDATASIZE DUP3 MSTORE RETURNDATASIZE PUSH0 PUSH1 0x20 DUP5 ADD RETURNDATACOPY PUSH2 0xC4B JUMP JUMPDEST PUSH1 0x60 SWAP2 POP JUMPDEST POP SWAP2 POP SWAP2 POP DUP2 DUP1 ISZERO PUSH2 0xC75 JUMPI POP DUP1 MLOAD ISZERO DUP1 PUSH2 0xC75 JUMPI POP DUP1 DUP1 PUSH1 0x20 ADD SWAP1 MLOAD DUP2 ADD SWAP1 PUSH2 0xC75 SWAP2 SWAP1 PUSH2 0x1064 JUMP JUMPDEST PUSH2 0xCB5 JUMPI PUSH1 0x40 MLOAD PUSH3 0x461BCD PUSH1 0xE5 SHL DUP2 MSTORE PUSH1 0x20 PUSH1 0x4 DUP3 ADD MSTORE PUSH1 0x11 PUSH1 0x24 DUP3 ADD MSTORE PUSH17 0x151C985B9CD9995C919C9BDB4819985A5B PUSH1 0x7A SHL PUSH1 0x44 DUP3 ADD MSTORE PUSH1 0x64 ADD PUSH2 0x3AB JUMP JUMPDEST POP POP POP POP POP JUMP JUMPDEST PUSH1 0x1 PUSH32 0x9B779B17422D0DF92223018B32B4D1FA46E071723D6817E2486D003BECC55F00 SSTORE JUMP JUMPDEST PUSH1 0x40 DUP1 MLOAD PUSH1 0x1 PUSH1 0x1 PUSH1 0xA0 SHL SUB DUP5 DUP2 AND PUSH1 0x24 DUP4 ADD MSTORE PUSH1 0x44 DUP1 DUP4 ADD DUP6 SWAP1 MSTORE DUP4 MLOAD DUP1 DUP5 SUB SWAP1 SWAP2 ADD DUP2 MSTORE PUSH1 0x64 SWAP1 SWAP3 ADD DUP4 MSTORE PUSH1 0x20 DUP3 ADD DUP1 MLOAD PUSH1 0x1 PUSH1 0x1 PUSH1 0xE0 SHL SUB AND PUSH4 0xA9059CBB PUSH1 0xE0 SHL OR SWAP1 MSTORE SWAP2 MLOAD PUSH0 SWAP3 DUP4 SWAP3 PUSH32 0x0 SWAP1 SWAP2 AND SWAP2 PUSH2 0xD5E SWAP2 SWAP1 PUSH2 0x104E JUMP JUMPDEST PUSH0 PUSH1 0x40 MLOAD DUP1 DUP4 SUB DUP2 PUSH0 DUP7 GAS CALL SWAP2 POP POP RETURNDATASIZE DUP1 PUSH0 DUP2 EQ PUSH2 0xD97 JUMPI PUSH1 0x40 MLOAD SWAP2 POP PUSH1 0x1F NOT PUSH1 0x3F RETURNDATASIZE ADD AND DUP3 ADD PUSH1 0x40 MSTORE RETURNDATASIZE DUP3 MSTORE RETURNDATASIZE PUSH0 PUSH1 0x20 DUP5 ADD RETURNDATACOPY PUSH2 0xD9C JUMP JUMPDEST PUSH1 0x60 SWAP2 POP JUMPDEST POP SWAP2 POP SWAP2 POP DUP2 DUP1 ISZERO PUSH2 0xDC6 JUMPI POP DUP1 MLOAD ISZERO DUP1 PUSH2 0xDC6 JUMPI POP DUP1 DUP1 PUSH1 0x20 ADD SWAP1 MLOAD DUP2 ADD SWAP1 PUSH2 0xDC6 SWAP2 SWAP1 PUSH2 0x1064 JUMP JUMPDEST PUSH2 0xE02 JUMPI PUSH1 0x40 MLOAD PUSH3 0x461BCD PUSH1 0xE5 SHL DUP2 MSTORE PUSH1 0x20 PUSH1 0x4 DUP3 ADD MSTORE PUSH1 0xD PUSH1 0x24 DUP3 ADD MSTORE PUSH13 0x151C985B9CD9995C8819985A5B PUSH1 0x9A SHL PUSH1 0x44 DUP3 ADD MSTORE PUSH1 0x64 ADD PUSH2 0x3AB JUMP JUMPDEST POP POP POP POP JUMP JUMPDEST PUSH0 JUMPDEST PUSH1 0x2 SLOAD PUSH1 0x1 SLOAD LT ISZERO DUP1 ISZERO PUSH2 0xE1E JUMPI POP PUSH1 0xA DUP2 LT JUMPDEST ISZERO PUSH2 0xA27 JUMPI PUSH0 PUSH11 0x295BE96E64066972000000 PUSH1 0x2 SLOAD PUSH2 0xE3D SWAP2 SWAP1 PUSH2 0xFEE JUMP JUMPDEST SWAP1 POP PUSH12 0x33B2E3C9FD0803CE8000000 DUP2 GT ISZERO PUSH2 0xE62 JUMPI POP PUSH12 0x33B2E3C9FD0803CE8000000 JUMPDEST PUSH1 0x2 DUP2 SWAP1 SSTORE PUSH1 0x40 MLOAD DUP2 DUP2 MSTORE PUSH32 0xC1FA8E88841FA38AED8218549BD24903570C58976A974EB8B3329E98A92A9C3C SWAP1 PUSH1 0x20 ADD PUSH1 0x40 MLOAD DUP1 SWAP2 SUB SWAP1 LOG1 DUP2 PUSH2 0xEA4 DUP2 PUSH2 0x1083 JUMP JUMPDEST SWAP3 POP POP POP PUSH2 0xE0A JUMP JUMPDEST PUSH32 0x9B779B17422D0DF92223018B32B4D1FA46E071723D6817E2486D003BECC55F00 SLOAD PUSH1 0x2 SUB PUSH2 0xEEF JUMPI PUSH1 0x40 MLOAD PUSH4 0x3EE5AEB5 PUSH1 0xE0 SHL DUP2 MSTORE PUSH1 0x4 ADD PUSH1 0x40 MLOAD DUP1 SWAP2 SUB SWAP1 REVERT JUMPDEST JUMP JUMPDEST PUSH0 PUSH1 0x20 DUP3 DUP5 SUB SLT ISZERO PUSH2 0xF01 JUMPI PUSH0 PUSH0 REVERT JUMPDEST DUP2 CALLDATALOAD PUSH1 0x1 PUSH1 0x1 PUSH1 0xA0 SHL SUB DUP2 AND DUP2 EQ PUSH2 0xF17 JUMPI PUSH0 PUSH0 REVERT JUMPDEST SWAP4 SWAP3 POP POP POP JUMP JUMPDEST PUSH0 PUSH0 PUSH1 0x40 DUP4 DUP6 SUB SLT ISZERO PUSH2 0xF2F JUMPI PUSH0 PUSH0 REVERT JUMPDEST POP POP DUP1 CALLDATALOAD SWAP3 PUSH1 0x20 SWAP1 SWAP2 ADD CALLDATALOAD SWAP2 POP JUMP JUMPDEST PUSH0 PUSH1 0x20 DUP3 DUP5 SUB SLT ISZERO PUSH2 0xF4E JUMPI PUSH0 PUSH0 REVERT JUMPDEST POP CALLDATALOAD SWAP2 SWAP1 POP JUMP JUMPDEST DUP1 MLOAD PUSH10 0xFFFFFFFFFFFFFFFFFFFF DUP2 AND DUP2 EQ PUSH2 0xF6E JUMPI PUSH0 PUSH0 REVERT JUMPDEST SWAP2 SWAP1 POP JUMP JUMPDEST PUSH0 PUSH0 PUSH0 PUSH0 PUSH0 PUSH1 0xA0 DUP7 DUP9 SUB SLT ISZERO PUSH2 0xF87 JUMPI PUSH0 PUSH0 REVERT JUMPDEST PUSH2 0xF90 DUP7 PUSH2 0xF55 JUMP JUMPDEST PUSH1 0x20 DUP8 ADD MLOAD PUSH1 0x40 DUP9 ADD MLOAD PUSH1 0x60 DUP10 ADD MLOAD SWAP3 SWAP8 POP SWAP1 SWAP6 POP SWAP4 POP SWAP2 POP PUSH2 0xFB5 PUSH1 0x80 DUP8 ADD PUSH2 0xF55 JUMP JUMPDEST SWAP1 POP SWAP3 SWAP6 POP SWAP3 SWAP6 SWAP1 SWAP4 POP JUMP JUMPDEST PUSH4 0x4E487B71 PUSH1 0xE0 SHL PUSH0 MSTORE PUSH1 0x11 PUSH1 0x4 MSTORE PUSH1 0x24 PUSH0 REVERT JUMPDEST DUP2 DUP2 SUB DUP2 DUP2 GT ISZERO PUSH2 0xFE8 JUMPI PUSH2 0xFE8 PUSH2 0xFC1 JUMP JUMPDEST SWAP3 SWAP2 POP POP JUMP JUMPDEST DUP1 DUP3 ADD DUP1 DUP3 GT ISZERO PUSH2 0xFE8 JUMPI PUSH2 0xFE8 PUSH2 0xFC1 JUMP JUMPDEST PUSH0 PUSH1 0x20 DUP3 DUP5 SUB SLT ISZERO PUSH2 0x1011 JUMPI PUSH0 PUSH0 REVERT JUMPDEST POP MLOAD SWAP2 SWAP1 POP JUMP JUMPDEST DUP1 DUP3 MUL DUP2 ISZERO DUP3 DUP3 DIV DUP5 EQ OR PUSH2 0xFE8 JUMPI PUSH2 0xFE8 PUSH2 0xFC1 JUMP JUMPDEST PUSH0 DUP3 PUSH2 0x1049 JUMPI PUSH4 0x4E487B71 PUSH1 0xE0 SHL PUSH0 MSTORE PUSH1 0x12 PUSH1 0x4 MSTORE PUSH1 0x24 PUSH0 REVERT JUMPDEST POP DIV SWAP1 JUMP JUMPDEST PUSH0 DUP3 MLOAD DUP1 PUSH1 0x20 DUP6 ADD DUP5 MCOPY PUSH0 SWAP3 ADD SWAP2 DUP3 MSTORE POP SWAP2 SWAP1 POP JUMP JUMPDEST PUSH0 PUSH1 0x20 DUP3 DUP5 SUB SLT ISZERO PUSH2 0x1074 JUMPI PUSH0 PUSH0 REVERT JUMPDEST DUP2 MLOAD DUP1 ISZERO ISZERO DUP2 EQ PUSH2 0xF17 JUMPI PUSH0 PUSH0 REVERT JUMPDEST PUSH0 PUSH1 0x1 DUP3 ADD PUSH2 0x1094 JUMPI PUSH2 0x1094 PUSH2 0xFC1 JUMP JUMPDEST POP PUSH1 0x1 ADD SWAP1 JUMP INVALID LOG2 PUSH5 0x6970667358 0x22 SLT KECCAK256 RJUMP 0xAD87 CALL 0xBD SWAP1 0xD6 CALLDATACOPY 0xD9 0xD2 DUP10 PUSH9 0xB76B15E5133699412D PUSH23 0xECD8981B57B9097DB72364736F6C634300081E00330000 "
				},
				"gasEstimates": {
					"creation": {
						"codeDepositCost": "861000",
						"executionCost": "infinite",
						"totalCost": "infinite"
					},
					"external": {
						"COOLDOWN()": "206",
						"INITIAL_TRANCHE()": "207",
						"LABR()": "infinite",
						"MAX_PRICE_POL()": "250",
						"MAX_SUPPLY()": "206",
						"TRANCHE_SIZE()": "249",
						"buy(uint256)": "infinite",
						"daoTreasury()": "2402",
						"getPOLPriceUSD()": "infinite",
						"getPrice(uint256)": "infinite",
						"lastTxTime(address)": "2516",
						"priceFeed()": "infinite",
						"sell(uint256,uint256)": "infinite",
						"totalSold()": "2372",
						"unlockedSupply()": "2371"
					},
					"internal": {
						"_autoUnlock()": "infinite",
						"_safeTransfer(address,uint256)": "infinite",
						"_safeTransferFrom(address,address,uint256)": "infinite"
					}
				},
				"methodIdentifiers": {
					"COOLDOWN()": "a2724a4d",
					"INITIAL_TRANCHE()": "0192d7a0",
					"LABR()": "bc96ec51",
					"MAX_PRICE_POL()": "c84dc519",
					"MAX_SUPPLY()": "32cb6b0c",
					"TRANCHE_SIZE()": "f2752d80",
					"buy(uint256)": "d96a094a",
					"daoTreasury()": "79022a9f",
					"getPOLPriceUSD()": "2820ef51",
					"getPrice(uint256)": "e7572230",
					"lastTxTime(address)": "17d63605",
					"priceFeed()": "741bef1a",
					"sell(uint256,uint256)": "d79875eb",
					"totalSold()": "9106d7ba",
					"unlockedSupply()": "fd3d27b8"
				}
			},
			"storageLayout": {
				"storage": [
					{
						"astId": 294,
						"contract": "final-contracts/LaborCoinExchangeV3.sol:LaborCoinExchangeV3",
						"label": "daoTreasury",
						"offset": 0,
						"slot": "0",
						"type": "t_address"
					},
					{
						"astId": 311,
						"contract": "final-contracts/LaborCoinExchangeV3.sol:LaborCoinExchangeV3",
						"label": "totalSold",
						"offset": 0,
						"slot": "1",
						"type": "t_uint256"
					},
					{
						"astId": 313,
						"contract": "final-contracts/LaborCoinExchangeV3.sol:LaborCoinExchangeV3",
						"label": "unlockedSupply",
						"offset": 0,
						"slot": "2",
						"type": "t_uint256"
					},
					{
						"astId": 317,
						"contract": "final-contracts/LaborCoinExchangeV3.sol:LaborCoinExchangeV3",
						"label": "lastTxTime",
						"offset": 0,
						"slot": "3",
						"type": "t_mapping(t_address,t_uint256)"
					}
				],
				"types": {
					"t_address": {
						"encoding": "inplace",
						"label": "address",
						"numberOfBytes": "20"
					},
					"t_mapping(t_address,t_uint256)": {
						"encoding": "mapping",
						"key": "t_address",
						"label": "mapping(address => uint256)",
						"numberOfBytes": "32",
						"value": "t_uint256"
					},
					"t_uint256": {
						"encoding": "inplace",
						"label": "uint256",
						"numberOfBytes": "32"
					}
				}
			},
			"userdoc": {
				"kind": "user",
				"methods": {},
				"version": 1
			}
		}
	}
}