{
	"final-contracts/LaborCoinExchangeV4.sol": {
		"LaborCoinExchangeV4": {
			"abi": [
				{
					"inputs": [
						{
							"internalType": "address",
							"name": "_labr",
							"type": "address"
						},
						{
							"internalType": "address",
							"name": "_daoTreasury",
							"type": "address"
						}
					],
					"stateMutability": "nonpayable",
					"type": "constructor"
				},
				{
					"inputs": [],
					"name": "ReentrancyGuardReentrantCall",
					"type": "error"
				},
				{
					"anonymous": false,
					"inputs": [
						{
							"indexed": true,
							"internalType": "address",
							"name": "user",
							"type": "address"
						},
						{
							"indexed": false,
							"internalType": "uint256",
							"name": "polIn",
							"type": "uint256"
						},
						{
							"indexed": false,
							"internalType": "uint256",
							"name": "tokensOut",
							"type": "uint256"
						}
					],
					"name": "Buy",
					"type": "event"
				},
				{
					"anonymous": false,
					"inputs": [
						{
							"indexed": true,
							"internalType": "address",
							"name": "user",
							"type": "address"
						},
						{
							"indexed": false,
							"internalType": "uint256",
							"name": "tokensIn",
							"type": "uint256"
						},
						{
							"indexed": false,
							"internalType": "uint256",
							"name": "polOut",
							"type": "uint256"
						}
					],
					"name": "Sell",
					"type": "event"
				},
				{
					"anonymous": false,
					"inputs": [
						{
							"indexed": false,
							"internalType": "uint256",
							"name": "unlocked",
							"type": "uint256"
						}
					],
					"name": "TrancheUnlocked",
					"type": "event"
				},
				{
					"inputs": [],
					"name": "COOLDOWN",
					"outputs": [
						{
							"internalType": "uint256",
							"name": "",
							"type": "uint256"
						}
					],
					"stateMutability": "view",
					"type": "function"
				},
				{
					"inputs": [],
					"name": "INITIAL_TRANCHE",
					"outputs": [
						{
							"internalType": "uint256",
							"name": "",
							"type": "uint256"
						}
					],
					"stateMutability": "view",
					"type": "function"
				},
				{
					"inputs": [],
					"name": "LABR",
					"outputs": [
						{
							"internalType": "contract IERC20",
							"name": "",
							"type": "address"
						}
					],
					"stateMutability": "view",
					"type": "function"
				},
				{
					"inputs": [],
					"name": "MAX_EXCHANGE_TX",
					"outputs": [
						{
							"internalType": "uint256",
							"name": "",
							"type": "uint256"
						}
					],
					"stateMutability": "view",
					"type": "function"
				},
				{
					"inputs": [],
					"name": "MAX_EXCHANGE_WALLET",
					"outputs": [
						{
							"internalType": "uint256",
							"name": "",
							"type": "uint256"
						}
					],
					"stateMutability": "view",
					"type": "function"
				},
				{
					"inputs": [],
					"name": "MAX_PRICE_POL",
					"outputs": [
						{
							"internalType": "uint256",
							"name": "",
							"type": "uint256"
						}
					],
					"stateMutability": "view",
					"type": "function"
				},
				{
					"inputs": [],
					"name": "MAX_SUPPLY",
					"outputs": [
						{
							"internalType": "uint256",
							"name": "",
							"type": "uint256"
						}
					],
					"stateMutability": "view",
					"type": "function"
				},
				{
					"inputs": [],
					"name": "TRANCHE_SIZE",
					"outputs": [
						{
							"internalType": "uint256",
							"name": "",
							"type": "uint256"
						}
					],
					"stateMutability": "view",
					"type": "function"
				},
				{
					"inputs": [
						{
							"internalType": "uint256",
							"name": "minTokensOut",
							"type": "uint256"
						}
					],
					"name": "buy",
					"outputs": [],
					"stateMutability": "payable",
					"type": "function"
				},
				{
					"inputs": [],
					"name": "daoTreasury",
					"outputs": [
						{
							"internalType": "address",
							"name": "",
							"type": "address"
						}
					],
					"stateMutability": "view",
					"type": "function"
				},
				{
					"inputs": [],
					"name": "getPOLPriceUSD",
					"outputs": [
						{
							"internalType": "uint256",
							"name": "",
							"type": "uint256"
						}
					],
					"stateMutability": "view",
					"type": "function"
				},
				{
					"inputs": [
						{
							"internalType": "uint256",
							"name": "sold",
							"type": "uint256"
						}
					],
					"name": "getPrice",
					"outputs": [
						{
							"internalType": "uint256",
							"name": "",
							"type": "uint256"
						}
					],
					"stateMutability": "view",
					"type": "function"
				},
				{
					"inputs": [
						{
							"internalType": "address",
							"name": "",
							"type": "address"
						}
					],
					"name": "lastTxTime",
					"outputs": [
						{
							"internalType": "uint256",
							"name": "",
							"type": "uint256"
						}
					],
					"stateMutability": "view",
					"type": "function"
				},
				{
					"inputs": [],
					"name": "priceFeed",
					"outputs": [
						{
							"internalType": "contract AggregatorV3Interface",
							"name": "",
							"type": "address"
						}
					],
					"stateMutability": "view",
					"type": "function"
				},
				{
					"inputs": [
						{
							"internalType": "uint256",
							"name": "amount",
							"type": "uint256"
						},
						{
							"internalType": "uint256",
							"name": "minPOL",
							"type": "uint256"
						}
					],
					"name": "sell",
					"outputs": [],
					"stateMutability": "nonpayable",
					"type": "function"
				},
				{
					"inputs": [],
					"name": "totalSold",
					"outputs": [
						{
							"internalType": "uint256",
							"name": "",
							"type": "uint256"
						}
					],
					"stateMutability": "view",
					"type": "function"
				},
				{
					"inputs": [],
					"name": "unlockedSupply",
					"outputs": [
						{
							"internalType": "uint256",
							"name": "",
							"type": "uint256"
						}
					],
					"stateMutability": "view",
					"type": "function"
				},
				{
					"stateMutability": "payable",
					"type": "receive"
				}
			],
			"devdoc": {
				"errors": {
					"ReentrancyGuardReentrantCall()": [
						{
							"details": "Unauthorized reentrant call."
						}
					]
				},
				"kind": "dev",
				"methods": {},
				"version": 1
			},
			"evm": {
				"assembly": "    /* \"final-contracts/LaborCoinExchangeV4.sol\":727:6569  contract LaborCoinExchangeV4 is ReentrancyGuard {... */\n  mstore(0x40, 0xc0)\n    /* \"final-contracts/LaborCoinExchangeV4.sol\":903:945  0xAB594600376Ec9fD91F8e885dADF0CE036862dE0 */\n  0xab594600376ec9fd91f8e885dadf0ce036862de0\n    /* \"final-contracts/LaborCoinExchangeV4.sol\":821:946  AggregatorV3Interface public immutable priceFeed =... */\n  0xa0\n  mstore\n    /* \"final-contracts/LaborCoinExchangeV4.sol\":1734:2039  constructor(... */\n  callvalue\n  dup1\n  iszero\n  tag_1\n  jumpi\n  revert(0x00, 0x00)\ntag_1:\n  pop\n  mload(0x40)\n  sub(codesize, bytecodeSize)\n  dup1\n  bytecodeSize\n  dup4\n  codecopy\n  dup2\n  add\n  0x40\n  dup2\n  swap1\n  mstore\n  tag_2\n  swap2\n  tag_3\n  jump\t// in\ntag_2:\n    /* \"@openzeppelin/contracts/utils/ReentrancyGuard.sol\":2365:2366  1 */\n  0x01\n    /* \"@openzeppelin/contracts/utils/ReentrancyGuard.sol\":1505:1571  0x9b779b17422d0df92223018b32b4d1fa46e071723d6817e2486d003becc55f00 */\n  0x9b779b17422d0df92223018b32b4d1fa46e071723d6817e2486d003becc55f00\n    /* \"@openzeppelin/contracts/utils/ReentrancyGuard.sol\":2539:2605  _reentrancyGuardStorageSlot().getUint256Slot().value = NOT_ENTERED */\n  sstore\n  sub(shl(0xa0, 0x01), 0x01)\n    /* \"final-contracts/LaborCoinExchangeV4.sol\":1827:1846  _labr != address(0) */\n  dup3\n  and\n    /* \"final-contracts/LaborCoinExchangeV4.sol\":1819:1859  require(_labr != address(0), \"Bad LABR\") */\n  tag_12\n  jumpi\n  mload(0x40)\n  shl(0xe5, 0x461bcd)\n  dup2\n  mstore\n    /* \"#utility.yul\":696:698   */\n  0x20\n    /* \"final-contracts/LaborCoinExchangeV4.sol\":1819:1859  require(_labr != address(0), \"Bad LABR\") */\n  0x04\n  dup3\n  add\n    /* \"#utility.yul\":678:699   */\n  mstore\n    /* \"#utility.yul\":735:736   */\n  0x08\n    /* \"#utility.yul\":715:733   */\n  0x24\n  dup3\n  add\n    /* \"#utility.yul\":708:737   */\n  mstore\n  shl(0xc1, 0x2130b2102620a129)\n    /* \"#utility.yul\":753:771   */\n  0x44\n  dup3\n  add\n    /* \"#utility.yul\":746:784   */\n  mstore\n    /* \"#utility.yul\":801:819   */\n  0x64\n  add\n    /* \"final-contracts/LaborCoinExchangeV4.sol\":1819:1859  require(_labr != address(0), \"Bad LABR\") */\ntag_13:\n  mload(0x40)\n  dup1\n  swap2\n  sub\n  swap1\n  revert\ntag_12:\n  sub(shl(0xa0, 0x01), 0x01)\n    /* \"final-contracts/LaborCoinExchangeV4.sol\":1878:1904  _daoTreasury != address(0) */\n  dup2\n  and\n    /* \"final-contracts/LaborCoinExchangeV4.sol\":1870:1916  require(_daoTreasury != address(0), \"Bad DAO\") */\n  tag_15\n  jumpi\n  mload(0x40)\n  shl(0xe5, 0x461bcd)\n  dup2\n  mstore\n    /* \"#utility.yul\":1032:1034   */\n  0x20\n    /* \"final-contracts/LaborCoinExchangeV4.sol\":1870:1916  require(_daoTreasury != address(0), \"Bad DAO\") */\n  0x04\n  dup3\n  add\n    /* \"#utility.yul\":1014:1035   */\n  mstore\n    /* \"#utility.yul\":1071:1072   */\n  0x07\n    /* \"#utility.yul\":1051:1069   */\n  0x24\n  dup3\n  add\n    /* \"#utility.yul\":1044:1073   */\n  mstore\n  shl(0xc8, 0x4261642044414f)\n    /* \"#utility.yul\":1089:1107   */\n  0x44\n  dup3\n  add\n    /* \"#utility.yul\":1082:1119   */\n  mstore\n    /* \"#utility.yul\":1136:1154   */\n  0x64\n  add\n    /* \"final-contracts/LaborCoinExchangeV4.sol\":1870:1916  require(_daoTreasury != address(0), \"Bad DAO\") */\n  tag_13\n    /* \"#utility.yul\":830:1160   */\n  jump\n    /* \"final-contracts/LaborCoinExchangeV4.sol\":1870:1916  require(_daoTreasury != address(0), \"Bad DAO\") */\ntag_15:\n  sub(shl(0xa0, 0x01), 0x01)\n    /* \"final-contracts/LaborCoinExchangeV4.sol\":1929:1949  LABR = IERC20(_labr) */\n  swap2\n  dup3\n  and\n  0x80\n  mstore\n    /* \"final-contracts/LaborCoinExchangeV4.sol\":1960:1971  daoTreasury */\n  0x00\n    /* \"final-contracts/LaborCoinExchangeV4.sol\":1960:1986  daoTreasury = _daoTreasury */\n  dup1\n  sload\n  not(sub(shl(0xa0, 0x01), 0x01))\n  and\n  swap2\n  swap1\n  swap3\n  and\n  or\n  swap1\n  sstore\n    /* \"final-contracts/LaborCoinExchangeV4.sol\":1095:1112  100_000_000 ether */\n  0x52b7d2dcc80cd2e4000000\n    /* \"final-contracts/LaborCoinExchangeV4.sol\":1999:2013  unlockedSupply */\n  0x02\n    /* \"final-contracts/LaborCoinExchangeV4.sol\":1999:2031  unlockedSupply = INITIAL_TRANCHE */\n  sstore\n    /* \"final-contracts/LaborCoinExchangeV4.sol\":727:6569  contract LaborCoinExchangeV4 is ReentrancyGuard {... */\n  jump(tag_22)\n    /* \"#utility.yul\":14:191   */\ntag_21:\n    /* \"#utility.yul\":93:106   */\n  dup1\n  mload\n  sub(shl(0xa0, 0x01), 0x01)\n    /* \"#utility.yul\":135:166   */\n  dup2\n  and\n    /* \"#utility.yul\":125:167   */\n  dup2\n  eq\n    /* \"#utility.yul\":115:185   */\n  tag_24\n  jumpi\n    /* \"#utility.yul\":181:182   */\n  0x00\n    /* \"#utility.yul\":178:179   */\n  0x00\n    /* \"#utility.yul\":171:183   */\n  revert\n    /* \"#utility.yul\":115:185   */\ntag_24:\n    /* \"#utility.yul\":14:191   */\n  swap2\n  swap1\n  pop\n  jump\t// out\n    /* \"#utility.yul\":196:489   */\ntag_3:\n    /* \"#utility.yul\":275:281   */\n  0x00\n    /* \"#utility.yul\":283:289   */\n  0x00\n    /* \"#utility.yul\":336:338   */\n  0x40\n    /* \"#utility.yul\":324:333   */\n  dup4\n    /* \"#utility.yul\":315:322   */\n  dup6\n    /* \"#utility.yul\":311:334   */\n  sub\n    /* \"#utility.yul\":307:339   */\n  slt\n    /* \"#utility.yul\":304:356   */\n  iszero\n  tag_26\n  jumpi\n    /* \"#utility.yul\":352:353   */\n  0x00\n    /* \"#utility.yul\":349:350   */\n  0x00\n    /* \"#utility.yul\":342:354   */\n  revert\n    /* \"#utility.yul\":304:356   */\ntag_26:\n    /* \"#utility.yul\":375:415   */\n  tag_27\n    /* \"#utility.yul\":405:414   */\n  dup4\n    /* \"#utility.yul\":375:415   */\n  tag_21\n  jump\t// in\ntag_27:\n    /* \"#utility.yul\":365:415   */\n  swap2\n  pop\n    /* \"#utility.yul\":434:483   */\n  tag_28\n    /* \"#utility.yul\":479:481   */\n  0x20\n    /* \"#utility.yul\":468:477   */\n  dup5\n    /* \"#utility.yul\":464:482   */\n  add\n    /* \"#utility.yul\":434:483   */\n  tag_21\n  jump\t// in\ntag_28:\n    /* \"#utility.yul\":424:483   */\n  swap1\n  pop\n    /* \"#utility.yul\":196:489   */\n  swap3\n  pop\n  swap3\n  swap1\n  pop\n  jump\t// out\n    /* \"#utility.yul\":830:1160   */\ntag_22:\n    /* \"final-contracts/LaborCoinExchangeV4.sol\":727:6569  contract LaborCoinExchangeV4 is ReentrancyGuard {... */\n  mload(0x80)\n  mload(0xa0)\n  codecopy(0x00, dataOffset(sub_0), dataSize(sub_0))\n  0x00\n  assignImmutable(\"0x06a86cedc6cacd68c72b41c10c237851dfed5ce85910507dd1c9be6a7d822d04\")\n  0x00\n  assignImmutable(\"0xb440c9986c01395f2aa716b5d1c22f7a6f50e50754b83b93de79b9bd54339a32\")\n  return(0x00, dataSize(sub_0))\nstop\n\nsub_0: assembly {\n        /* \"final-contracts/LaborCoinExchangeV4.sol\":727:6569  contract LaborCoinExchangeV4 is ReentrancyGuard {... */\n      mstore(0x40, 0x80)\n      jumpi(tag_1, lt(calldatasize, 0x04))\n      shr(0xe0, calldataload(0x00))\n      dup1\n      0x9106d7ba\n      gt\n      tag_20\n      jumpi\n      dup1\n      0xd79875eb\n      gt\n      tag_21\n      jumpi\n      dup1\n      0xd79875eb\n      eq\n      tag_15\n      jumpi\n      dup1\n      0xd96a094a\n      eq\n      tag_16\n      jumpi\n      dup1\n      0xe7572230\n      eq\n      tag_17\n      jumpi\n      dup1\n      0xf2752d80\n      eq\n      tag_18\n      jumpi\n      dup1\n      0xfd3d27b8\n      eq\n      tag_19\n      jumpi\n      revert(0x00, 0x00)\n    tag_21:\n      dup1\n      0x9106d7ba\n      eq\n      tag_11\n      jumpi\n      dup1\n      0xa2724a4d\n      eq\n      tag_12\n      jumpi\n      dup1\n      0xbc96ec51\n      eq\n      tag_13\n      jumpi\n      dup1\n      0xc84dc519\n      eq\n      tag_14\n      jumpi\n      revert(0x00, 0x00)\n    tag_20:\n      dup1\n      0x2820ef51\n      gt\n      tag_22\n      jumpi\n      dup1\n      0x2820ef51\n      eq\n      tag_7\n      jumpi\n      dup1\n      0x32cb6b0c\n      eq\n      tag_8\n      jumpi\n      dup1\n      0x741bef1a\n      eq\n      tag_9\n      jumpi\n      dup1\n      0x79022a9f\n      eq\n      tag_10\n      jumpi\n      revert(0x00, 0x00)\n    tag_22:\n      dup1\n      0x0192d7a0\n      eq\n      tag_3\n      jumpi\n      dup1\n      0x1770ab4d\n      eq\n      tag_4\n      jumpi\n      dup1\n      0x17d63605\n      eq\n      tag_5\n      jumpi\n      dup1\n      0x262bc03b\n      eq\n      tag_6\n      jumpi\n      revert(0x00, 0x00)\n    tag_1:\n      jumpi(tag_2, calldatasize)\n      stop\n    tag_2:\n      revert(0x00, 0x00)\n        /* \"final-contracts/LaborCoinExchangeV4.sol\":1053:1112  uint256 public constant INITIAL_TRANCHE = 100_000_000 ether */\n    tag_3:\n      callvalue\n      dup1\n      iszero\n      tag_25\n      jumpi\n      revert(0x00, 0x00)\n    tag_25:\n      pop\n      tag_26\n        /* \"final-contracts/LaborCoinExchangeV4.sol\":1095:1112  100_000_000 ether */\n      0x52b7d2dcc80cd2e4000000\n        /* \"final-contracts/LaborCoinExchangeV4.sol\":1053:1112  uint256 public constant INITIAL_TRANCHE = 100_000_000 ether */\n      dup2\n      jump\n    tag_26:\n      mload(0x40)\n        /* \"#utility.yul\":160:185   */\n      swap1\n      dup2\n      mstore\n        /* \"#utility.yul\":148:150   */\n      0x20\n        /* \"#utility.yul\":133:151   */\n      add\n        /* \"final-contracts/LaborCoinExchangeV4.sol\":1053:1112  uint256 public constant INITIAL_TRANCHE = 100_000_000 ether */\n    tag_28:\n      mload(0x40)\n      dup1\n      swap2\n      sub\n      swap1\n      return\n        /* \"final-contracts/LaborCoinExchangeV4.sol\":1233:1291  uint256 public constant MAX_EXCHANGE_WALLET = 10_000 ether */\n    tag_4:\n      callvalue\n      dup1\n      iszero\n      tag_30\n      jumpi\n      revert(0x00, 0x00)\n    tag_30:\n      pop\n      tag_26\n        /* \"final-contracts/LaborCoinExchangeV4.sol\":1279:1291  10_000 ether */\n      0x021e19e0c9bab2400000\n        /* \"final-contracts/LaborCoinExchangeV4.sol\":1233:1291  uint256 public constant MAX_EXCHANGE_WALLET = 10_000 ether */\n      dup2\n      jump\n        /* \"final-contracts/LaborCoinExchangeV4.sol\":1487:1532  mapping(address => uint256) public lastTxTime */\n    tag_5:\n      callvalue\n      dup1\n      iszero\n      tag_34\n      jumpi\n      revert(0x00, 0x00)\n    tag_34:\n      pop\n      tag_26\n      tag_36\n      calldatasize\n      0x04\n      tag_37\n      jump\t// in\n    tag_36:\n      mstore(0x20, 0x03)\n      0x00\n      swap1\n      dup2\n      mstore\n      0x40\n      swap1\n      keccak256\n      sload\n      dup2\n      jump\n        /* \"final-contracts/LaborCoinExchangeV4.sol\":1298:1351  uint256 public constant MAX_EXCHANGE_TX = 5_000 ether */\n    tag_6:\n      callvalue\n      dup1\n      iszero\n      tag_40\n      jumpi\n      revert(0x00, 0x00)\n    tag_40:\n      pop\n      tag_26\n        /* \"final-contracts/LaborCoinExchangeV4.sol\":1340:1351  5_000 ether */\n      0x010f0cf064dd59200000\n        /* \"final-contracts/LaborCoinExchangeV4.sol\":1298:1351  uint256 public constant MAX_EXCHANGE_TX = 5_000 ether */\n      dup2\n      jump\n        /* \"final-contracts/LaborCoinExchangeV4.sol\":2980:3270  function getPOLPriceUSD() public view returns (uint256) {... */\n    tag_7:\n      callvalue\n      dup1\n      iszero\n      tag_44\n      jumpi\n      revert(0x00, 0x00)\n    tag_44:\n      pop\n      tag_26\n      tag_46\n      jump\t// in\n        /* \"final-contracts/LaborCoinExchangeV4.sol\":990:1046  uint256 public constant MAX_SUPPLY = 1_000_000_000 ether */\n    tag_8:\n      callvalue\n      dup1\n      iszero\n      tag_48\n      jumpi\n      revert(0x00, 0x00)\n    tag_48:\n      pop\n      tag_26\n        /* \"final-contracts/LaborCoinExchangeV4.sol\":1027:1046  1_000_000_000 ether */\n      0x033b2e3c9fd0803ce8000000\n        /* \"final-contracts/LaborCoinExchangeV4.sol\":990:1046  uint256 public constant MAX_SUPPLY = 1_000_000_000 ether */\n      dup2\n      jump\n        /* \"final-contracts/LaborCoinExchangeV4.sol\":821:946  AggregatorV3Interface public immutable priceFeed =... */\n    tag_9:\n      callvalue\n      dup1\n      iszero\n      tag_52\n      jumpi\n      revert(0x00, 0x00)\n    tag_52:\n      pop\n      tag_53\n      immutable(\"0x06a86cedc6cacd68c72b41c10c237851dfed5ce85910507dd1c9be6a7d822d04\")\n      dup2\n      jump\n    tag_53:\n      mload(0x40)\n      sub(shl(0xa0, 0x01), 0x01)\n        /* \"#utility.yul\":680:712   */\n      swap1\n      swap2\n      and\n        /* \"#utility.yul\":662:713   */\n      dup2\n      mstore\n        /* \"#utility.yul\":650:652   */\n      0x20\n        /* \"#utility.yul\":635:653   */\n      add\n        /* \"final-contracts/LaborCoinExchangeV4.sol\":821:946  AggregatorV3Interface public immutable priceFeed =... */\n      tag_28\n        /* \"#utility.yul\":487:719   */\n      jump\n        /* \"final-contracts/LaborCoinExchangeV4.sol\":955:981  address public daoTreasury */\n    tag_10:\n      callvalue\n      dup1\n      iszero\n      tag_57\n      jumpi\n      revert(0x00, 0x00)\n    tag_57:\n      pop\n      sload(0x00)\n      tag_53\n      swap1\n      sub(shl(0xa0, 0x01), 0x01)\n      and\n      dup2\n      jump\n        /* \"final-contracts/LaborCoinExchangeV4.sol\":1418:1442  uint256 public totalSold */\n    tag_11:\n      callvalue\n      dup1\n      iszero\n      tag_62\n      jumpi\n      revert(0x00, 0x00)\n    tag_62:\n      pop\n      tag_26\n      sload(0x01)\n      dup2\n      jump\n        /* \"final-contracts/LaborCoinExchangeV4.sol\":1181:1224  uint256 public constant COOLDOWN = 12 hours */\n    tag_12:\n      callvalue\n      dup1\n      iszero\n      tag_66\n      jumpi\n      revert(0x00, 0x00)\n    tag_66:\n      pop\n      tag_26\n        /* \"final-contracts/LaborCoinExchangeV4.sol\":1216:1224  12 hours */\n      0xa8c0\n        /* \"final-contracts/LaborCoinExchangeV4.sol\":1181:1224  uint256 public constant COOLDOWN = 12 hours */\n      dup2\n      jump\n        /* \"final-contracts/LaborCoinExchangeV4.sol\":784:812  IERC20 public immutable LABR */\n    tag_13:\n      callvalue\n      dup1\n      iszero\n      tag_70\n      jumpi\n      revert(0x00, 0x00)\n    tag_70:\n      pop\n      tag_53\n      immutable(\"0xb440c9986c01395f2aa716b5d1c22f7a6f50e50754b83b93de79b9bd54339a32\")\n      dup2\n      jump\n        /* \"final-contracts/LaborCoinExchangeV4.sol\":1360:1409  uint256 public constant MAX_PRICE_POL = 100 ether */\n    tag_14:\n      callvalue\n      dup1\n      iszero\n      tag_75\n      jumpi\n      revert(0x00, 0x00)\n    tag_75:\n      pop\n      tag_26\n        /* \"final-contracts/LaborCoinExchangeV4.sol\":1400:1409  100 ether */\n      0x056bc75e2d63100000\n        /* \"final-contracts/LaborCoinExchangeV4.sol\":1360:1409  uint256 public constant MAX_PRICE_POL = 100 ether */\n      dup2\n      jump\n        /* \"final-contracts/LaborCoinExchangeV4.sol\":5137:6131  function sell(uint256 amount, uint256 minPOL)... */\n    tag_15:\n      callvalue\n      dup1\n      iszero\n      tag_79\n      jumpi\n      revert(0x00, 0x00)\n    tag_79:\n      pop\n      tag_80\n      tag_81\n      calldatasize\n      0x04\n      tag_82\n      jump\t// in\n    tag_81:\n      tag_83\n      jump\t// in\n    tag_80:\n      stop\n        /* \"final-contracts/LaborCoinExchangeV4.sol\":3884:5089  function buy(uint256 minTokensOut)... */\n    tag_16:\n      tag_80\n      tag_85\n      calldatasize\n      0x04\n      tag_86\n      jump\t// in\n    tag_85:\n      tag_87\n      jump\t// in\n        /* \"final-contracts/LaborCoinExchangeV4.sol\":3319:3837  function getPrice(uint256 sold) public view returns (uint256) {... */\n    tag_17:\n      callvalue\n      dup1\n      iszero\n      tag_88\n      jumpi\n      revert(0x00, 0x00)\n    tag_88:\n      pop\n      tag_26\n      tag_90\n      calldatasize\n      0x04\n      tag_86\n      jump\t// in\n    tag_90:\n      tag_91\n      jump\t// in\n        /* \"final-contracts/LaborCoinExchangeV4.sol\":1119:1174  uint256 public constant TRANCHE_SIZE = 50_000_000 ether */\n    tag_18:\n      callvalue\n      dup1\n      iszero\n      tag_93\n      jumpi\n      revert(0x00, 0x00)\n    tag_93:\n      pop\n      tag_26\n        /* \"final-contracts/LaborCoinExchangeV4.sol\":1158:1174  50_000_000 ether */\n      0x295be96e64066972000000\n        /* \"final-contracts/LaborCoinExchangeV4.sol\":1119:1174  uint256 public constant TRANCHE_SIZE = 50_000_000 ether */\n      dup2\n      jump\n        /* \"final-contracts/LaborCoinExchangeV4.sol\":1449:1478  uint256 public unlockedSupply */\n    tag_19:\n      callvalue\n      dup1\n      iszero\n      tag_97\n      jumpi\n      revert(0x00, 0x00)\n    tag_97:\n      pop\n      tag_26\n      sload(0x02)\n      dup2\n      jump\n        /* \"final-contracts/LaborCoinExchangeV4.sol\":2980:3270  function getPOLPriceUSD() public view returns (uint256) {... */\n    tag_46:\n        /* \"final-contracts/LaborCoinExchangeV4.sol\":3027:3034  uint256 */\n      0x00\n        /* \"final-contracts/LaborCoinExchangeV4.sol\":3050:3062  int256 price */\n      0x00\n        /* \"final-contracts/LaborCoinExchangeV4.sol\":3065:3082  uint256 updatedAt */\n      0x00\n        /* \"final-contracts/LaborCoinExchangeV4.sol\":3087:3096  priceFeed */\n      immutable(\"0x06a86cedc6cacd68c72b41c10c237851dfed5ce85910507dd1c9be6a7d822d04\")\n      sub(shl(0xa0, 0x01), 0x01)\n        /* \"final-contracts/LaborCoinExchangeV4.sol\":3087:3112  priceFeed.latestRoundData */\n      and\n      0xfeaf968c\n        /* \"final-contracts/LaborCoinExchangeV4.sol\":3087:3114  priceFeed.latestRoundData() */\n      mload(0x40)\n      dup2\n      0xffffffff\n      and\n      0xe0\n      shl\n      dup2\n      mstore\n      0x04\n      add\n      0xa0\n      mload(0x40)\n      dup1\n      dup4\n      sub\n      dup2\n      dup7\n      gas\n      staticcall\n      iszero\n      dup1\n      iszero\n      tag_103\n      jumpi\n      returndatacopy(0x00, 0x00, returndatasize)\n      revert(0x00, returndatasize)\n    tag_103:\n      pop\n      pop\n      pop\n      pop\n      mload(0x40)\n      returndatasize\n      not(0x1f)\n      0x1f\n      dup3\n      add\n      and\n      dup3\n      add\n      dup1\n      0x40\n      mstore\n      pop\n      dup2\n      add\n      swap1\n      tag_104\n      swap2\n      swap1\n      tag_105\n      jump\t// in\n    tag_104:\n        /* \"final-contracts/LaborCoinExchangeV4.sol\":3047:3114  (, int256 price,, uint256 updatedAt,) = priceFeed.latestRoundData() */\n      pop\n      swap4\n      pop\n      pop\n      swap3\n      pop\n      pop\n        /* \"final-contracts/LaborCoinExchangeV4.sol\":3143:3144  0 */\n      0x00\n        /* \"final-contracts/LaborCoinExchangeV4.sol\":3135:3140  price */\n      dup3\n        /* \"final-contracts/LaborCoinExchangeV4.sol\":3135:3144  price > 0 */\n      sgt\n        /* \"final-contracts/LaborCoinExchangeV4.sol\":3127:3159  require(price > 0, \"Bad oracle\") */\n      tag_106\n      jumpi\n      mload(0x40)\n      shl(0xe5, 0x461bcd)\n      dup2\n      mstore\n        /* \"#utility.yul\":2698:2700   */\n      0x20\n        /* \"final-contracts/LaborCoinExchangeV4.sol\":3127:3159  require(price > 0, \"Bad oracle\") */\n      0x04\n      dup3\n      add\n        /* \"#utility.yul\":2680:2701   */\n      mstore\n        /* \"#utility.yul\":2737:2739   */\n      0x0a\n        /* \"#utility.yul\":2717:2735   */\n      0x24\n      dup3\n      add\n        /* \"#utility.yul\":2710:2740   */\n      mstore\n      shl(0xb0, 0x426164206f7261636c65)\n        /* \"#utility.yul\":2756:2774   */\n      0x44\n      dup3\n      add\n        /* \"#utility.yul\":2749:2789   */\n      mstore\n        /* \"#utility.yul\":2806:2824   */\n      0x64\n      add\n        /* \"final-contracts/LaborCoinExchangeV4.sol\":3127:3159  require(price > 0, \"Bad oracle\") */\n    tag_107:\n      mload(0x40)\n      dup1\n      swap2\n      sub\n      swap1\n      revert\n    tag_106:\n        /* \"final-contracts/LaborCoinExchangeV4.sol\":3190:3218  block.timestamp - 30 minutes */\n      tag_109\n        /* \"final-contracts/LaborCoinExchangeV4.sol\":3208:3218  30 minutes */\n      0x0708\n        /* \"final-contracts/LaborCoinExchangeV4.sol\":3190:3205  block.timestamp */\n      timestamp\n        /* \"final-contracts/LaborCoinExchangeV4.sol\":3190:3218  block.timestamp - 30 minutes */\n      tag_110\n      jump\t// in\n    tag_109:\n        /* \"final-contracts/LaborCoinExchangeV4.sol\":3178:3187  updatedAt */\n      dup2\n        /* \"final-contracts/LaborCoinExchangeV4.sol\":3178:3218  updatedAt > block.timestamp - 30 minutes */\n      gt\n        /* \"final-contracts/LaborCoinExchangeV4.sol\":3170:3228  require(updatedAt > block.timestamp - 30 minutes, \"Stale\") */\n      tag_111\n      jumpi\n      mload(0x40)\n      shl(0xe5, 0x461bcd)\n      dup2\n      mstore\n        /* \"#utility.yul\":3302:3304   */\n      0x20\n        /* \"final-contracts/LaborCoinExchangeV4.sol\":3170:3228  require(updatedAt > block.timestamp - 30 minutes, \"Stale\") */\n      0x04\n      dup3\n      add\n        /* \"#utility.yul\":3284:3305   */\n      mstore\n        /* \"#utility.yul\":3341:3342   */\n      0x05\n        /* \"#utility.yul\":3321:3339   */\n      0x24\n      dup3\n      add\n        /* \"#utility.yul\":3314:3343   */\n      mstore\n      shl(0xd8, 0x5374616c65)\n        /* \"#utility.yul\":3359:3377   */\n      0x44\n      dup3\n      add\n        /* \"#utility.yul\":3352:3387   */\n      mstore\n        /* \"#utility.yul\":3404:3422   */\n      0x64\n      add\n        /* \"final-contracts/LaborCoinExchangeV4.sol\":3170:3228  require(updatedAt > block.timestamp - 30 minutes, \"Stale\") */\n      tag_107\n        /* \"#utility.yul\":3100:3428   */\n      jump\n        /* \"final-contracts/LaborCoinExchangeV4.sol\":3170:3228  require(updatedAt > block.timestamp - 30 minutes, \"Stale\") */\n    tag_111:\n      pop\n        /* \"final-contracts/LaborCoinExchangeV4.sol\":3256:3261  price */\n      swap2\n        /* \"final-contracts/LaborCoinExchangeV4.sol\":2980:3270  function getPOLPriceUSD() public view returns (uint256) {... */\n      swap1\n      pop\n      jump\t// out\n        /* \"final-contracts/LaborCoinExchangeV4.sol\":5137:6131  function sell(uint256 amount, uint256 minPOL)... */\n    tag_83:\n        /* \"@openzeppelin/contracts/utils/ReentrancyGuard.sol\":3023:3044  _nonReentrantBefore() */\n      tag_115\n        /* \"@openzeppelin/contracts/utils/ReentrancyGuard.sol\":3023:3042  _nonReentrantBefore */\n      tag_116\n        /* \"@openzeppelin/contracts/utils/ReentrancyGuard.sol\":3023:3044  _nonReentrantBefore() */\n      jump\t// in\n    tag_115:\n        /* \"final-contracts/LaborCoinExchangeV4.sol\":2121:2131  msg.sender */\n      caller\n        /* \"final-contracts/LaborCoinExchangeV4.sol\":2110:2132  lastTxTime[msg.sender] */\n      0x00\n      swap1\n      dup2\n      mstore\n        /* \"final-contracts/LaborCoinExchangeV4.sol\":2110:2120  lastTxTime */\n      0x03\n        /* \"final-contracts/LaborCoinExchangeV4.sol\":2110:2132  lastTxTime[msg.sender] */\n      0x20\n      mstore\n      0x40\n      swap1\n      keccak256\n      sload\n        /* \"final-contracts/LaborCoinExchangeV4.sol\":2110:2143  lastTxTime[msg.sender] + COOLDOWN */\n      tag_118\n      swap1\n        /* \"final-contracts/LaborCoinExchangeV4.sol\":1216:1224  12 hours */\n      0xa8c0\n      swap1\n        /* \"final-contracts/LaborCoinExchangeV4.sol\":2110:2143  lastTxTime[msg.sender] + COOLDOWN */\n      tag_119\n      jump\t// in\n    tag_118:\n        /* \"final-contracts/LaborCoinExchangeV4.sol\":2091:2106  block.timestamp */\n      timestamp\n        /* \"final-contracts/LaborCoinExchangeV4.sol\":2091:2143  block.timestamp >= lastTxTime[msg.sender] + COOLDOWN */\n      lt\n      iszero\n        /* \"final-contracts/LaborCoinExchangeV4.sol\":2083:2156  require(block.timestamp >= lastTxTime[msg.sender] + COOLDOWN, \"Cooldown\") */\n      tag_120\n      jumpi\n      mload(0x40)\n      shl(0xe5, 0x461bcd)\n      dup2\n      mstore\n        /* \"#utility.yul\":3765:3767   */\n      0x20\n        /* \"final-contracts/LaborCoinExchangeV4.sol\":2083:2156  require(block.timestamp >= lastTxTime[msg.sender] + COOLDOWN, \"Cooldown\") */\n      0x04\n      dup3\n      add\n        /* \"#utility.yul\":3747:3768   */\n      mstore\n        /* \"#utility.yul\":3804:3805   */\n      0x08\n        /* \"#utility.yul\":3784:3802   */\n      0x24\n      dup3\n      add\n        /* \"#utility.yul\":3777:3806   */\n      mstore\n      shl(0xc1, 0x21b7b7b63237bbb7)\n        /* \"#utility.yul\":3822:3840   */\n      0x44\n      dup3\n      add\n        /* \"#utility.yul\":3815:3853   */\n      mstore\n        /* \"#utility.yul\":3870:3888   */\n      0x64\n      add\n        /* \"final-contracts/LaborCoinExchangeV4.sol\":2083:2156  require(block.timestamp >= lastTxTime[msg.sender] + COOLDOWN, \"Cooldown\") */\n      tag_107\n        /* \"#utility.yul\":3563:3894   */\n      jump\n        /* \"final-contracts/LaborCoinExchangeV4.sol\":2083:2156  require(block.timestamp >= lastTxTime[msg.sender] + COOLDOWN, \"Cooldown\") */\n    tag_120:\n        /* \"final-contracts/LaborCoinExchangeV4.sol\":5279:5280  0 */\n      0x00\n        /* \"final-contracts/LaborCoinExchangeV4.sol\":5270:5276  amount */\n      dup3\n        /* \"final-contracts/LaborCoinExchangeV4.sol\":5270:5280  amount > 0 */\n      gt\n        /* \"final-contracts/LaborCoinExchangeV4.sol\":5262:5281  require(amount > 0) */\n      tag_124\n      jumpi\n      revert(0x00, 0x00)\n    tag_124:\n        /* \"final-contracts/LaborCoinExchangeV4.sol\":5316:5342  LABR.balanceOf(msg.sender) */\n      mload(0x40)\n      shl(0xe0, 0x70a08231)\n      dup2\n      mstore\n        /* \"final-contracts/LaborCoinExchangeV4.sol\":5331:5341  msg.sender */\n      caller\n        /* \"final-contracts/LaborCoinExchangeV4.sol\":5316:5342  LABR.balanceOf(msg.sender) */\n      0x04\n      dup3\n      add\n        /* \"#utility.yul\":662:713   */\n      mstore\n        /* \"final-contracts/LaborCoinExchangeV4.sol\":1279:1291  10_000 ether */\n      0x021e19e0c9bab2400000\n      swap1\n        /* \"final-contracts/LaborCoinExchangeV4.sol\":5316:5320  LABR */\n      immutable(\"0xb440c9986c01395f2aa716b5d1c22f7a6f50e50754b83b93de79b9bd54339a32\")\n      sub(shl(0xa0, 0x01), 0x01)\n        /* \"final-contracts/LaborCoinExchangeV4.sol\":5316:5330  LABR.balanceOf */\n      and\n      swap1\n      0x70a08231\n      swap1\n        /* \"#utility.yul\":635:653   */\n      0x24\n      add\n        /* \"final-contracts/LaborCoinExchangeV4.sol\":5316:5342  LABR.balanceOf(msg.sender) */\n      0x20\n      mload(0x40)\n      dup1\n      dup4\n      sub\n      dup2\n      dup7\n      gas\n      staticcall\n      iszero\n      dup1\n      iszero\n      tag_127\n      jumpi\n      returndatacopy(0x00, 0x00, returndatasize)\n      revert(0x00, returndatasize)\n    tag_127:\n      pop\n      pop\n      pop\n      pop\n      mload(0x40)\n      returndatasize\n      not(0x1f)\n      0x1f\n      dup3\n      add\n      and\n      dup3\n      add\n      dup1\n      0x40\n      mstore\n      pop\n      dup2\n      add\n      swap1\n      tag_128\n      swap2\n      swap1\n      tag_129\n      jump\t// in\n    tag_128:\n        /* \"final-contracts/LaborCoinExchangeV4.sol\":5316:5365  LABR.balanceOf(msg.sender) <= MAX_EXCHANGE_WALLET */\n      gt\n      iszero\n        /* \"final-contracts/LaborCoinExchangeV4.sol\":5294:5413  require(... */\n      tag_130\n      jumpi\n      mload(0x40)\n      shl(0xe5, 0x461bcd)\n      dup2\n      mstore\n        /* \"#utility.yul\":4336:4338   */\n      0x20\n        /* \"final-contracts/LaborCoinExchangeV4.sol\":5294:5413  require(... */\n      0x04\n      dup3\n      add\n        /* \"#utility.yul\":4318:4339   */\n      mstore\n        /* \"#utility.yul\":4375:4377   */\n      0x14\n        /* \"#utility.yul\":4355:4373   */\n      0x24\n      dup3\n      add\n        /* \"#utility.yul\":4348:4378   */\n      mstore\n      shl(0x62, 0x15d85b1b195d08195e18d959591cc81b1a5b5a5d)\n        /* \"#utility.yul\":4394:4412   */\n      0x44\n      dup3\n      add\n        /* \"#utility.yul\":4387:4437   */\n      mstore\n        /* \"#utility.yul\":4454:4472   */\n      0x64\n      add\n        /* \"final-contracts/LaborCoinExchangeV4.sol\":5294:5413  require(... */\n      tag_107\n        /* \"#utility.yul\":4134:4478   */\n      jump\n        /* \"final-contracts/LaborCoinExchangeV4.sol\":5294:5413  require(... */\n    tag_130:\n        /* \"final-contracts/LaborCoinExchangeV4.sol\":1340:1351  5_000 ether */\n      0x010f0cf064dd59200000\n        /* \"final-contracts/LaborCoinExchangeV4.sol\":5434:5440  amount */\n      dup3\n        /* \"final-contracts/LaborCoinExchangeV4.sol\":5434:5459  amount <= MAX_EXCHANGE_TX */\n      gt\n      iszero\n        /* \"final-contracts/LaborCoinExchangeV4.sol\":5426:5480  require(amount <= MAX_EXCHANGE_TX, \"Exceeds tx limit\") */\n      tag_133\n      jumpi\n      mload(0x40)\n      shl(0xe5, 0x461bcd)\n      dup2\n      mstore\n        /* \"#utility.yul\":4685:4687   */\n      0x20\n        /* \"final-contracts/LaborCoinExchangeV4.sol\":5426:5480  require(amount <= MAX_EXCHANGE_TX, \"Exceeds tx limit\") */\n      0x04\n      dup3\n      add\n        /* \"#utility.yul\":4667:4688   */\n      mstore\n        /* \"#utility.yul\":4724:4726   */\n      0x10\n        /* \"#utility.yul\":4704:4722   */\n      0x24\n      dup3\n      add\n        /* \"#utility.yul\":4697:4727   */\n      mstore\n      shl(0x82, 0x115e18d959591cc81d1e081b1a5b5a5d)\n        /* \"#utility.yul\":4743:4761   */\n      0x44\n      dup3\n      add\n        /* \"#utility.yul\":4736:4782   */\n      mstore\n        /* \"#utility.yul\":4799:4817   */\n      0x64\n      add\n        /* \"final-contracts/LaborCoinExchangeV4.sol\":5426:5480  require(amount <= MAX_EXCHANGE_TX, \"Exceeds tx limit\") */\n      tag_107\n        /* \"#utility.yul\":4483:4823   */\n      jump\n        /* \"final-contracts/LaborCoinExchangeV4.sol\":5426:5480  require(amount <= MAX_EXCHANGE_TX, \"Exceeds tx limit\") */\n    tag_133:\n        /* \"final-contracts/LaborCoinExchangeV4.sol\":5511:5520  totalSold */\n      sload(0x01)\n        /* \"final-contracts/LaborCoinExchangeV4.sol\":5501:5507  amount */\n      dup3\n        /* \"final-contracts/LaborCoinExchangeV4.sol\":5501:5520  amount <= totalSold */\n      gt\n      iszero\n        /* \"final-contracts/LaborCoinExchangeV4.sol\":5493:5521  require(amount <= totalSold) */\n      tag_136\n      jumpi\n      revert(0x00, 0x00)\n    tag_136:\n        /* \"final-contracts/LaborCoinExchangeV4.sol\":5534:5547  uint256 price */\n      0x00\n        /* \"final-contracts/LaborCoinExchangeV4.sol\":5550:5569  getPrice(totalSold) */\n      tag_137\n        /* \"final-contracts/LaborCoinExchangeV4.sol\":5559:5568  totalSold */\n      sload(0x01)\n        /* \"final-contracts/LaborCoinExchangeV4.sol\":5550:5558  getPrice */\n      tag_91\n        /* \"final-contracts/LaborCoinExchangeV4.sol\":5550:5569  getPrice(totalSold) */\n      jump\t// in\n    tag_137:\n        /* \"final-contracts/LaborCoinExchangeV4.sol\":5599:5628  LABR.balanceOf(address(this)) */\n      mload(0x40)\n      shl(0xe0, 0x70a08231)\n      dup2\n      mstore\n        /* \"final-contracts/LaborCoinExchangeV4.sol\":5622:5626  this */\n      address\n        /* \"final-contracts/LaborCoinExchangeV4.sol\":5599:5628  LABR.balanceOf(address(this)) */\n      0x04\n      dup3\n      add\n        /* \"#utility.yul\":662:713   */\n      mstore\n        /* \"final-contracts/LaborCoinExchangeV4.sol\":5534:5569  uint256 price = getPrice(totalSold) */\n      swap1\n      swap2\n      pop\n        /* \"final-contracts/LaborCoinExchangeV4.sol\":5582:5596  uint256 before */\n      0x00\n      swap1\n      sub(shl(0xa0, 0x01), 0x01)\n        /* \"final-contracts/LaborCoinExchangeV4.sol\":5599:5603  LABR */\n      immutable(\"0xb440c9986c01395f2aa716b5d1c22f7a6f50e50754b83b93de79b9bd54339a32\")\n        /* \"final-contracts/LaborCoinExchangeV4.sol\":5599:5613  LABR.balanceOf */\n      and\n      swap1\n      0x70a08231\n      swap1\n        /* \"#utility.yul\":635:653   */\n      0x24\n      add\n        /* \"final-contracts/LaborCoinExchangeV4.sol\":5599:5628  LABR.balanceOf(address(this)) */\n      0x20\n      mload(0x40)\n      dup1\n      dup4\n      sub\n      dup2\n      dup7\n      gas\n      staticcall\n      iszero\n      dup1\n      iszero\n      tag_140\n      jumpi\n      returndatacopy(0x00, 0x00, returndatasize)\n      revert(0x00, returndatasize)\n    tag_140:\n      pop\n      pop\n      pop\n      pop\n      mload(0x40)\n      returndatasize\n      not(0x1f)\n      0x1f\n      dup3\n      add\n      and\n      dup3\n      add\n      dup1\n      0x40\n      mstore\n      pop\n      dup2\n      add\n      swap1\n      tag_141\n      swap2\n      swap1\n      tag_129\n      jump\t// in\n    tag_141:\n        /* \"final-contracts/LaborCoinExchangeV4.sol\":5582:5628  uint256 before = LABR.balanceOf(address(this)) */\n      swap1\n      pop\n        /* \"final-contracts/LaborCoinExchangeV4.sol\":5641:5693  _safeTransferFrom(msg.sender, address(this), amount) */\n      tag_142\n        /* \"final-contracts/LaborCoinExchangeV4.sol\":5659:5669  msg.sender */\n      caller\n        /* \"final-contracts/LaborCoinExchangeV4.sol\":5679:5683  this */\n      address\n        /* \"final-contracts/LaborCoinExchangeV4.sol\":5686:5692  amount */\n      dup7\n        /* \"final-contracts/LaborCoinExchangeV4.sol\":5641:5658  _safeTransferFrom */\n      tag_143\n        /* \"final-contracts/LaborCoinExchangeV4.sol\":5641:5693  _safeTransferFrom(msg.sender, address(this), amount) */\n      jump\t// in\n    tag_142:\n        /* \"final-contracts/LaborCoinExchangeV4.sol\":5725:5754  LABR.balanceOf(address(this)) */\n      mload(0x40)\n      shl(0xe0, 0x70a08231)\n      dup2\n      mstore\n        /* \"final-contracts/LaborCoinExchangeV4.sol\":5748:5752  this */\n      address\n        /* \"final-contracts/LaborCoinExchangeV4.sol\":5725:5754  LABR.balanceOf(address(this)) */\n      0x04\n      dup3\n      add\n        /* \"#utility.yul\":662:713   */\n      mstore\n        /* \"final-contracts/LaborCoinExchangeV4.sol\":5706:5722  uint256 received */\n      0x00\n      swap1\n        /* \"final-contracts/LaborCoinExchangeV4.sol\":5757:5763  before */\n      dup3\n      swap1\n      sub(shl(0xa0, 0x01), 0x01)\n        /* \"final-contracts/LaborCoinExchangeV4.sol\":5725:5729  LABR */\n      immutable(\"0xb440c9986c01395f2aa716b5d1c22f7a6f50e50754b83b93de79b9bd54339a32\")\n        /* \"final-contracts/LaborCoinExchangeV4.sol\":5725:5739  LABR.balanceOf */\n      and\n      swap1\n      0x70a08231\n      swap1\n        /* \"#utility.yul\":635:653   */\n      0x24\n      add\n        /* \"final-contracts/LaborCoinExchangeV4.sol\":5725:5754  LABR.balanceOf(address(this)) */\n      0x20\n      mload(0x40)\n      dup1\n      dup4\n      sub\n      dup2\n      dup7\n      gas\n      staticcall\n      iszero\n      dup1\n      iszero\n      tag_146\n      jumpi\n      returndatacopy(0x00, 0x00, returndatasize)\n      revert(0x00, returndatasize)\n    tag_146:\n      pop\n      pop\n      pop\n      pop\n      mload(0x40)\n      returndatasize\n      not(0x1f)\n      0x1f\n      dup3\n      add\n      and\n      dup3\n      add\n      dup1\n      0x40\n      mstore\n      pop\n      dup2\n      add\n      swap1\n      tag_147\n      swap2\n      swap1\n      tag_129\n      jump\t// in\n    tag_147:\n        /* \"final-contracts/LaborCoinExchangeV4.sol\":5725:5763  LABR.balanceOf(address(this)) - before */\n      tag_148\n      swap2\n      swap1\n      tag_110\n      jump\t// in\n    tag_148:\n        /* \"final-contracts/LaborCoinExchangeV4.sol\":5706:5763  uint256 received = LABR.balanceOf(address(this)) - before */\n      swap1\n      pop\n        /* \"final-contracts/LaborCoinExchangeV4.sol\":5797:5805  received */\n      dup1\n        /* \"final-contracts/LaborCoinExchangeV4.sol\":5784:5793  totalSold */\n      sload(0x01)\n        /* \"final-contracts/LaborCoinExchangeV4.sol\":5784:5805  totalSold >= received */\n      lt\n      iszero\n        /* \"final-contracts/LaborCoinExchangeV4.sol\":5776:5806  require(totalSold >= received) */\n      tag_149\n      jumpi\n      revert(0x00, 0x00)\n    tag_149:\n        /* \"final-contracts/LaborCoinExchangeV4.sol\":5819:5833  uint256 payout */\n      0x00\n        /* \"final-contracts/LaborCoinExchangeV4.sol\":5857:5861  1e18 */\n      0x0de0b6b3a7640000\n        /* \"final-contracts/LaborCoinExchangeV4.sol\":5837:5853  received * price */\n      tag_150\n        /* \"final-contracts/LaborCoinExchangeV4.sol\":5848:5853  price */\n      dup6\n        /* \"final-contracts/LaborCoinExchangeV4.sol\":5837:5845  received */\n      dup5\n        /* \"final-contracts/LaborCoinExchangeV4.sol\":5837:5853  received * price */\n      tag_151\n      jump\t// in\n    tag_150:\n        /* \"final-contracts/LaborCoinExchangeV4.sol\":5836:5861  (received * price) / 1e18 */\n      tag_152\n      swap2\n      swap1\n      tag_153\n      jump\t// in\n    tag_152:\n        /* \"final-contracts/LaborCoinExchangeV4.sol\":5819:5861  uint256 payout = (received * price) / 1e18 */\n      swap1\n      pop\n        /* \"final-contracts/LaborCoinExchangeV4.sol\":5892:5898  minPOL */\n      dup5\n        /* \"final-contracts/LaborCoinExchangeV4.sol\":5882:5888  payout */\n      dup2\n        /* \"final-contracts/LaborCoinExchangeV4.sol\":5882:5898  payout >= minPOL */\n      lt\n      iszero\n        /* \"final-contracts/LaborCoinExchangeV4.sol\":5874:5899  require(payout >= minPOL) */\n      tag_154\n      jumpi\n      revert(0x00, 0x00)\n    tag_154:\n        /* \"final-contracts/LaborCoinExchangeV4.sol\":5943:5949  payout */\n      dup1\n        /* \"final-contracts/LaborCoinExchangeV4.sol\":5918:5939  address(this).balance */\n      selfbalance\n        /* \"final-contracts/LaborCoinExchangeV4.sol\":5918:5949  address(this).balance >= payout */\n      lt\n      iszero\n        /* \"final-contracts/LaborCoinExchangeV4.sol\":5910:5950  require(address(this).balance >= payout) */\n      tag_155\n      jumpi\n      revert(0x00, 0x00)\n    tag_155:\n        /* \"final-contracts/LaborCoinExchangeV4.sol\":5976:5984  received */\n      dup2\n        /* \"final-contracts/LaborCoinExchangeV4.sol\":5963:5972  totalSold */\n      0x01\n      0x00\n        /* \"final-contracts/LaborCoinExchangeV4.sol\":5963:5984  totalSold -= received */\n      dup3\n      dup3\n      sload\n      tag_156\n      swap2\n      swap1\n      tag_110\n      jump\t// in\n    tag_156:\n      swap1\n      swap2\n      sstore\n      pop\n      pop\n        /* \"final-contracts/LaborCoinExchangeV4.sol\":6013:6047  msg.sender.call{value: payout}(\"\") */\n      mload(0x40)\n        /* \"final-contracts/LaborCoinExchangeV4.sol\":5998:6007  bool sent */\n      0x00\n      swap1\n        /* \"final-contracts/LaborCoinExchangeV4.sol\":6013:6023  msg.sender */\n      caller\n      swap1\n        /* \"final-contracts/LaborCoinExchangeV4.sol\":6036:6042  payout */\n      dup4\n      swap1\n        /* \"final-contracts/LaborCoinExchangeV4.sol\":5998:6007  bool sent */\n      dup4\n        /* \"final-contracts/LaborCoinExchangeV4.sol\":6013:6047  msg.sender.call{value: payout}(\"\") */\n      dup2\n        /* \"final-contracts/LaborCoinExchangeV4.sol\":5998:6007  bool sent */\n      dup2\n        /* \"final-contracts/LaborCoinExchangeV4.sol\":6013:6047  msg.sender.call{value: payout}(\"\") */\n      dup2\n        /* \"final-contracts/LaborCoinExchangeV4.sol\":6036:6042  payout */\n      dup6\n        /* \"final-contracts/LaborCoinExchangeV4.sol\":6013:6023  msg.sender */\n      dup8\n        /* \"final-contracts/LaborCoinExchangeV4.sol\":6013:6047  msg.sender.call{value: payout}(\"\") */\n      gas\n      call\n      swap3\n      pop\n      pop\n      pop\n      returndatasize\n      dup1\n      0x00\n      dup2\n      eq\n      tag_161\n      jumpi\n      mload(0x40)\n      swap2\n      pop\n      and(add(returndatasize, 0x3f), not(0x1f))\n      dup3\n      add\n      0x40\n      mstore\n      returndatasize\n      dup3\n      mstore\n      returndatasize\n      0x00\n      0x20\n      dup5\n      add\n      returndatacopy\n      jump(tag_160)\n    tag_161:\n      0x60\n      swap2\n      pop\n    tag_160:\n      pop\n        /* \"final-contracts/LaborCoinExchangeV4.sol\":5997:6047  (bool sent, ) = msg.sender.call{value: payout}(\"\") */\n      pop\n      swap1\n      pop\n        /* \"final-contracts/LaborCoinExchangeV4.sol\":6066:6070  sent */\n      dup1\n        /* \"final-contracts/LaborCoinExchangeV4.sol\":6058:6071  require(sent) */\n      tag_162\n      jumpi\n      revert(0x00, 0x00)\n    tag_162:\n        /* \"final-contracts/LaborCoinExchangeV4.sol\":6089:6123  Sell(msg.sender, received, payout) */\n      0x40\n      dup1\n      mload\n        /* \"#utility.yul\":5607:5632   */\n      dup5\n      dup2\n      mstore\n        /* \"#utility.yul\":5663:5665   */\n      0x20\n        /* \"#utility.yul\":5648:5666   */\n      dup2\n      add\n        /* \"#utility.yul\":5641:5675   */\n      dup5\n      swap1\n      mstore\n        /* \"final-contracts/LaborCoinExchangeV4.sol\":6094:6104  msg.sender */\n      caller\n      swap2\n        /* \"final-contracts/LaborCoinExchangeV4.sol\":6089:6123  Sell(msg.sender, received, payout) */\n      0xed7a144fad14804d5c249145e3e0e2b63a9eb455b76aee5bc92d711e9bba3e4a\n      swap2\n        /* \"#utility.yul\":5580:5598   */\n      add\n        /* \"final-contracts/LaborCoinExchangeV4.sol\":6089:6123  Sell(msg.sender, received, payout) */\n      mload(0x40)\n      dup1\n      swap2\n      sub\n      swap1\n      log2\n      pop\n      pop\n        /* \"final-contracts/LaborCoinExchangeV4.sol\":2190:2200  msg.sender */\n      caller\n        /* \"final-contracts/LaborCoinExchangeV4.sol\":2179:2201  lastTxTime[msg.sender] */\n      0x00\n      swap1\n      dup2\n      mstore\n        /* \"final-contracts/LaborCoinExchangeV4.sol\":2179:2189  lastTxTime */\n      0x03\n        /* \"final-contracts/LaborCoinExchangeV4.sol\":2179:2201  lastTxTime[msg.sender] */\n      0x20\n      mstore\n      0x40\n      swap1\n      keccak256\n        /* \"final-contracts/LaborCoinExchangeV4.sol\":2204:2219  block.timestamp */\n      timestamp\n        /* \"final-contracts/LaborCoinExchangeV4.sol\":2179:2219  lastTxTime[msg.sender] = block.timestamp */\n      swap1\n      sstore\n      pop\n        /* \"@openzeppelin/contracts/utils/ReentrancyGuard.sol\":3065:3085  _nonReentrantAfter() */\n      tag_165\n      swap2\n      pop\n        /* \"@openzeppelin/contracts/utils/ReentrancyGuard.sol\":3065:3083  _nonReentrantAfter */\n      tag_166\n      swap1\n      pop\n        /* \"@openzeppelin/contracts/utils/ReentrancyGuard.sol\":3065:3085  _nonReentrantAfter() */\n      jump\t// in\n    tag_165:\n        /* \"final-contracts/LaborCoinExchangeV4.sol\":5137:6131  function sell(uint256 amount, uint256 minPOL)... */\n      pop\n      pop\n      jump\t// out\n        /* \"final-contracts/LaborCoinExchangeV4.sol\":3884:5089  function buy(uint256 minTokensOut)... */\n    tag_87:\n        /* \"@openzeppelin/contracts/utils/ReentrancyGuard.sol\":3023:3044  _nonReentrantBefore() */\n      tag_168\n        /* \"@openzeppelin/contracts/utils/ReentrancyGuard.sol\":3023:3042  _nonReentrantBefore */\n      tag_116\n        /* \"@openzeppelin/contracts/utils/ReentrancyGuard.sol\":3023:3044  _nonReentrantBefore() */\n      jump\t// in\n    tag_168:\n        /* \"final-contracts/LaborCoinExchangeV4.sol\":2121:2131  msg.sender */\n      caller\n        /* \"final-contracts/LaborCoinExchangeV4.sol\":2110:2132  lastTxTime[msg.sender] */\n      0x00\n      swap1\n      dup2\n      mstore\n        /* \"final-contracts/LaborCoinExchangeV4.sol\":2110:2120  lastTxTime */\n      0x03\n        /* \"final-contracts/LaborCoinExchangeV4.sol\":2110:2132  lastTxTime[msg.sender] */\n      0x20\n      mstore\n      0x40\n      swap1\n      keccak256\n      sload\n        /* \"final-contracts/LaborCoinExchangeV4.sol\":2110:2143  lastTxTime[msg.sender] + COOLDOWN */\n      tag_170\n      swap1\n        /* \"final-contracts/LaborCoinExchangeV4.sol\":1216:1224  12 hours */\n      0xa8c0\n      swap1\n        /* \"final-contracts/LaborCoinExchangeV4.sol\":2110:2143  lastTxTime[msg.sender] + COOLDOWN */\n      tag_119\n      jump\t// in\n    tag_170:\n        /* \"final-contracts/LaborCoinExchangeV4.sol\":2091:2106  block.timestamp */\n      timestamp\n        /* \"final-contracts/LaborCoinExchangeV4.sol\":2091:2143  block.timestamp >= lastTxTime[msg.sender] + COOLDOWN */\n      lt\n      iszero\n        /* \"final-contracts/LaborCoinExchangeV4.sol\":2083:2156  require(block.timestamp >= lastTxTime[msg.sender] + COOLDOWN, \"Cooldown\") */\n      tag_171\n      jumpi\n      mload(0x40)\n      shl(0xe5, 0x461bcd)\n      dup2\n      mstore\n        /* \"#utility.yul\":3765:3767   */\n      0x20\n        /* \"final-contracts/LaborCoinExchangeV4.sol\":2083:2156  require(block.timestamp >= lastTxTime[msg.sender] + COOLDOWN, \"Cooldown\") */\n      0x04\n      dup3\n      add\n        /* \"#utility.yul\":3747:3768   */\n      mstore\n        /* \"#utility.yul\":3804:3805   */\n      0x08\n        /* \"#utility.yul\":3784:3802   */\n      0x24\n      dup3\n      add\n        /* \"#utility.yul\":3777:3806   */\n      mstore\n      shl(0xc1, 0x21b7b7b63237bbb7)\n        /* \"#utility.yul\":3822:3840   */\n      0x44\n      dup3\n      add\n        /* \"#utility.yul\":3815:3853   */\n      mstore\n        /* \"#utility.yul\":3870:3888   */\n      0x64\n      add\n        /* \"final-contracts/LaborCoinExchangeV4.sol\":2083:2156  require(block.timestamp >= lastTxTime[msg.sender] + COOLDOWN, \"Cooldown\") */\n      tag_107\n        /* \"#utility.yul\":3563:3894   */\n      jump\n        /* \"final-contracts/LaborCoinExchangeV4.sol\":2083:2156  require(block.timestamp >= lastTxTime[msg.sender] + COOLDOWN, \"Cooldown\") */\n    tag_171:\n        /* \"final-contracts/LaborCoinExchangeV4.sol\":4035:4036  0 */\n      0x00\n        /* \"final-contracts/LaborCoinExchangeV4.sol\":4023:4032  msg.value */\n      callvalue\n        /* \"final-contracts/LaborCoinExchangeV4.sol\":4023:4036  msg.value > 0 */\n      gt\n        /* \"final-contracts/LaborCoinExchangeV4.sol\":4015:4037  require(msg.value > 0) */\n      tag_174\n      jumpi\n      revert(0x00, 0x00)\n    tag_174:\n        /* \"final-contracts/LaborCoinExchangeV4.sol\":4050:4063  uint256 price */\n      0x00\n        /* \"final-contracts/LaborCoinExchangeV4.sol\":4066:4085  getPrice(totalSold) */\n      tag_175\n        /* \"final-contracts/LaborCoinExchangeV4.sol\":4075:4084  totalSold */\n      sload(0x01)\n        /* \"final-contracts/LaborCoinExchangeV4.sol\":4066:4074  getPrice */\n      tag_91\n        /* \"final-contracts/LaborCoinExchangeV4.sol\":4066:4085  getPrice(totalSold) */\n      jump\t// in\n    tag_175:\n        /* \"final-contracts/LaborCoinExchangeV4.sol\":4050:4085  uint256 price = getPrice(totalSold) */\n      swap1\n      pop\n        /* \"final-contracts/LaborCoinExchangeV4.sol\":4096:4112  uint256 expected */\n      0x00\n        /* \"final-contracts/LaborCoinExchangeV4.sol\":4050:4085  uint256 price = getPrice(totalSold) */\n      dup2\n        /* \"final-contracts/LaborCoinExchangeV4.sol\":4116:4132  msg.value * 1e18 */\n      tag_176\n        /* \"final-contracts/LaborCoinExchangeV4.sol\":4116:4125  msg.value */\n      callvalue\n        /* \"final-contracts/LaborCoinExchangeV4.sol\":4128:4132  1e18 */\n      0x0de0b6b3a7640000\n        /* \"final-contracts/LaborCoinExchangeV4.sol\":4116:4132  msg.value * 1e18 */\n      tag_151\n      jump\t// in\n    tag_176:\n        /* \"final-contracts/LaborCoinExchangeV4.sol\":4115:4141  (msg.value * 1e18) / price */\n      tag_177\n      swap2\n      swap1\n      tag_153\n      jump\t// in\n    tag_177:\n        /* \"final-contracts/LaborCoinExchangeV4.sol\":4096:4141  uint256 expected = (msg.value * 1e18) / price */\n      swap1\n      pop\n        /* \"final-contracts/LaborCoinExchangeV4.sol\":1340:1351  5_000 ether */\n      0x010f0cf064dd59200000\n        /* \"final-contracts/LaborCoinExchangeV4.sol\":4162:4170  expected */\n      dup2\n        /* \"final-contracts/LaborCoinExchangeV4.sol\":4162:4189  expected <= MAX_EXCHANGE_TX */\n      gt\n      iszero\n        /* \"final-contracts/LaborCoinExchangeV4.sol\":4154:4210  require(expected <= MAX_EXCHANGE_TX, \"Exceeds tx limit\") */\n      tag_178\n      jumpi\n      mload(0x40)\n      shl(0xe5, 0x461bcd)\n      dup2\n      mstore\n        /* \"#utility.yul\":4685:4687   */\n      0x20\n        /* \"final-contracts/LaborCoinExchangeV4.sol\":4154:4210  require(expected <= MAX_EXCHANGE_TX, \"Exceeds tx limit\") */\n      0x04\n      dup3\n      add\n        /* \"#utility.yul\":4667:4688   */\n      mstore\n        /* \"#utility.yul\":4724:4726   */\n      0x10\n        /* \"#utility.yul\":4704:4722   */\n      0x24\n      dup3\n      add\n        /* \"#utility.yul\":4697:4727   */\n      mstore\n      shl(0x82, 0x115e18d959591cc81d1e081b1a5b5a5d)\n        /* \"#utility.yul\":4743:4761   */\n      0x44\n      dup3\n      add\n        /* \"#utility.yul\":4736:4782   */\n      mstore\n        /* \"#utility.yul\":4799:4817   */\n      0x64\n      add\n        /* \"final-contracts/LaborCoinExchangeV4.sol\":4154:4210  require(expected <= MAX_EXCHANGE_TX, \"Exceeds tx limit\") */\n      tag_107\n        /* \"#utility.yul\":4483:4823   */\n      jump\n        /* \"final-contracts/LaborCoinExchangeV4.sol\":4154:4210  require(expected <= MAX_EXCHANGE_TX, \"Exceeds tx limit\") */\n    tag_178:\n        /* \"final-contracts/LaborCoinExchangeV4.sol\":4245:4271  LABR.balanceOf(msg.sender) */\n      mload(0x40)\n      shl(0xe0, 0x70a08231)\n      dup2\n      mstore\n        /* \"final-contracts/LaborCoinExchangeV4.sol\":4260:4270  msg.sender */\n      caller\n        /* \"final-contracts/LaborCoinExchangeV4.sol\":4245:4271  LABR.balanceOf(msg.sender) */\n      0x04\n      dup3\n      add\n        /* \"#utility.yul\":662:713   */\n      mstore\n        /* \"final-contracts/LaborCoinExchangeV4.sol\":1279:1291  10_000 ether */\n      0x021e19e0c9bab2400000\n      swap1\n        /* \"final-contracts/LaborCoinExchangeV4.sol\":4274:4282  expected */\n      dup3\n      swap1\n      sub(shl(0xa0, 0x01), 0x01)\n        /* \"final-contracts/LaborCoinExchangeV4.sol\":4245:4249  LABR */\n      immutable(\"0xb440c9986c01395f2aa716b5d1c22f7a6f50e50754b83b93de79b9bd54339a32\")\n        /* \"final-contracts/LaborCoinExchangeV4.sol\":4245:4259  LABR.balanceOf */\n      and\n      swap1\n      0x70a08231\n      swap1\n        /* \"#utility.yul\":635:653   */\n      0x24\n      add\n        /* \"final-contracts/LaborCoinExchangeV4.sol\":4245:4271  LABR.balanceOf(msg.sender) */\n      0x20\n      mload(0x40)\n      dup1\n      dup4\n      sub\n      dup2\n      dup7\n      gas\n      staticcall\n      iszero\n      dup1\n      iszero\n      tag_182\n      jumpi\n      returndatacopy(0x00, 0x00, returndatasize)\n      revert(0x00, returndatasize)\n    tag_182:\n      pop\n      pop\n      pop\n      pop\n      mload(0x40)\n      returndatasize\n      not(0x1f)\n      0x1f\n      dup3\n      add\n      and\n      dup3\n      add\n      dup1\n      0x40\n      mstore\n      pop\n      dup2\n      add\n      swap1\n      tag_183\n      swap2\n      swap1\n      tag_129\n      jump\t// in\n    tag_183:\n        /* \"final-contracts/LaborCoinExchangeV4.sol\":4245:4282  LABR.balanceOf(msg.sender) + expected */\n      tag_184\n      swap2\n      swap1\n      tag_119\n      jump\t// in\n    tag_184:\n        /* \"final-contracts/LaborCoinExchangeV4.sol\":4245:4305  LABR.balanceOf(msg.sender) + expected <= MAX_EXCHANGE_WALLET */\n      gt\n      iszero\n        /* \"final-contracts/LaborCoinExchangeV4.sol\":4223:4353  require(... */\n      tag_185\n      jumpi\n      mload(0x40)\n      shl(0xe5, 0x461bcd)\n      dup2\n      mstore\n        /* \"#utility.yul\":5888:5890   */\n      0x20\n        /* \"final-contracts/LaborCoinExchangeV4.sol\":4223:4353  require(... */\n      0x04\n      dup3\n      add\n        /* \"#utility.yul\":5870:5891   */\n      mstore\n        /* \"#utility.yul\":5927:5929   */\n      0x14\n        /* \"#utility.yul\":5907:5925   */\n      0x24\n      dup3\n      add\n        /* \"#utility.yul\":5900:5930   */\n      mstore\n      shl(0x62, 0x115e18d959591cc81dd85b1b195d081b1a5b5a5d)\n        /* \"#utility.yul\":5946:5964   */\n      0x44\n      dup3\n      add\n        /* \"#utility.yul\":5939:5989   */\n      mstore\n        /* \"#utility.yul\":6006:6024   */\n      0x64\n      add\n        /* \"final-contracts/LaborCoinExchangeV4.sol\":4223:4353  require(... */\n      tag_107\n        /* \"#utility.yul\":5686:6030   */\n      jump\n        /* \"final-contracts/LaborCoinExchangeV4.sol\":4223:4353  require(... */\n    tag_185:\n        /* \"final-contracts/LaborCoinExchangeV4.sol\":4398:4412  unlockedSupply */\n      sload(0x02)\n        /* \"final-contracts/LaborCoinExchangeV4.sol\":4386:4394  expected */\n      dup2\n        /* \"final-contracts/LaborCoinExchangeV4.sol\":4374:4383  totalSold */\n      sload(0x01)\n        /* \"final-contracts/LaborCoinExchangeV4.sol\":4374:4394  totalSold + expected */\n      tag_188\n      swap2\n      swap1\n      tag_119\n      jump\t// in\n    tag_188:\n        /* \"final-contracts/LaborCoinExchangeV4.sol\":4374:4412  totalSold + expected <= unlockedSupply */\n      gt\n      iszero\n        /* \"final-contracts/LaborCoinExchangeV4.sol\":4366:4413  require(totalSold + expected <= unlockedSupply) */\n      tag_189\n      jumpi\n      revert(0x00, 0x00)\n    tag_189:\n        /* \"final-contracts/LaborCoinExchangeV4.sol\":4432:4461  LABR.balanceOf(address(this)) */\n      mload(0x40)\n      shl(0xe0, 0x70a08231)\n      dup2\n      mstore\n        /* \"final-contracts/LaborCoinExchangeV4.sol\":4455:4459  this */\n      address\n        /* \"final-contracts/LaborCoinExchangeV4.sol\":4432:4461  LABR.balanceOf(address(this)) */\n      0x04\n      dup3\n      add\n        /* \"#utility.yul\":662:713   */\n      mstore\n        /* \"final-contracts/LaborCoinExchangeV4.sol\":4465:4473  expected */\n      dup2\n      swap1\n        /* \"final-contracts/LaborCoinExchangeV4.sol\":4432:4436  LABR */\n      immutable(\"0xb440c9986c01395f2aa716b5d1c22f7a6f50e50754b83b93de79b9bd54339a32\")\n      sub(shl(0xa0, 0x01), 0x01)\n        /* \"final-contracts/LaborCoinExchangeV4.sol\":4432:4446  LABR.balanceOf */\n      and\n      swap1\n      0x70a08231\n      swap1\n        /* \"#utility.yul\":635:653   */\n      0x24\n      add\n        /* \"final-contracts/LaborCoinExchangeV4.sol\":4432:4461  LABR.balanceOf(address(this)) */\n      0x20\n      mload(0x40)\n      dup1\n      dup4\n      sub\n      dup2\n      dup7\n      gas\n      staticcall\n      iszero\n      dup1\n      iszero\n      tag_192\n      jumpi\n      returndatacopy(0x00, 0x00, returndatasize)\n      revert(0x00, returndatasize)\n    tag_192:\n      pop\n      pop\n      pop\n      pop\n      mload(0x40)\n      returndatasize\n      not(0x1f)\n      0x1f\n      dup3\n      add\n      and\n      dup3\n      add\n      dup1\n      0x40\n      mstore\n      pop\n      dup2\n      add\n      swap1\n      tag_193\n      swap2\n      swap1\n      tag_129\n      jump\t// in\n    tag_193:\n        /* \"final-contracts/LaborCoinExchangeV4.sol\":4432:4473  LABR.balanceOf(address(this)) >= expected */\n      lt\n      iszero\n        /* \"final-contracts/LaborCoinExchangeV4.sol\":4424:4474  require(LABR.balanceOf(address(this)) >= expected) */\n      tag_194\n      jumpi\n      revert(0x00, 0x00)\n    tag_194:\n        /* \"final-contracts/LaborCoinExchangeV4.sol\":4504:4530  LABR.balanceOf(msg.sender) */\n      mload(0x40)\n      shl(0xe0, 0x70a08231)\n      dup2\n      mstore\n        /* \"final-contracts/LaborCoinExchangeV4.sol\":4519:4529  msg.sender */\n      caller\n        /* \"final-contracts/LaborCoinExchangeV4.sol\":4504:4530  LABR.balanceOf(msg.sender) */\n      0x04\n      dup3\n      add\n        /* \"#utility.yul\":662:713   */\n      mstore\n        /* \"final-contracts/LaborCoinExchangeV4.sol\":4487:4501  uint256 before */\n      0x00\n      swap1\n        /* \"final-contracts/LaborCoinExchangeV4.sol\":4504:4508  LABR */\n      immutable(\"0xb440c9986c01395f2aa716b5d1c22f7a6f50e50754b83b93de79b9bd54339a32\")\n      sub(shl(0xa0, 0x01), 0x01)\n        /* \"final-contracts/LaborCoinExchangeV4.sol\":4504:4518  LABR.balanceOf */\n      and\n      swap1\n      0x70a08231\n      swap1\n        /* \"#utility.yul\":635:653   */\n      0x24\n      add\n        /* \"final-contracts/LaborCoinExchangeV4.sol\":4504:4530  LABR.balanceOf(msg.sender) */\n      0x20\n      mload(0x40)\n      dup1\n      dup4\n      sub\n      dup2\n      dup7\n      gas\n      staticcall\n      iszero\n      dup1\n      iszero\n      tag_197\n      jumpi\n      returndatacopy(0x00, 0x00, returndatasize)\n      revert(0x00, returndatasize)\n    tag_197:\n      pop\n      pop\n      pop\n      pop\n      mload(0x40)\n      returndatasize\n      not(0x1f)\n      0x1f\n      dup3\n      add\n      and\n      dup3\n      add\n      dup1\n      0x40\n      mstore\n      pop\n      dup2\n      add\n      swap1\n      tag_198\n      swap2\n      swap1\n      tag_129\n      jump\t// in\n    tag_198:\n        /* \"final-contracts/LaborCoinExchangeV4.sol\":4487:4530  uint256 before = LABR.balanceOf(msg.sender) */\n      swap1\n      pop\n        /* \"final-contracts/LaborCoinExchangeV4.sol\":4543:4578  _safeTransfer(msg.sender, expected) */\n      tag_199\n        /* \"final-contracts/LaborCoinExchangeV4.sol\":4557:4567  msg.sender */\n      caller\n        /* \"final-contracts/LaborCoinExchangeV4.sol\":4569:4577  expected */\n      dup4\n        /* \"final-contracts/LaborCoinExchangeV4.sol\":4543:4556  _safeTransfer */\n      tag_200\n        /* \"final-contracts/LaborCoinExchangeV4.sol\":4543:4578  _safeTransfer(msg.sender, expected) */\n      jump\t// in\n    tag_199:\n        /* \"final-contracts/LaborCoinExchangeV4.sol\":4610:4636  LABR.balanceOf(msg.sender) */\n      mload(0x40)\n      shl(0xe0, 0x70a08231)\n      dup2\n      mstore\n        /* \"final-contracts/LaborCoinExchangeV4.sol\":4625:4635  msg.sender */\n      caller\n        /* \"final-contracts/LaborCoinExchangeV4.sol\":4610:4636  LABR.balanceOf(msg.sender) */\n      0x04\n      dup3\n      add\n        /* \"#utility.yul\":662:713   */\n      mstore\n        /* \"final-contracts/LaborCoinExchangeV4.sol\":4591:4607  uint256 received */\n      0x00\n      swap1\n        /* \"final-contracts/LaborCoinExchangeV4.sol\":4639:4645  before */\n      dup3\n      swap1\n      sub(shl(0xa0, 0x01), 0x01)\n        /* \"final-contracts/LaborCoinExchangeV4.sol\":4610:4614  LABR */\n      immutable(\"0xb440c9986c01395f2aa716b5d1c22f7a6f50e50754b83b93de79b9bd54339a32\")\n        /* \"final-contracts/LaborCoinExchangeV4.sol\":4610:4624  LABR.balanceOf */\n      and\n      swap1\n      0x70a08231\n      swap1\n        /* \"#utility.yul\":635:653   */\n      0x24\n      add\n        /* \"final-contracts/LaborCoinExchangeV4.sol\":4610:4636  LABR.balanceOf(msg.sender) */\n      0x20\n      mload(0x40)\n      dup1\n      dup4\n      sub\n      dup2\n      dup7\n      gas\n      staticcall\n      iszero\n      dup1\n      iszero\n      tag_203\n      jumpi\n      returndatacopy(0x00, 0x00, returndatasize)\n      revert(0x00, returndatasize)\n    tag_203:\n      pop\n      pop\n      pop\n      pop\n      mload(0x40)\n      returndatasize\n      not(0x1f)\n      0x1f\n      dup3\n      add\n      and\n      dup3\n      add\n      dup1\n      0x40\n      mstore\n      pop\n      dup2\n      add\n      swap1\n      tag_204\n      swap2\n      swap1\n      tag_129\n      jump\t// in\n    tag_204:\n        /* \"final-contracts/LaborCoinExchangeV4.sol\":4610:4645  LABR.balanceOf(msg.sender) - before */\n      tag_205\n      swap2\n      swap1\n      tag_110\n      jump\t// in\n    tag_205:\n        /* \"final-contracts/LaborCoinExchangeV4.sol\":4591:4645  uint256 received = LABR.balanceOf(msg.sender) - before */\n      swap1\n      pop\n        /* \"final-contracts/LaborCoinExchangeV4.sol\":4678:4690  minTokensOut */\n      dup5\n        /* \"final-contracts/LaborCoinExchangeV4.sol\":4666:4674  received */\n      dup2\n        /* \"final-contracts/LaborCoinExchangeV4.sol\":4666:4690  received >= minTokensOut */\n      lt\n      iszero\n        /* \"final-contracts/LaborCoinExchangeV4.sol\":4658:4691  require(received >= minTokensOut) */\n      tag_206\n      jumpi\n      revert(0x00, 0x00)\n    tag_206:\n        /* \"final-contracts/LaborCoinExchangeV4.sol\":4726:4752  LABR.balanceOf(msg.sender) */\n      mload(0x40)\n      shl(0xe0, 0x70a08231)\n      dup2\n      mstore\n        /* \"final-contracts/LaborCoinExchangeV4.sol\":4741:4751  msg.sender */\n      caller\n        /* \"final-contracts/LaborCoinExchangeV4.sol\":4726:4752  LABR.balanceOf(msg.sender) */\n      0x04\n      dup3\n      add\n        /* \"#utility.yul\":662:713   */\n      mstore\n        /* \"final-contracts/LaborCoinExchangeV4.sol\":1279:1291  10_000 ether */\n      0x021e19e0c9bab2400000\n      swap1\n        /* \"final-contracts/LaborCoinExchangeV4.sol\":4726:4730  LABR */\n      immutable(\"0xb440c9986c01395f2aa716b5d1c22f7a6f50e50754b83b93de79b9bd54339a32\")\n      sub(shl(0xa0, 0x01), 0x01)\n        /* \"final-contracts/LaborCoinExchangeV4.sol\":4726:4740  LABR.balanceOf */\n      and\n      swap1\n      0x70a08231\n      swap1\n        /* \"#utility.yul\":635:653   */\n      0x24\n      add\n        /* \"final-contracts/LaborCoinExchangeV4.sol\":4726:4752  LABR.balanceOf(msg.sender) */\n      0x20\n      mload(0x40)\n      dup1\n      dup4\n      sub\n      dup2\n      dup7\n      gas\n      staticcall\n      iszero\n      dup1\n      iszero\n      tag_209\n      jumpi\n      returndatacopy(0x00, 0x00, returndatasize)\n      revert(0x00, returndatasize)\n    tag_209:\n      pop\n      pop\n      pop\n      pop\n      mload(0x40)\n      returndatasize\n      not(0x1f)\n      0x1f\n      dup3\n      add\n      and\n      dup3\n      add\n      dup1\n      0x40\n      mstore\n      pop\n      dup2\n      add\n      swap1\n      tag_210\n      swap2\n      swap1\n      tag_129\n      jump\t// in\n    tag_210:\n        /* \"final-contracts/LaborCoinExchangeV4.sol\":4726:4775  LABR.balanceOf(msg.sender) <= MAX_EXCHANGE_WALLET */\n      gt\n      iszero\n        /* \"final-contracts/LaborCoinExchangeV4.sol\":4704:4823  require(... */\n      tag_211\n      jumpi\n      mload(0x40)\n      shl(0xe5, 0x461bcd)\n      dup2\n      mstore\n        /* \"#utility.yul\":5888:5890   */\n      0x20\n        /* \"final-contracts/LaborCoinExchangeV4.sol\":4704:4823  require(... */\n      0x04\n      dup3\n      add\n        /* \"#utility.yul\":5870:5891   */\n      mstore\n        /* \"#utility.yul\":5927:5929   */\n      0x14\n        /* \"#utility.yul\":5907:5925   */\n      0x24\n      dup3\n      add\n        /* \"#utility.yul\":5900:5930   */\n      mstore\n      shl(0x62, 0x115e18d959591cc81dd85b1b195d081b1a5b5a5d)\n        /* \"#utility.yul\":5946:5964   */\n      0x44\n      dup3\n      add\n        /* \"#utility.yul\":5939:5989   */\n      mstore\n        /* \"#utility.yul\":6006:6024   */\n      0x64\n      add\n        /* \"final-contracts/LaborCoinExchangeV4.sol\":4704:4823  require(... */\n      tag_107\n        /* \"#utility.yul\":5686:6030   */\n      jump\n        /* \"final-contracts/LaborCoinExchangeV4.sol\":4704:4823  require(... */\n    tag_211:\n        /* \"final-contracts/LaborCoinExchangeV4.sol\":4849:4857  received */\n      dup1\n        /* \"final-contracts/LaborCoinExchangeV4.sol\":4836:4845  totalSold */\n      0x01\n      0x00\n        /* \"final-contracts/LaborCoinExchangeV4.sol\":4836:4857  totalSold += received */\n      dup3\n      dup3\n      sload\n      tag_213\n      swap2\n      swap1\n      tag_119\n      jump\t// in\n    tag_213:\n      swap1\n      swap2\n      sstore\n      pop\n        /* \"final-contracts/LaborCoinExchangeV4.sol\":4870:4883  _autoUnlock() */\n      tag_214\n      swap1\n      pop\n        /* \"final-contracts/LaborCoinExchangeV4.sol\":4870:4881  _autoUnlock */\n      tag_215\n        /* \"final-contracts/LaborCoinExchangeV4.sol\":4870:4883  _autoUnlock() */\n      jump\t// in\n    tag_214:\n        /* \"final-contracts/LaborCoinExchangeV4.sol\":4896:4912  uint256 daoShare */\n      0x00\n        /* \"final-contracts/LaborCoinExchangeV4.sol\":4934:4937  100 */\n      0x64\n        /* \"final-contracts/LaborCoinExchangeV4.sol\":4916:4930  msg.value * 10 */\n      tag_216\n        /* \"final-contracts/LaborCoinExchangeV4.sol\":4916:4925  msg.value */\n      callvalue\n        /* \"final-contracts/LaborCoinExchangeV4.sol\":4928:4930  10 */\n      0x0a\n        /* \"final-contracts/LaborCoinExchangeV4.sol\":4916:4930  msg.value * 10 */\n      tag_151\n      jump\t// in\n    tag_216:\n        /* \"final-contracts/LaborCoinExchangeV4.sol\":4915:4937  (msg.value * 10) / 100 */\n      tag_217\n      swap2\n      swap1\n      tag_153\n      jump\t// in\n    tag_217:\n        /* \"final-contracts/LaborCoinExchangeV4.sol\":4951:4960  bool sent */\n      0x00\n        /* \"final-contracts/LaborCoinExchangeV4.sol\":4966:4977  daoTreasury */\n      dup1\n      sload\n        /* \"final-contracts/LaborCoinExchangeV4.sol\":4966:5003  daoTreasury.call{value: daoShare}(\"\") */\n      mload(0x40)\n        /* \"final-contracts/LaborCoinExchangeV4.sol\":4896:4937  uint256 daoShare = (msg.value * 10) / 100 */\n      swap3\n      swap4\n      pop\n        /* \"final-contracts/LaborCoinExchangeV4.sol\":4951:4960  bool sent */\n      swap1\n      swap2\n      sub(shl(0xa0, 0x01), 0x01)\n        /* \"final-contracts/LaborCoinExchangeV4.sol\":4966:4977  daoTreasury */\n      swap1\n      swap2\n      and\n      swap1\n        /* \"final-contracts/LaborCoinExchangeV4.sol\":4896:4937  uint256 daoShare = (msg.value * 10) / 100 */\n      dup4\n      swap1\n        /* \"final-contracts/LaborCoinExchangeV4.sol\":4951:4960  bool sent */\n      dup4\n        /* \"final-contracts/LaborCoinExchangeV4.sol\":4966:5003  daoTreasury.call{value: daoShare}(\"\") */\n      dup2\n        /* \"final-contracts/LaborCoinExchangeV4.sol\":4951:4960  bool sent */\n      dup2\n        /* \"final-contracts/LaborCoinExchangeV4.sol\":4966:5003  daoTreasury.call{value: daoShare}(\"\") */\n      dup2\n        /* \"final-contracts/LaborCoinExchangeV4.sol\":4896:4937  uint256 daoShare = (msg.value * 10) / 100 */\n      dup6\n        /* \"final-contracts/LaborCoinExchangeV4.sol\":4966:4977  daoTreasury */\n      dup8\n        /* \"final-contracts/LaborCoinExchangeV4.sol\":4966:5003  daoTreasury.call{value: daoShare}(\"\") */\n      gas\n      call\n      swap3\n      pop\n      pop\n      pop\n      returndatasize\n      dup1\n      0x00\n      dup2\n      eq\n      tag_221\n      jumpi\n      mload(0x40)\n      swap2\n      pop\n      and(add(returndatasize, 0x3f), not(0x1f))\n      dup3\n      add\n      0x40\n      mstore\n      returndatasize\n      dup3\n      mstore\n      returndatasize\n      0x00\n      0x20\n      dup5\n      add\n      returndatacopy\n      jump(tag_220)\n    tag_221:\n      0x60\n      swap2\n      pop\n    tag_220:\n      pop\n        /* \"final-contracts/LaborCoinExchangeV4.sol\":4950:5003  (bool sent, ) = daoTreasury.call{value: daoShare}(\"\") */\n      pop\n      swap1\n      pop\n        /* \"final-contracts/LaborCoinExchangeV4.sol\":5022:5026  sent */\n      dup1\n        /* \"final-contracts/LaborCoinExchangeV4.sol\":5014:5027  require(sent) */\n      tag_222\n      jumpi\n      revert(0x00, 0x00)\n    tag_222:\n        /* \"final-contracts/LaborCoinExchangeV4.sol\":5045:5081  Buy(msg.sender, msg.value, received) */\n      0x40\n      dup1\n      mload\n        /* \"final-contracts/LaborCoinExchangeV4.sol\":5061:5070  msg.value */\n      callvalue\n        /* \"#utility.yul\":5607:5632   */\n      dup2\n      mstore\n        /* \"#utility.yul\":5663:5665   */\n      0x20\n        /* \"#utility.yul\":5648:5666   */\n      dup2\n      add\n        /* \"#utility.yul\":5641:5675   */\n      dup6\n      swap1\n      mstore\n        /* \"final-contracts/LaborCoinExchangeV4.sol\":5049:5059  msg.sender */\n      caller\n      swap2\n        /* \"final-contracts/LaborCoinExchangeV4.sol\":5045:5081  Buy(msg.sender, msg.value, received) */\n      0x1cbc5ab135991bd2b6a4b034a04aa2aa086dac1371cb9b16b8b5e2ed6b036bed\n      swap2\n        /* \"#utility.yul\":5580:5598   */\n      add\n        /* \"final-contracts/LaborCoinExchangeV4.sol\":5045:5081  Buy(msg.sender, msg.value, received) */\n      mload(0x40)\n      dup1\n      swap2\n      sub\n      swap1\n      log2\n      pop\n      pop\n        /* \"final-contracts/LaborCoinExchangeV4.sol\":2190:2200  msg.sender */\n      caller\n        /* \"final-contracts/LaborCoinExchangeV4.sol\":2179:2201  lastTxTime[msg.sender] */\n      0x00\n      swap1\n      dup2\n      mstore\n        /* \"final-contracts/LaborCoinExchangeV4.sol\":2179:2189  lastTxTime */\n      0x03\n        /* \"final-contracts/LaborCoinExchangeV4.sol\":2179:2201  lastTxTime[msg.sender] */\n      0x20\n      mstore\n      0x40\n      swap1\n      keccak256\n        /* \"final-contracts/LaborCoinExchangeV4.sol\":2204:2219  block.timestamp */\n      timestamp\n        /* \"final-contracts/LaborCoinExchangeV4.sol\":2179:2219  lastTxTime[msg.sender] = block.timestamp */\n      swap1\n      sstore\n      pop\n        /* \"@openzeppelin/contracts/utils/ReentrancyGuard.sol\":3065:3085  _nonReentrantAfter() */\n      tag_224\n      swap3\n      pop\n        /* \"@openzeppelin/contracts/utils/ReentrancyGuard.sol\":3065:3083  _nonReentrantAfter */\n      tag_166\n      swap2\n      pop\n      pop\n        /* \"@openzeppelin/contracts/utils/ReentrancyGuard.sol\":3065:3085  _nonReentrantAfter() */\n      jump\t// in\n    tag_224:\n        /* \"final-contracts/LaborCoinExchangeV4.sol\":3884:5089  function buy(uint256 minTokensOut)... */\n      pop\n      jump\t// out\n        /* \"final-contracts/LaborCoinExchangeV4.sol\":3319:3837  function getPrice(uint256 sold) public view returns (uint256) {... */\n    tag_91:\n        /* \"final-contracts/LaborCoinExchangeV4.sol\":3372:3379  uint256 */\n      0x00\n        /* \"final-contracts/LaborCoinExchangeV4.sol\":1027:1046  1_000_000_000 ether */\n      0x033b2e3c9fd0803ce8000000\n        /* \"final-contracts/LaborCoinExchangeV4.sol\":3396:3400  sold */\n      dup3\n        /* \"final-contracts/LaborCoinExchangeV4.sol\":3396:3413  sold > MAX_SUPPLY */\n      gt\n        /* \"final-contracts/LaborCoinExchangeV4.sol\":3392:3432  if (sold > MAX_SUPPLY) sold = MAX_SUPPLY */\n      iszero\n      tag_226\n      jumpi\n        /* \"final-contracts/LaborCoinExchangeV4.sol\":1027:1046  1_000_000_000 ether */\n      0x033b2e3c9fd0803ce8000000\n        /* \"final-contracts/LaborCoinExchangeV4.sol\":3415:3432  sold = MAX_SUPPLY */\n      swap2\n      pop\n        /* \"final-contracts/LaborCoinExchangeV4.sol\":3392:3432  if (sold > MAX_SUPPLY) sold = MAX_SUPPLY */\n    tag_226:\n        /* \"final-contracts/LaborCoinExchangeV4.sol\":3461:3464  1e8 */\n      0x05f5e100\n        /* \"final-contracts/LaborCoinExchangeV4.sol\":3491:3495  15e8 */\n      0x59682f00\n        /* \"final-contracts/LaborCoinExchangeV4.sol\":3445:3458  uint256 P_MIN */\n      0x00\n        /* \"final-contracts/LaborCoinExchangeV4.sol\":1027:1046  1_000_000_000 ether */\n      0x033b2e3c9fd0803ce8000000\n        /* \"final-contracts/LaborCoinExchangeV4.sol\":3521:3532  sold * 1e18 */\n      tag_227\n        /* \"final-contracts/LaborCoinExchangeV4.sol\":3521:3525  sold */\n      dup7\n        /* \"final-contracts/LaborCoinExchangeV4.sol\":3528:3532  1e18 */\n      0x0de0b6b3a7640000\n        /* \"final-contracts/LaborCoinExchangeV4.sol\":3521:3532  sold * 1e18 */\n      tag_151\n      jump\t// in\n    tag_227:\n        /* \"final-contracts/LaborCoinExchangeV4.sol\":3520:3546  (sold * 1e18) / MAX_SUPPLY */\n      tag_228\n      swap2\n      swap1\n      tag_153\n      jump\t// in\n    tag_228:\n        /* \"final-contracts/LaborCoinExchangeV4.sol\":3508:3546  uint256 x = (sold * 1e18) / MAX_SUPPLY */\n      swap1\n      pop\n        /* \"final-contracts/LaborCoinExchangeV4.sol\":3557:3567  uint256 x2 */\n      0x00\n        /* \"final-contracts/LaborCoinExchangeV4.sol\":3580:3584  1e18 */\n      0x0de0b6b3a7640000\n        /* \"final-contracts/LaborCoinExchangeV4.sol\":3571:3576  x * x */\n      tag_229\n        /* \"final-contracts/LaborCoinExchangeV4.sol\":3508:3546  uint256 x = (sold * 1e18) / MAX_SUPPLY */\n      dup4\n      dup1\n        /* \"final-contracts/LaborCoinExchangeV4.sol\":3571:3576  x * x */\n      tag_151\n      jump\t// in\n    tag_229:\n        /* \"final-contracts/LaborCoinExchangeV4.sol\":3570:3584  (x * x) / 1e18 */\n      tag_230\n      swap2\n      swap1\n      tag_153\n      jump\t// in\n    tag_230:\n        /* \"final-contracts/LaborCoinExchangeV4.sol\":3557:3584  uint256 x2 = (x * x) / 1e18 */\n      swap1\n      pop\n        /* \"final-contracts/LaborCoinExchangeV4.sol\":3597:3608  uint256 usd */\n      0x00\n        /* \"final-contracts/LaborCoinExchangeV4.sol\":3644:3648  1e18 */\n      0x0de0b6b3a7640000\n        /* \"final-contracts/LaborCoinExchangeV4.sol\":3557:3584  uint256 x2 = (x * x) / 1e18 */\n      dup3\n        /* \"final-contracts/LaborCoinExchangeV4.sol\":3621:3634  P_MAX - P_MIN */\n      tag_231\n        /* \"final-contracts/LaborCoinExchangeV4.sol\":3629:3634  P_MIN */\n      dup8\n        /* \"final-contracts/LaborCoinExchangeV4.sol\":3621:3626  P_MAX */\n      dup8\n        /* \"final-contracts/LaborCoinExchangeV4.sol\":3621:3634  P_MAX - P_MIN */\n      tag_110\n      jump\t// in\n    tag_231:\n        /* \"final-contracts/LaborCoinExchangeV4.sol\":3620:3640  (P_MAX - P_MIN) * x2 */\n      tag_232\n      swap2\n      swap1\n      tag_151\n      jump\t// in\n    tag_232:\n        /* \"final-contracts/LaborCoinExchangeV4.sol\":3619:3648  ((P_MAX - P_MIN) * x2) / 1e18 */\n      tag_233\n      swap2\n      swap1\n      tag_153\n      jump\t// in\n    tag_233:\n        /* \"final-contracts/LaborCoinExchangeV4.sol\":3611:3648  P_MIN + ((P_MAX - P_MIN) * x2) / 1e18 */\n      tag_234\n      swap1\n        /* \"final-contracts/LaborCoinExchangeV4.sol\":3611:3616  P_MIN */\n      dup7\n        /* \"final-contracts/LaborCoinExchangeV4.sol\":3611:3648  P_MIN + ((P_MAX - P_MIN) * x2) / 1e18 */\n      tag_119\n      jump\t// in\n    tag_234:\n        /* \"final-contracts/LaborCoinExchangeV4.sol\":3597:3648  uint256 usd = P_MIN + ((P_MAX - P_MIN) * x2) / 1e18 */\n      swap1\n      pop\n        /* \"final-contracts/LaborCoinExchangeV4.sol\":3659:3673  uint256 polUSD */\n      0x00\n        /* \"final-contracts/LaborCoinExchangeV4.sol\":3676:3692  getPOLPriceUSD() */\n      tag_235\n        /* \"final-contracts/LaborCoinExchangeV4.sol\":3676:3690  getPOLPriceUSD */\n      tag_46\n        /* \"final-contracts/LaborCoinExchangeV4.sol\":3676:3692  getPOLPriceUSD() */\n      jump\t// in\n    tag_235:\n        /* \"final-contracts/LaborCoinExchangeV4.sol\":3659:3692  uint256 polUSD = getPOLPriceUSD() */\n      swap1\n      pop\n        /* \"final-contracts/LaborCoinExchangeV4.sol\":3705:3718  uint256 price */\n      0x00\n        /* \"final-contracts/LaborCoinExchangeV4.sol\":3659:3692  uint256 polUSD = getPOLPriceUSD() */\n      dup2\n        /* \"final-contracts/LaborCoinExchangeV4.sol\":3722:3732  usd * 1e18 */\n      tag_236\n        /* \"final-contracts/LaborCoinExchangeV4.sol\":3722:3725  usd */\n      dup5\n        /* \"final-contracts/LaborCoinExchangeV4.sol\":3728:3732  1e18 */\n      0x0de0b6b3a7640000\n        /* \"final-contracts/LaborCoinExchangeV4.sol\":3722:3732  usd * 1e18 */\n      tag_151\n      jump\t// in\n    tag_236:\n        /* \"final-contracts/LaborCoinExchangeV4.sol\":3721:3742  (usd * 1e18) / polUSD */\n      tag_237\n      swap2\n      swap1\n      tag_153\n      jump\t// in\n    tag_237:\n        /* \"final-contracts/LaborCoinExchangeV4.sol\":3705:3742  uint256 price = (usd * 1e18) / polUSD */\n      swap1\n      pop\n        /* \"final-contracts/LaborCoinExchangeV4.sol\":1400:1409  100 ether */\n      0x056bc75e2d63100000\n        /* \"final-contracts/LaborCoinExchangeV4.sol\":3763:3768  price */\n      dup2\n        /* \"final-contracts/LaborCoinExchangeV4.sol\":3763:3785  price <= MAX_PRICE_POL */\n      gt\n      iszero\n        /* \"final-contracts/LaborCoinExchangeV4.sol\":3755:3804  require(price <= MAX_PRICE_POL, \"Oracle anomaly\") */\n      tag_238\n      jumpi\n      mload(0x40)\n      shl(0xe5, 0x461bcd)\n      dup2\n      mstore\n        /* \"#utility.yul\":6237:6239   */\n      0x20\n        /* \"final-contracts/LaborCoinExchangeV4.sol\":3755:3804  require(price <= MAX_PRICE_POL, \"Oracle anomaly\") */\n      0x04\n      dup3\n      add\n        /* \"#utility.yul\":6219:6240   */\n      mstore\n        /* \"#utility.yul\":6276:6278   */\n      0x0e\n        /* \"#utility.yul\":6256:6274   */\n      0x24\n      dup3\n      add\n        /* \"#utility.yul\":6249:6279   */\n      mstore\n      shl(0x90, 0x4f7261636c6520616e6f6d616c79)\n        /* \"#utility.yul\":6295:6313   */\n      0x44\n      dup3\n      add\n        /* \"#utility.yul\":6288:6332   */\n      mstore\n        /* \"#utility.yul\":6349:6367   */\n      0x64\n      add\n        /* \"final-contracts/LaborCoinExchangeV4.sol\":3755:3804  require(price <= MAX_PRICE_POL, \"Oracle anomaly\") */\n      tag_107\n        /* \"#utility.yul\":6035:6373   */\n      jump\n        /* \"final-contracts/LaborCoinExchangeV4.sol\":3755:3804  require(price <= MAX_PRICE_POL, \"Oracle anomaly\") */\n    tag_238:\n        /* \"final-contracts/LaborCoinExchangeV4.sol\":3824:3829  price */\n      swap9\n        /* \"final-contracts/LaborCoinExchangeV4.sol\":3319:3837  function getPrice(uint256 sold) public view returns (uint256) {... */\n      swap8\n      pop\n      pop\n      pop\n      pop\n      pop\n      pop\n      pop\n      pop\n      jump\t// out\n        /* \"@openzeppelin/contracts/utils/ReentrancyGuard.sol\":3749:4041  function _nonReentrantBefore() private {... */\n    tag_116:\n        /* \"@openzeppelin/contracts/utils/ReentrancyGuard.sol\":3872:3897  _nonReentrantBeforeView() */\n      tag_242\n        /* \"@openzeppelin/contracts/utils/ReentrancyGuard.sol\":3872:3895  _nonReentrantBeforeView */\n      tag_243\n        /* \"@openzeppelin/contracts/utils/ReentrancyGuard.sol\":3872:3897  _nonReentrantBeforeView() */\n      jump\t// in\n    tag_242:\n        /* \"@openzeppelin/contracts/utils/ReentrancyGuard.sol\":2407:2408  2 */\n      0x02\n        /* \"@openzeppelin/contracts/utils/ReentrancyGuard.sol\":1505:1571  0x9b779b17422d0df92223018b32b4d1fa46e071723d6817e2486d003becc55f00 */\n      0x9b779b17422d0df92223018b32b4d1fa46e071723d6817e2486d003becc55f00\n        /* \"@openzeppelin/contracts/utils/ReentrancyGuard.sol\":3972:4034  _reentrancyGuardStorageSlot().getUint256Slot().value = ENTERED */\n      sstore\n        /* \"@openzeppelin/contracts/utils/ReentrancyGuard.sol\":3749:4041  function _nonReentrantBefore() private {... */\n      jump\t// out\n        /* \"final-contracts/LaborCoinExchangeV4.sol\":2598:2930  function _safeTransferFrom(address from, address to, uint256 amount) internal {... */\n    tag_143:\n        /* \"final-contracts/LaborCoinExchangeV4.sol\":2755:2823  abi.encodeWithSelector(LABR.transferFrom.selector, from, to, amount) */\n      0x40\n      dup1\n      mload\n      sub(shl(0xa0, 0x01), 0x01)\n        /* \"#utility.yul\":6598:6630   */\n      dup6\n      dup2\n      and\n        /* \"final-contracts/LaborCoinExchangeV4.sol\":2755:2823  abi.encodeWithSelector(LABR.transferFrom.selector, from, to, amount) */\n      0x24\n      dup4\n      add\n        /* \"#utility.yul\":6580:6631   */\n      mstore\n        /* \"#utility.yul\":6667:6699   */\n      dup5\n      dup2\n      and\n        /* \"#utility.yul\":6647:6665   */\n      0x44\n      dup4\n      add\n        /* \"#utility.yul\":6640:6700   */\n      mstore\n        /* \"#utility.yul\":6716:6734   */\n      0x64\n      dup1\n      dup4\n      add\n        /* \"#utility.yul\":6709:6743   */\n      dup6\n      swap1\n      mstore\n        /* \"final-contracts/LaborCoinExchangeV4.sol\":2755:2823  abi.encodeWithSelector(LABR.transferFrom.selector, from, to, amount) */\n      dup4\n      mload\n      dup1\n      dup5\n      sub\n      swap1\n      swap2\n      add\n      dup2\n      mstore\n        /* \"#utility.yul\":6553:6571   */\n      0x84\n      swap1\n      swap3\n      add\n        /* \"final-contracts/LaborCoinExchangeV4.sol\":2755:2823  abi.encodeWithSelector(LABR.transferFrom.selector, from, to, amount) */\n      dup4\n      mstore\n      0x20\n      dup3\n      add\n      dup1\n      mload\n      sub(shl(0xe0, 0x01), 0x01)\n      and\n      shl(0xe0, 0x23b872dd)\n      or\n      swap1\n      mstore\n        /* \"final-contracts/LaborCoinExchangeV4.sol\":2736:2824  address(LABR).call(abi.encodeWithSelector(LABR.transferFrom.selector, from, to, amount)) */\n      swap2\n      mload\n      0x00\n      swap3\n      dup4\n      swap3\n        /* \"final-contracts/LaborCoinExchangeV4.sol\":2744:2748  LABR */\n      immutable(\"0xb440c9986c01395f2aa716b5d1c22f7a6f50e50754b83b93de79b9bd54339a32\")\n        /* \"final-contracts/LaborCoinExchangeV4.sol\":2736:2754  address(LABR).call */\n      swap1\n      swap2\n      and\n      swap2\n        /* \"final-contracts/LaborCoinExchangeV4.sol\":2736:2824  address(LABR).call(abi.encodeWithSelector(LABR.transferFrom.selector, from, to, amount)) */\n      tag_251\n      swap2\n        /* \"final-contracts/LaborCoinExchangeV4.sol\":2755:2823  abi.encodeWithSelector(LABR.transferFrom.selector, from, to, amount) */\n      swap1\n        /* \"final-contracts/LaborCoinExchangeV4.sol\":2736:2824  address(LABR).call(abi.encodeWithSelector(LABR.transferFrom.selector, from, to, amount)) */\n      tag_252\n      jump\t// in\n    tag_251:\n      0x00\n      mload(0x40)\n      dup1\n      dup4\n      sub\n      dup2\n      0x00\n      dup7\n      gas\n      call\n      swap2\n      pop\n      pop\n      returndatasize\n      dup1\n      0x00\n      dup2\n      eq\n      tag_255\n      jumpi\n      mload(0x40)\n      swap2\n      pop\n      and(add(returndatasize, 0x3f), not(0x1f))\n      dup3\n      add\n      0x40\n      mstore\n      returndatasize\n      dup3\n      mstore\n      returndatasize\n      0x00\n      0x20\n      dup5\n      add\n      returndatacopy\n      jump(tag_254)\n    tag_255:\n      0x60\n      swap2\n      pop\n    tag_254:\n      pop\n        /* \"final-contracts/LaborCoinExchangeV4.sol\":2687:2824  (bool success, bytes memory data) =... */\n      swap2\n      pop\n      swap2\n      pop\n        /* \"final-contracts/LaborCoinExchangeV4.sol\":2843:2850  success */\n      dup2\n        /* \"final-contracts/LaborCoinExchangeV4.sol\":2843:2900  success && (data.length == 0 || abi.decode(data, (bool))) */\n      dup1\n      iszero\n      tag_258\n      jumpi\n      pop\n        /* \"final-contracts/LaborCoinExchangeV4.sol\":2855:2866  data.length */\n      dup1\n      mload\n        /* \"final-contracts/LaborCoinExchangeV4.sol\":2855:2871  data.length == 0 */\n      iszero\n      dup1\n        /* \"final-contracts/LaborCoinExchangeV4.sol\":2855:2899  data.length == 0 || abi.decode(data, (bool)) */\n      tag_258\n      jumpi\n      pop\n        /* \"final-contracts/LaborCoinExchangeV4.sol\":2886:2890  data */\n      dup1\n        /* \"final-contracts/LaborCoinExchangeV4.sol\":2875:2899  abi.decode(data, (bool)) */\n      dup1\n      0x20\n      add\n      swap1\n      mload\n      dup2\n      add\n      swap1\n      tag_258\n      swap2\n      swap1\n      tag_259\n      jump\t// in\n    tag_258:\n        /* \"final-contracts/LaborCoinExchangeV4.sol\":2835:2922  require(success && (data.length == 0 || abi.decode(data, (bool))), \"TransferFrom fail\") */\n      tag_260\n      jumpi\n      mload(0x40)\n      shl(0xe5, 0x461bcd)\n      dup2\n      mstore\n        /* \"#utility.yul\":7544:7546   */\n      0x20\n        /* \"final-contracts/LaborCoinExchangeV4.sol\":2835:2922  require(success && (data.length == 0 || abi.decode(data, (bool))), \"TransferFrom fail\") */\n      0x04\n      dup3\n      add\n        /* \"#utility.yul\":7526:7547   */\n      mstore\n        /* \"#utility.yul\":7583:7585   */\n      0x11\n        /* \"#utility.yul\":7563:7581   */\n      0x24\n      dup3\n      add\n        /* \"#utility.yul\":7556:7586   */\n      mstore\n      shl(0x7a, 0x151c985b9cd9995c919c9bdb4819985a5b)\n        /* \"#utility.yul\":7602:7620   */\n      0x44\n      dup3\n      add\n        /* \"#utility.yul\":7595:7642   */\n      mstore\n        /* \"#utility.yul\":7659:7677   */\n      0x64\n      add\n        /* \"final-contracts/LaborCoinExchangeV4.sol\":2835:2922  require(success && (data.length == 0 || abi.decode(data, (bool))), \"TransferFrom fail\") */\n      tag_107\n        /* \"#utility.yul\":7342:7683   */\n      jump\n        /* \"final-contracts/LaborCoinExchangeV4.sol\":2835:2922  require(success && (data.length == 0 || abi.decode(data, (bool))), \"TransferFrom fail\") */\n    tag_260:\n        /* \"final-contracts/LaborCoinExchangeV4.sol\":2676:2930  {... */\n      pop\n      pop\n        /* \"final-contracts/LaborCoinExchangeV4.sol\":2598:2930  function _safeTransferFrom(address from, address to, uint256 amount) internal {... */\n      pop\n      pop\n      pop\n      jump\t// out\n        /* \"@openzeppelin/contracts/utils/ReentrancyGuard.sol\":4047:4300  function _nonReentrantAfter() private {... */\n    tag_166:\n        /* \"@openzeppelin/contracts/utils/ReentrancyGuard.sol\":2365:2366  1 */\n      0x01\n        /* \"@openzeppelin/contracts/utils/ReentrancyGuard.sol\":1505:1571  0x9b779b17422d0df92223018b32b4d1fa46e071723d6817e2486d003becc55f00 */\n      0x9b779b17422d0df92223018b32b4d1fa46e071723d6817e2486d003becc55f00\n        /* \"@openzeppelin/contracts/utils/ReentrancyGuard.sol\":3972:4034  _reentrancyGuardStorageSlot().getUint256Slot().value = ENTERED */\n      sstore\n        /* \"@openzeppelin/contracts/utils/ReentrancyGuard.sol\":3749:4041  function _nonReentrantBefore() private {... */\n      jump\t// out\n        /* \"final-contracts/LaborCoinExchangeV4.sol\":2290:2590  function _safeTransfer(address to, uint256 amount) internal {... */\n    tag_200:\n        /* \"final-contracts/LaborCoinExchangeV4.sol\":2429:2487  abi.encodeWithSelector(LABR.transfer.selector, to, amount) */\n      0x40\n      dup1\n      mload\n      sub(shl(0xa0, 0x01), 0x01)\n        /* \"#utility.yul\":7880:7912   */\n      dup5\n      dup2\n      and\n        /* \"final-contracts/LaborCoinExchangeV4.sol\":2429:2487  abi.encodeWithSelector(LABR.transfer.selector, to, amount) */\n      0x24\n      dup4\n      add\n        /* \"#utility.yul\":7862:7913   */\n      mstore\n        /* \"#utility.yul\":7929:7947   */\n      0x44\n      dup1\n      dup4\n      add\n        /* \"#utility.yul\":7922:7956   */\n      dup6\n      swap1\n      mstore\n        /* \"final-contracts/LaborCoinExchangeV4.sol\":2429:2487  abi.encodeWithSelector(LABR.transfer.selector, to, amount) */\n      dup4\n      mload\n      dup1\n      dup5\n      sub\n      swap1\n      swap2\n      add\n      dup2\n      mstore\n        /* \"#utility.yul\":7835:7853   */\n      0x64\n      swap1\n      swap3\n      add\n        /* \"final-contracts/LaborCoinExchangeV4.sol\":2429:2487  abi.encodeWithSelector(LABR.transfer.selector, to, amount) */\n      dup4\n      mstore\n      0x20\n      dup3\n      add\n      dup1\n      mload\n      sub(shl(0xe0, 0x01), 0x01)\n      and\n      shl(0xe0, 0xa9059cbb)\n      or\n      swap1\n      mstore\n        /* \"final-contracts/LaborCoinExchangeV4.sol\":2410:2488  address(LABR).call(abi.encodeWithSelector(LABR.transfer.selector, to, amount)) */\n      swap2\n      mload\n      0x00\n      swap3\n      dup4\n      swap3\n        /* \"final-contracts/LaborCoinExchangeV4.sol\":2418:2422  LABR */\n      immutable(\"0xb440c9986c01395f2aa716b5d1c22f7a6f50e50754b83b93de79b9bd54339a32\")\n        /* \"final-contracts/LaborCoinExchangeV4.sol\":2410:2428  address(LABR).call */\n      swap1\n      swap2\n      and\n      swap2\n        /* \"final-contracts/LaborCoinExchangeV4.sol\":2410:2488  address(LABR).call(abi.encodeWithSelector(LABR.transfer.selector, to, amount)) */\n      tag_269\n      swap2\n        /* \"final-contracts/LaborCoinExchangeV4.sol\":2429:2487  abi.encodeWithSelector(LABR.transfer.selector, to, amount) */\n      swap1\n        /* \"final-contracts/LaborCoinExchangeV4.sol\":2410:2488  address(LABR).call(abi.encodeWithSelector(LABR.transfer.selector, to, amount)) */\n      tag_252\n      jump\t// in\n    tag_269:\n      0x00\n      mload(0x40)\n      dup1\n      dup4\n      sub\n      dup2\n      0x00\n      dup7\n      gas\n      call\n      swap2\n      pop\n      pop\n      returndatasize\n      dup1\n      0x00\n      dup2\n      eq\n      tag_272\n      jumpi\n      mload(0x40)\n      swap2\n      pop\n      and(add(returndatasize, 0x3f), not(0x1f))\n      dup3\n      add\n      0x40\n      mstore\n      returndatasize\n      dup3\n      mstore\n      returndatasize\n      0x00\n      0x20\n      dup5\n      add\n      returndatacopy\n      jump(tag_271)\n    tag_272:\n      0x60\n      swap2\n      pop\n    tag_271:\n      pop\n        /* \"final-contracts/LaborCoinExchangeV4.sol\":2361:2488  (bool success, bytes memory data) =... */\n      swap2\n      pop\n      swap2\n      pop\n        /* \"final-contracts/LaborCoinExchangeV4.sol\":2507:2514  success */\n      dup2\n        /* \"final-contracts/LaborCoinExchangeV4.sol\":2507:2564  success && (data.length == 0 || abi.decode(data, (bool))) */\n      dup1\n      iszero\n      tag_275\n      jumpi\n      pop\n        /* \"final-contracts/LaborCoinExchangeV4.sol\":2519:2530  data.length */\n      dup1\n      mload\n        /* \"final-contracts/LaborCoinExchangeV4.sol\":2519:2535  data.length == 0 */\n      iszero\n      dup1\n        /* \"final-contracts/LaborCoinExchangeV4.sol\":2519:2563  data.length == 0 || abi.decode(data, (bool)) */\n      tag_275\n      jumpi\n      pop\n        /* \"final-contracts/LaborCoinExchangeV4.sol\":2550:2554  data */\n      dup1\n        /* \"final-contracts/LaborCoinExchangeV4.sol\":2539:2563  abi.decode(data, (bool)) */\n      dup1\n      0x20\n      add\n      swap1\n      mload\n      dup2\n      add\n      swap1\n      tag_275\n      swap2\n      swap1\n      tag_259\n      jump\t// in\n    tag_275:\n        /* \"final-contracts/LaborCoinExchangeV4.sol\":2499:2582  require(success && (data.length == 0 || abi.decode(data, (bool))), \"Transfer fail\") */\n      tag_276\n      jumpi\n      mload(0x40)\n      shl(0xe5, 0x461bcd)\n      dup2\n      mstore\n        /* \"#utility.yul\":8169:8171   */\n      0x20\n        /* \"final-contracts/LaborCoinExchangeV4.sol\":2499:2582  require(success && (data.length == 0 || abi.decode(data, (bool))), \"Transfer fail\") */\n      0x04\n      dup3\n      add\n        /* \"#utility.yul\":8151:8172   */\n      mstore\n        /* \"#utility.yul\":8208:8210   */\n      0x0d\n        /* \"#utility.yul\":8188:8206   */\n      0x24\n      dup3\n      add\n        /* \"#utility.yul\":8181:8211   */\n      mstore\n      shl(0x9a, 0x151c985b9cd9995c8819985a5b)\n        /* \"#utility.yul\":8227:8245   */\n      0x44\n      dup3\n      add\n        /* \"#utility.yul\":8220:8263   */\n      mstore\n        /* \"#utility.yul\":8280:8298   */\n      0x64\n      add\n        /* \"final-contracts/LaborCoinExchangeV4.sol\":2499:2582  require(success && (data.length == 0 || abi.decode(data, (bool))), \"Transfer fail\") */\n      tag_107\n        /* \"#utility.yul\":7967:8304   */\n      jump\n        /* \"final-contracts/LaborCoinExchangeV4.sol\":2499:2582  require(success && (data.length == 0 || abi.decode(data, (bool))), \"Transfer fail\") */\n    tag_276:\n        /* \"final-contracts/LaborCoinExchangeV4.sol\":2350:2590  {... */\n      pop\n      pop\n        /* \"final-contracts/LaborCoinExchangeV4.sol\":2290:2590  function _safeTransfer(address to, uint256 amount) internal {... */\n      pop\n      pop\n      jump\t// out\n        /* \"final-contracts/LaborCoinExchangeV4.sol\":6139:6486  function _autoUnlock() internal {... */\n    tag_215:\n        /* \"final-contracts/LaborCoinExchangeV4.sol\":6182:6191  uint256 i */\n      0x00\n        /* \"final-contracts/LaborCoinExchangeV4.sol\":6202:6479  while (totalSold >= unlockedSupply && i < 10) {... */\n    tag_280:\n        /* \"final-contracts/LaborCoinExchangeV4.sol\":6222:6236  unlockedSupply */\n      sload(0x02)\n        /* \"final-contracts/LaborCoinExchangeV4.sol\":6209:6218  totalSold */\n      sload(0x01)\n        /* \"final-contracts/LaborCoinExchangeV4.sol\":6209:6236  totalSold >= unlockedSupply */\n      lt\n      iszero\n        /* \"final-contracts/LaborCoinExchangeV4.sol\":6209:6246  totalSold >= unlockedSupply && i < 10 */\n      dup1\n      iszero\n      tag_282\n      jumpi\n      pop\n        /* \"final-contracts/LaborCoinExchangeV4.sol\":6244:6246  10 */\n      0x0a\n        /* \"final-contracts/LaborCoinExchangeV4.sol\":6240:6241  i */\n      dup2\n        /* \"final-contracts/LaborCoinExchangeV4.sol\":6240:6246  i < 10 */\n      lt\n        /* \"final-contracts/LaborCoinExchangeV4.sol\":6209:6246  totalSold >= unlockedSupply && i < 10 */\n    tag_282:\n        /* \"final-contracts/LaborCoinExchangeV4.sol\":6202:6479  while (totalSold >= unlockedSupply && i < 10) {... */\n      iszero\n      tag_224\n      jumpi\n        /* \"final-contracts/LaborCoinExchangeV4.sol\":6263:6275  uint256 next */\n      0x00\n        /* \"final-contracts/LaborCoinExchangeV4.sol\":1158:1174  50_000_000 ether */\n      0x295be96e64066972000000\n        /* \"final-contracts/LaborCoinExchangeV4.sol\":6278:6292  unlockedSupply */\n      sload(0x02)\n        /* \"final-contracts/LaborCoinExchangeV4.sol\":6278:6307  unlockedSupply + TRANCHE_SIZE */\n      tag_283\n      swap2\n      swap1\n      tag_119\n      jump\t// in\n    tag_283:\n        /* \"final-contracts/LaborCoinExchangeV4.sol\":6263:6307  uint256 next = unlockedSupply + TRANCHE_SIZE */\n      swap1\n      pop\n        /* \"final-contracts/LaborCoinExchangeV4.sol\":1027:1046  1_000_000_000 ether */\n      0x033b2e3c9fd0803ce8000000\n        /* \"final-contracts/LaborCoinExchangeV4.sol\":6326:6330  next */\n      dup2\n        /* \"final-contracts/LaborCoinExchangeV4.sol\":6326:6343  next > MAX_SUPPLY */\n      gt\n        /* \"final-contracts/LaborCoinExchangeV4.sol\":6322:6362  if (next > MAX_SUPPLY) next = MAX_SUPPLY */\n      iszero\n      tag_284\n      jumpi\n      pop\n        /* \"final-contracts/LaborCoinExchangeV4.sol\":1027:1046  1_000_000_000 ether */\n      0x033b2e3c9fd0803ce8000000\n        /* \"final-contracts/LaborCoinExchangeV4.sol\":6322:6362  if (next > MAX_SUPPLY) next = MAX_SUPPLY */\n    tag_284:\n        /* \"final-contracts/LaborCoinExchangeV4.sol\":6377:6391  unlockedSupply */\n      0x02\n        /* \"final-contracts/LaborCoinExchangeV4.sol\":6377:6398  unlockedSupply = next */\n      dup2\n      swap1\n      sstore\n        /* \"final-contracts/LaborCoinExchangeV4.sol\":6418:6449  TrancheUnlocked(unlockedSupply) */\n      mload(0x40)\n        /* \"#utility.yul\":160:185   */\n      dup2\n      dup2\n      mstore\n        /* \"final-contracts/LaborCoinExchangeV4.sol\":6418:6449  TrancheUnlocked(unlockedSupply) */\n      0xc1fa8e88841fa38aed8218549bd24903570c58976a974eb8b3329e98a92a9c3c\n      swap1\n        /* \"#utility.yul\":148:150   */\n      0x20\n        /* \"#utility.yul\":133:151   */\n      add\n        /* \"final-contracts/LaborCoinExchangeV4.sol\":6418:6449  TrancheUnlocked(unlockedSupply) */\n      mload(0x40)\n      dup1\n      swap2\n      sub\n      swap1\n      log1\n        /* \"final-contracts/LaborCoinExchangeV4.sol\":6464:6467  i++ */\n      dup2\n      tag_286\n      dup2\n      tag_287\n      jump\t// in\n    tag_286:\n      swap3\n      pop\n      pop\n        /* \"final-contracts/LaborCoinExchangeV4.sol\":6248:6479  {... */\n      pop\n        /* \"final-contracts/LaborCoinExchangeV4.sol\":6202:6479  while (totalSold >= unlockedSupply && i < 10) {... */\n      jump(tag_280)\n        /* \"@openzeppelin/contracts/utils/ReentrancyGuard.sol\":3586:3743  function _nonReentrantBeforeView() private view {... */\n    tag_243:\n        /* \"@openzeppelin/contracts/utils/ReentrancyGuard.sol\":1505:1571  0x9b779b17422d0df92223018b32b4d1fa46e071723d6817e2486d003becc55f00 */\n      0x9b779b17422d0df92223018b32b4d1fa46e071723d6817e2486d003becc55f00\n        /* \"@openzeppelin/contracts/utils/ReentrancyGuard.sol\":4560:4612  _reentrancyGuardStorageSlot().getUint256Slot().value */\n      sload\n        /* \"@openzeppelin/contracts/utils/ReentrancyGuard.sol\":2407:2408  2 */\n      0x02\n        /* \"@openzeppelin/contracts/utils/ReentrancyGuard.sol\":4560:4623  _reentrancyGuardStorageSlot().getUint256Slot().value == ENTERED */\n      sub\n        /* \"@openzeppelin/contracts/utils/ReentrancyGuard.sol\":3644:3737  if (_reentrancyGuardEntered()) {... */\n      tag_291\n      jumpi\n        /* \"@openzeppelin/contracts/utils/ReentrancyGuard.sol\":3696:3726  ReentrancyGuardReentrantCall() */\n      mload(0x40)\n      shl(0xe0, 0x3ee5aeb5)\n      dup2\n      mstore\n      0x04\n      add\n      mload(0x40)\n      dup1\n      swap2\n      sub\n      swap1\n      revert\n        /* \"@openzeppelin/contracts/utils/ReentrancyGuard.sol\":3644:3737  if (_reentrancyGuardEntered()) {... */\n    tag_291:\n        /* \"@openzeppelin/contracts/utils/ReentrancyGuard.sol\":3586:3743  function _nonReentrantBeforeView() private view {... */\n      jump\t// out\n        /* \"#utility.yul\":196:482   */\n    tag_37:\n        /* \"#utility.yul\":255:261   */\n      0x00\n        /* \"#utility.yul\":308:310   */\n      0x20\n        /* \"#utility.yul\":296:305   */\n      dup3\n        /* \"#utility.yul\":287:294   */\n      dup5\n        /* \"#utility.yul\":283:306   */\n      sub\n        /* \"#utility.yul\":279:311   */\n      slt\n        /* \"#utility.yul\":276:328   */\n      iszero\n      tag_302\n      jumpi\n        /* \"#utility.yul\":324:325   */\n      0x00\n        /* \"#utility.yul\":321:322   */\n      0x00\n        /* \"#utility.yul\":314:326   */\n      revert\n        /* \"#utility.yul\":276:328   */\n    tag_302:\n        /* \"#utility.yul\":350:373   */\n      dup2\n      calldataload\n      sub(shl(0xa0, 0x01), 0x01)\n        /* \"#utility.yul\":402:433   */\n      dup2\n      and\n        /* \"#utility.yul\":392:434   */\n      dup2\n      eq\n        /* \"#utility.yul\":382:452   */\n      tag_303\n      jumpi\n        /* \"#utility.yul\":448:449   */\n      0x00\n        /* \"#utility.yul\":445:446   */\n      0x00\n        /* \"#utility.yul\":438:450   */\n      revert\n        /* \"#utility.yul\":382:452   */\n    tag_303:\n        /* \"#utility.yul\":471:476   */\n      swap4\n        /* \"#utility.yul\":196:482   */\n      swap3\n      pop\n      pop\n      pop\n      jump\t// out\n        /* \"#utility.yul\":1154:1500   */\n    tag_82:\n        /* \"#utility.yul\":1222:1228   */\n      0x00\n        /* \"#utility.yul\":1230:1236   */\n      0x00\n        /* \"#utility.yul\":1283:1285   */\n      0x40\n        /* \"#utility.yul\":1271:1280   */\n      dup4\n        /* \"#utility.yul\":1262:1269   */\n      dup6\n        /* \"#utility.yul\":1258:1281   */\n      sub\n        /* \"#utility.yul\":1254:1286   */\n      slt\n        /* \"#utility.yul\":1251:1303   */\n      iszero\n      tag_308\n      jumpi\n        /* \"#utility.yul\":1299:1300   */\n      0x00\n        /* \"#utility.yul\":1296:1297   */\n      0x00\n        /* \"#utility.yul\":1289:1301   */\n      revert\n        /* \"#utility.yul\":1251:1303   */\n    tag_308:\n      pop\n      pop\n        /* \"#utility.yul\":1344:1367   */\n      dup1\n      calldataload\n      swap3\n        /* \"#utility.yul\":1464:1466   */\n      0x20\n        /* \"#utility.yul\":1449:1467   */\n      swap1\n      swap2\n      add\n        /* \"#utility.yul\":1436:1468   */\n      calldataload\n      swap2\n      pop\n        /* \"#utility.yul\":1154:1500   */\n      jump\t// out\n        /* \"#utility.yul\":1505:1731   */\n    tag_86:\n        /* \"#utility.yul\":1564:1570   */\n      0x00\n        /* \"#utility.yul\":1617:1619   */\n      0x20\n        /* \"#utility.yul\":1605:1614   */\n      dup3\n        /* \"#utility.yul\":1596:1603   */\n      dup5\n        /* \"#utility.yul\":1592:1615   */\n      sub\n        /* \"#utility.yul\":1588:1620   */\n      slt\n        /* \"#utility.yul\":1585:1637   */\n      iszero\n      tag_310\n      jumpi\n        /* \"#utility.yul\":1633:1634   */\n      0x00\n        /* \"#utility.yul\":1630:1631   */\n      0x00\n        /* \"#utility.yul\":1623:1635   */\n      revert\n        /* \"#utility.yul\":1585:1637   */\n    tag_310:\n      pop\n        /* \"#utility.yul\":1678:1701   */\n      calldataload\n      swap2\n        /* \"#utility.yul\":1505:1731   */\n      swap1\n      pop\n      jump\t// out\n        /* \"#utility.yul\":1736:1915   */\n    tag_297:\n        /* \"#utility.yul\":1814:1827   */\n      dup1\n      mload\n        /* \"#utility.yul\":1867:1889   */\n      0xffffffffffffffffffff\n        /* \"#utility.yul\":1856:1890   */\n      dup2\n      and\n        /* \"#utility.yul\":1846:1891   */\n      dup2\n      eq\n        /* \"#utility.yul\":1836:1909   */\n      tag_312\n      jumpi\n        /* \"#utility.yul\":1905:1906   */\n      0x00\n        /* \"#utility.yul\":1902:1903   */\n      0x00\n        /* \"#utility.yul\":1895:1907   */\n      revert\n        /* \"#utility.yul\":1836:1909   */\n    tag_312:\n        /* \"#utility.yul\":1736:1915   */\n      swap2\n      swap1\n      pop\n      jump\t// out\n        /* \"#utility.yul\":1920:2491   */\n    tag_105:\n        /* \"#utility.yul\":2023:2029   */\n      0x00\n        /* \"#utility.yul\":2031:2037   */\n      0x00\n        /* \"#utility.yul\":2039:2045   */\n      0x00\n        /* \"#utility.yul\":2047:2053   */\n      0x00\n        /* \"#utility.yul\":2055:2061   */\n      0x00\n        /* \"#utility.yul\":2108:2111   */\n      0xa0\n        /* \"#utility.yul\":2096:2105   */\n      dup7\n        /* \"#utility.yul\":2087:2094   */\n      dup9\n        /* \"#utility.yul\":2083:2106   */\n      sub\n        /* \"#utility.yul\":2079:2112   */\n      slt\n        /* \"#utility.yul\":2076:2129   */\n      iszero\n      tag_314\n      jumpi\n        /* \"#utility.yul\":2125:2126   */\n      0x00\n        /* \"#utility.yul\":2122:2123   */\n      0x00\n        /* \"#utility.yul\":2115:2127   */\n      revert\n        /* \"#utility.yul\":2076:2129   */\n    tag_314:\n        /* \"#utility.yul\":2148:2187   */\n      tag_315\n        /* \"#utility.yul\":2177:2186   */\n      dup7\n        /* \"#utility.yul\":2148:2187   */\n      tag_297\n      jump\t// in\n    tag_315:\n        /* \"#utility.yul\":2227:2229   */\n      0x20\n        /* \"#utility.yul\":2212:2230   */\n      dup8\n      add\n        /* \"#utility.yul\":2206:2231   */\n      mload\n        /* \"#utility.yul\":2293:2295   */\n      0x40\n        /* \"#utility.yul\":2278:2296   */\n      dup9\n      add\n        /* \"#utility.yul\":2272:2297   */\n      mload\n        /* \"#utility.yul\":2387:2389   */\n      0x60\n        /* \"#utility.yul\":2372:2390   */\n      dup10\n      add\n        /* \"#utility.yul\":2366:2391   */\n      mload\n        /* \"#utility.yul\":2138:2187   */\n      swap3\n      swap8\n      pop\n        /* \"#utility.yul\":2206:2231   */\n      swap1\n      swap6\n      pop\n        /* \"#utility.yul\":2272:2297   */\n      swap4\n      pop\n        /* \"#utility.yul\":2366:2391   */\n      swap2\n      pop\n        /* \"#utility.yul\":2436:2485   */\n      tag_316\n        /* \"#utility.yul\":2480:2483   */\n      0x80\n        /* \"#utility.yul\":2465:2484   */\n      dup8\n      add\n        /* \"#utility.yul\":2436:2485   */\n      tag_297\n      jump\t// in\n    tag_316:\n        /* \"#utility.yul\":2426:2485   */\n      swap1\n      pop\n        /* \"#utility.yul\":1920:2491   */\n      swap3\n      swap6\n      pop\n      swap3\n      swap6\n      swap1\n      swap4\n      pop\n      jump\t// out\n        /* \"#utility.yul\":2835:2962   */\n    tag_298:\n        /* \"#utility.yul\":2896:2906   */\n      0x4e487b71\n        /* \"#utility.yul\":2891:2894   */\n      0xe0\n        /* \"#utility.yul\":2887:2907   */\n      shl\n        /* \"#utility.yul\":2884:2885   */\n      0x00\n        /* \"#utility.yul\":2877:2908   */\n      mstore\n        /* \"#utility.yul\":2927:2931   */\n      0x11\n        /* \"#utility.yul\":2924:2925   */\n      0x04\n        /* \"#utility.yul\":2917:2932   */\n      mstore\n        /* \"#utility.yul\":2951:2955   */\n      0x24\n        /* \"#utility.yul\":2948:2949   */\n      0x00\n        /* \"#utility.yul\":2941:2956   */\n      revert\n        /* \"#utility.yul\":2967:3095   */\n    tag_110:\n        /* \"#utility.yul\":3034:3043   */\n      dup2\n      dup2\n      sub\n        /* \"#utility.yul\":3055:3066   */\n      dup2\n      dup2\n      gt\n        /* \"#utility.yul\":3052:3089   */\n      iszero\n      tag_321\n      jumpi\n        /* \"#utility.yul\":3069:3087   */\n      tag_321\n      tag_298\n      jump\t// in\n    tag_321:\n        /* \"#utility.yul\":2967:3095   */\n      swap3\n      swap2\n      pop\n      pop\n      jump\t// out\n        /* \"#utility.yul\":3433:3558   */\n    tag_119:\n        /* \"#utility.yul\":3498:3507   */\n      dup1\n      dup3\n      add\n        /* \"#utility.yul\":3519:3529   */\n      dup1\n      dup3\n      gt\n        /* \"#utility.yul\":3516:3552   */\n      iszero\n      tag_321\n      jumpi\n        /* \"#utility.yul\":3532:3550   */\n      tag_321\n      tag_298\n      jump\t// in\n        /* \"#utility.yul\":3899:4129   */\n    tag_129:\n        /* \"#utility.yul\":3969:3975   */\n      0x00\n        /* \"#utility.yul\":4022:4024   */\n      0x20\n        /* \"#utility.yul\":4010:4019   */\n      dup3\n        /* \"#utility.yul\":4001:4008   */\n      dup5\n        /* \"#utility.yul\":3997:4020   */\n      sub\n        /* \"#utility.yul\":3993:4025   */\n      slt\n        /* \"#utility.yul\":3990:4042   */\n      iszero\n      tag_328\n      jumpi\n        /* \"#utility.yul\":4038:4039   */\n      0x00\n        /* \"#utility.yul\":4035:4036   */\n      0x00\n        /* \"#utility.yul\":4028:4040   */\n      revert\n        /* \"#utility.yul\":3990:4042   */\n    tag_328:\n      pop\n        /* \"#utility.yul\":4083:4099   */\n      mload\n      swap2\n        /* \"#utility.yul\":3899:4129   */\n      swap1\n      pop\n      jump\t// out\n        /* \"#utility.yul\":4828:4996   */\n    tag_151:\n        /* \"#utility.yul\":4901:4910   */\n      dup1\n      dup3\n      mul\n        /* \"#utility.yul\":4932:4941   */\n      dup2\n      iszero\n        /* \"#utility.yul\":4949:4964   */\n      dup3\n      dup3\n      div\n        /* \"#utility.yul\":4943:4965   */\n      dup5\n      eq\n        /* \"#utility.yul\":4929:4966   */\n      or\n        /* \"#utility.yul\":4919:4990   */\n      tag_321\n      jumpi\n        /* \"#utility.yul\":4970:4988   */\n      tag_321\n      tag_298\n      jump\t// in\n        /* \"#utility.yul\":5001:5218   */\n    tag_153:\n        /* \"#utility.yul\":5041:5042   */\n      0x00\n        /* \"#utility.yul\":5067:5068   */\n      dup3\n        /* \"#utility.yul\":5057:5189   */\n      tag_335\n      jumpi\n        /* \"#utility.yul\":5111:5121   */\n      0x4e487b71\n        /* \"#utility.yul\":5106:5109   */\n      0xe0\n        /* \"#utility.yul\":5102:5122   */\n      shl\n        /* \"#utility.yul\":5099:5100   */\n      0x00\n        /* \"#utility.yul\":5092:5123   */\n      mstore\n        /* \"#utility.yul\":5146:5150   */\n      0x12\n        /* \"#utility.yul\":5143:5144   */\n      0x04\n        /* \"#utility.yul\":5136:5151   */\n      mstore\n        /* \"#utility.yul\":5174:5178   */\n      0x24\n        /* \"#utility.yul\":5171:5172   */\n      0x00\n        /* \"#utility.yul\":5164:5179   */\n      revert\n        /* \"#utility.yul\":5057:5189   */\n    tag_335:\n      pop\n        /* \"#utility.yul\":5203:5212   */\n      div\n      swap1\n        /* \"#utility.yul\":5001:5218   */\n      jump\t// out\n        /* \"#utility.yul\":6754:7055   */\n    tag_252:\n        /* \"#utility.yul\":6883:6886   */\n      0x00\n        /* \"#utility.yul\":6921:6927   */\n      dup3\n        /* \"#utility.yul\":6915:6928   */\n      mload\n        /* \"#utility.yul\":6967:6973   */\n      dup1\n        /* \"#utility.yul\":6960:6964   */\n      0x20\n        /* \"#utility.yul\":6952:6958   */\n      dup6\n        /* \"#utility.yul\":6948:6965   */\n      add\n        /* \"#utility.yul\":6943:6946   */\n      dup5\n        /* \"#utility.yul\":6937:6974   */\n      mcopy\n        /* \"#utility.yul\":7029:7030   */\n      0x00\n        /* \"#utility.yul\":6993:7009   */\n      swap3\n      add\n        /* \"#utility.yul\":7018:7031   */\n      swap2\n      dup3\n      mstore\n      pop\n        /* \"#utility.yul\":6993:7009   */\n      swap2\n        /* \"#utility.yul\":6754:7055   */\n      swap1\n      pop\n      jump\t// out\n        /* \"#utility.yul\":7060:7337   */\n    tag_259:\n        /* \"#utility.yul\":7127:7133   */\n      0x00\n        /* \"#utility.yul\":7180:7182   */\n      0x20\n        /* \"#utility.yul\":7168:7177   */\n      dup3\n        /* \"#utility.yul\":7159:7166   */\n      dup5\n        /* \"#utility.yul\":7155:7178   */\n      sub\n        /* \"#utility.yul\":7151:7183   */\n      slt\n        /* \"#utility.yul\":7148:7200   */\n      iszero\n      tag_343\n      jumpi\n        /* \"#utility.yul\":7196:7197   */\n      0x00\n        /* \"#utility.yul\":7193:7194   */\n      0x00\n        /* \"#utility.yul\":7186:7198   */\n      revert\n        /* \"#utility.yul\":7148:7200   */\n    tag_343:\n        /* \"#utility.yul\":7228:7237   */\n      dup2\n        /* \"#utility.yul\":7222:7238   */\n      mload\n        /* \"#utility.yul\":7281:7286   */\n      dup1\n        /* \"#utility.yul\":7274:7287   */\n      iszero\n        /* \"#utility.yul\":7267:7288   */\n      iszero\n        /* \"#utility.yul\":7260:7265   */\n      dup2\n        /* \"#utility.yul\":7257:7289   */\n      eq\n        /* \"#utility.yul\":7247:7307   */\n      tag_303\n      jumpi\n        /* \"#utility.yul\":7303:7304   */\n      0x00\n        /* \"#utility.yul\":7300:7301   */\n      0x00\n        /* \"#utility.yul\":7293:7305   */\n      revert\n        /* \"#utility.yul\":8309:8444   */\n    tag_287:\n        /* \"#utility.yul\":8348:8351   */\n      0x00\n        /* \"#utility.yul\":8369:8386   */\n      0x01\n      dup3\n      add\n        /* \"#utility.yul\":8366:8409   */\n      tag_350\n      jumpi\n        /* \"#utility.yul\":8389:8407   */\n      tag_350\n      tag_298\n      jump\t// in\n    tag_350:\n      pop\n        /* \"#utility.yul\":8436:8437   */\n      0x01\n        /* \"#utility.yul\":8425:8438   */\n      add\n      swap1\n        /* \"#utility.yul\":8309:8444   */\n      jump\t// out\n\n    auxdata: 0xa264697066735822122007622deb8a0e0df93301fdcbe8c908c14dee22323d32171faabdd837c5b7422964736f6c634300081e0033\n}\n",
				"bytecode": {
					"linkReferences": {},
					"object": "60c060405273ab594600376ec9fd91f8e885dadf0ce036862de060a052348015610027575f5ffd5b5060405161162c38038061162c83398101604081905261004691610141565b60017f9b779b17422d0df92223018b32b4d1fa46e071723d6817e2486d003becc55f00556001600160a01b0382166100b05760405162461bcd60e51b81526020600482015260086024820152672130b2102620a12960c11b60448201526064015b60405180910390fd5b6001600160a01b0381166100f05760405162461bcd60e51b81526020600482015260076024820152664261642044414f60c81b60448201526064016100a7565b6001600160a01b039182166080525f80546001600160a01b031916919092161790556a52b7d2dcc80cd2e4000000600255610172565b80516001600160a01b038116811461013c575f5ffd5b919050565b5f5f60408385031215610152575f5ffd5b61015b83610126565b915061016960208401610126565b90509250929050565b60805160a05161144c6101e05f395f81816101e2015261033e01525f8181610275015281816104d601528181610615015281816106ac0152818161093c01528181610a2601528181610ab801528181610b5601528181610bf801528181610f5b01526110ac015261144c5ff3fe6080604052600436106100fd575f3560e01c80639106d7ba11610092578063d79875eb11610062578063d79875eb146102b3578063d96a094a146102d4578063e7572230146102e7578063f2752d8014610306578063fd3d27b814610324575f5ffd5b80639106d7ba1461023a578063a2724a4d1461024f578063bc96ec5114610264578063c84dc51914610297575f5ffd5b80632820ef51116100cd5780632820ef511461019e57806332cb6b0c146101b2578063741bef1a146101d157806379022a9f1461021c575f5ffd5b80630192d7a0146101085780631770ab4d1461013957806317d6360514610156578063262bc03b14610181575f5ffd5b3661010457005b5f5ffd5b348015610113575f5ffd5b506101266a52b7d2dcc80cd2e400000081565b6040519081526020015b60405180910390f35b348015610144575f5ffd5b5061012669021e19e0c9bab240000081565b348015610161575f5ffd5b5061012661017036600461126c565b60036020525f908152604090205481565b34801561018c575f5ffd5b5061012669010f0cf064dd5920000081565b3480156101a9575f5ffd5b50610126610339565b3480156101bd575f5ffd5b506101266b033b2e3c9fd0803ce800000081565b3480156101dc575f5ffd5b506102047f000000000000000000000000000000000000000000000000000000000000000081565b6040516001600160a01b039091168152602001610130565b348015610227575f5ffd5b505f54610204906001600160a01b031681565b348015610245575f5ffd5b5061012660015481565b34801561025a575f5ffd5b5061012661a8c081565b34801561026f575f5ffd5b506102047f000000000000000000000000000000000000000000000000000000000000000081565b3480156102a2575f5ffd5b5061012668056bc75e2d6310000081565b3480156102be575f5ffd5b506102d26102cd366004611299565b61044c565b005b6102d26102e23660046112b9565b61082d565b3480156102f2575f5ffd5b506101266103013660046112b9565b610da5565b348015610311575f5ffd5b506101266a295be96e6406697200000081565b34801561032f575f5ffd5b5061012660025481565b5f5f5f7f00000000000000000000000000000000000000000000000000000000000000006001600160a01b031663feaf968c6040518163ffffffff1660e01b815260040160a060405180830381865afa158015610398573d5f5f3e3d5ffd5b505050506040513d601f19601f820116820180604052508101906103bc91906112ee565b509350509250505f82136104045760405162461bcd60e51b815260206004820152600a602482015269426164206f7261636c6560b01b60448201526064015b60405180910390fd5b61041061070842611350565b81116104465760405162461bcd60e51b81526020600482015260056024820152645374616c6560d81b60448201526064016103fb565b50919050565b610454610ed6565b335f908152600360205260409020546104709061a8c090611369565b4210156104aa5760405162461bcd60e51b815260206004820152600860248201526721b7b7b63237bbb760c11b60448201526064016103fb565b5f82116104b5575f5ffd5b6040516370a0823160e01b815233600482015269021e19e0c9bab2400000907f00000000000000000000000000000000000000000000000000000000000000006001600160a01b0316906370a0823190602401602060405180830381865afa158015610523573d5f5f3e3d5ffd5b505050506040513d601f19601f82011682018060405250810190610547919061137c565b111561058c5760405162461bcd60e51b815260206004820152601460248201527315d85b1b195d08195e18d959591cc81b1a5b5a5d60621b60448201526064016103fb565b69010f0cf064dd592000008211156105d95760405162461bcd60e51b815260206004820152601060248201526f115e18d959591cc81d1e081b1a5b5a5d60821b60448201526064016103fb565b6001548211156105e7575f5ffd5b5f6105f3600154610da5565b6040516370a0823160e01b81523060048201529091505f906001600160a01b037f000000000000000000000000000000000000000000000000000000000000000016906370a0823190602401602060405180830381865afa15801561065a573d5f5f3e3d5ffd5b505050506040513d601f19601f8201168201806040525081019061067e919061137c565b905061068b333086610f04565b6040516370a0823160e01b81523060048201525f9082906001600160a01b037f000000000000000000000000000000000000000000000000000000000000000016906370a0823190602401602060405180830381865afa1580156106f1573d5f5f3e3d5ffd5b505050506040513d601f19601f82011682018060405250810190610715919061137c565b61071f9190611350565b905080600154101561072f575f5ffd5b5f670de0b6b3a76400006107438584611393565b61074d91906113aa565b90508481101561075b575f5ffd5b80471015610767575f5ffd5b8160015f8282546107789190611350565b90915550506040515f90339083908381818185875af1925050503d805f81146107bc576040519150601f19603f3d011682016040523d82523d5f602084013e6107c1565b606091505b50509050806107ce575f5ffd5b604080518481526020810184905233917fed7a144fad14804d5c249145e3e0e2b63a9eb455b76aee5bc92d711e9bba3e4a910160405180910390a25050335f9081526003602052604090204290555061082991506110379050565b5050565b610835610ed6565b335f908152600360205260409020546108519061a8c090611369565b42101561088b5760405162461bcd60e51b815260206004820152600860248201526721b7b7b63237bbb760c11b60448201526064016103fb565b5f3411610896575f5ffd5b5f6108a2600154610da5565b90505f816108b834670de0b6b3a7640000611393565b6108c291906113aa565b905069010f0cf064dd592000008111156109115760405162461bcd60e51b815260206004820152601060248201526f115e18d959591cc81d1e081b1a5b5a5d60821b60448201526064016103fb565b6040516370a0823160e01b815233600482015269021e19e0c9bab24000009082906001600160a01b037f000000000000000000000000000000000000000000000000000000000000000016906370a0823190602401602060405180830381865afa158015610981573d5f5f3e3d5ffd5b505050506040513d601f19601f820116820180604052508101906109a5919061137c565b6109af9190611369565b11156109f45760405162461bcd60e51b8152602060048201526014602482015273115e18d959591cc81dd85b1b195d081b1a5b5a5d60621b60448201526064016103fb565b60025481600154610a059190611369565b1115610a0f575f5ffd5b6040516370a0823160e01b815230600482015281907f00000000000000000000000000000000000000000000000000000000000000006001600160a01b0316906370a0823190602401602060405180830381865afa158015610a73573d5f5f3e3d5ffd5b505050506040513d601f19601f82011682018060405250810190610a97919061137c565b1015610aa1575f5ffd5b6040516370a0823160e01b81523360048201525f907f00000000000000000000000000000000000000000000000000000000000000006001600160a01b0316906370a0823190602401602060405180830381865afa158015610b05573d5f5f3e3d5ffd5b505050506040513d601f19601f82011682018060405250810190610b29919061137c565b9050610b35338361105d565b6040516370a0823160e01b81523360048201525f9082906001600160a01b037f000000000000000000000000000000000000000000000000000000000000000016906370a0823190602401602060405180830381865afa158015610b9b573d5f5f3e3d5ffd5b505050506040513d601f19601f82011682018060405250810190610bbf919061137c565b610bc99190611350565b905084811015610bd7575f5ffd5b6040516370a0823160e01b815233600482015269021e19e0c9bab2400000907f00000000000000000000000000000000000000000000000000000000000000006001600160a01b0316906370a0823190602401602060405180830381865afa158015610c45573d5f5f3e3d5ffd5b505050506040513d601f19601f82011682018060405250810190610c69919061137c565b1115610cae5760405162461bcd60e51b8152602060048201526014602482015273115e18d959591cc81dd85b1b195d081b1a5b5a5d60621b60448201526064016103fb565b8060015f828254610cbf9190611369565b90915550610ccd9050611183565b5f6064610cdb34600a611393565b610ce591906113aa565b5f805460405192935090916001600160a01b039091169083908381818185875af1925050503d805f8114610d34576040519150601f19603f3d011682016040523d82523d5f602084013e610d39565b606091505b5050905080610d46575f5ffd5b604080513481526020810185905233917f1cbc5ab135991bd2b6a4b034a04aa2aa086dac1371cb9b16b8b5e2ed6b036bed910160405180910390a25050335f90815260036020526040902042905550610da29250611037915050565b50565b5f6b033b2e3c9fd0803ce8000000821115610dca576b033b2e3c9fd0803ce800000091505b6305f5e1006359682f005f6b033b2e3c9fd0803ce8000000610df486670de0b6b3a7640000611393565b610dfe91906113aa565b90505f670de0b6b3a7640000610e148380611393565b610e1e91906113aa565b90505f670de0b6b3a764000082610e358787611350565b610e3f9190611393565b610e4991906113aa565b610e539086611369565b90505f610e5e610339565b90505f81610e7484670de0b6b3a7640000611393565b610e7e91906113aa565b905068056bc75e2d63100000811115610eca5760405162461bcd60e51b815260206004820152600e60248201526d4f7261636c6520616e6f6d616c7960901b60448201526064016103fb565b98975050505050505050565b610ede611228565b60027f9b779b17422d0df92223018b32b4d1fa46e071723d6817e2486d003becc55f0055565b604080516001600160a01b0385811660248301528481166044830152606480830185905283518084039091018152608490920183526020820180516001600160e01b03166323b872dd60e01b17905291515f9283927f000000000000000000000000000000000000000000000000000000000000000090911691610f8891906113c9565b5f604051808303815f865af19150503d805f8114610fc1576040519150601f19603f3d011682016040523d82523d5f602084013e610fc6565b606091505b5091509150818015610ff0575080511580610ff0575080806020019051810190610ff091906113df565b6110305760405162461bcd60e51b8152602060048201526011602482015270151c985b9cd9995c919c9bdb4819985a5b607a1b60448201526064016103fb565b5050505050565b60017f9b779b17422d0df92223018b32b4d1fa46e071723d6817e2486d003becc55f0055565b604080516001600160a01b038481166024830152604480830185905283518084039091018152606490920183526020820180516001600160e01b031663a9059cbb60e01b17905291515f9283927f0000000000000000000000000000000000000000000000000000000000000000909116916110d991906113c9565b5f604051808303815f865af19150503d805f8114611112576040519150601f19603f3d011682016040523d82523d5f602084013e611117565b606091505b509150915081801561114157508051158061114157508080602001905181019061114191906113df565b61117d5760405162461bcd60e51b815260206004820152600d60248201526c151c985b9cd9995c8819985a5b609a1b60448201526064016103fb565b50505050565b5f5b600254600154101580156111995750600a81105b15610da2575f6a295be96e640669720000006002546111b89190611369565b90506b033b2e3c9fd0803ce80000008111156111dd57506b033b2e3c9fd0803ce80000005b60028190556040518181527fc1fa8e88841fa38aed8218549bd24903570c58976a974eb8b3329e98a92a9c3c9060200160405180910390a18161121f816113fe565b92505050611185565b7f9b779b17422d0df92223018b32b4d1fa46e071723d6817e2486d003becc55f005460020361126a57604051633ee5aeb560e01b815260040160405180910390fd5b565b5f6020828403121561127c575f5ffd5b81356001600160a01b0381168114611292575f5ffd5b9392505050565b5f5f604083850312156112aa575f5ffd5b50508035926020909101359150565b5f602082840312156112c9575f5ffd5b5035919050565b805169ffffffffffffffffffff811681146112e9575f5ffd5b919050565b5f5f5f5f5f60a08688031215611302575f5ffd5b61130b866112d0565b60208701516040880151606089015192975090955093509150611330608087016112d0565b90509295509295909350565b634e487b7160e01b5f52601160045260245ffd5b818103818111156113635761136361133c565b92915050565b808201808211156113635761136361133c565b5f6020828403121561138c575f5ffd5b5051919050565b80820281158282048414176113635761136361133c565b5f826113c457634e487b7160e01b5f52601260045260245ffd5b500490565b5f82518060208501845e5f920191825250919050565b5f602082840312156113ef575f5ffd5b81518015158114611292575f5ffd5b5f6001820161140f5761140f61133c565b506001019056fea264697066735822122007622deb8a0e0df93301fdcbe8c908c14dee22323d32171faabdd837c5b7422964736f6c634300081e0033",
					"opcodes": "PUSH1 0xC0 PUSH1 0x40 MSTORE PUSH20 0xAB594600376EC9FD91F8E885DADF0CE036862DE0 PUSH1 0xA0 MSTORE CALLVALUE DUP1 ISZERO PUSH2 0x27 JUMPI PUSH0 PUSH0 REVERT JUMPDEST POP PUSH1 0x40 MLOAD PUSH2 0x162C CODESIZE SUB DUP1 PUSH2 0x162C DUP4 CODECOPY DUP2 ADD PUSH1 0x40 DUP2 SWAP1 MSTORE PUSH2 0x46 SWAP2 PUSH2 0x141 JUMP JUMPDEST PUSH1 0x1 PUSH32 0x9B779B17422D0DF92223018B32B4D1FA46E071723D6817E2486D003BECC55F00 SSTORE PUSH1 0x1 PUSH1 0x1 PUSH1 0xA0 SHL SUB DUP3 AND PUSH2 0xB0 JUMPI PUSH1 0x40 MLOAD PUSH3 0x461BCD PUSH1 0xE5 SHL DUP2 MSTORE PUSH1 0x20 PUSH1 0x4 DUP3 ADD MSTORE PUSH1 0x8 PUSH1 0x24 DUP3 ADD MSTORE PUSH8 0x2130B2102620A129 PUSH1 0xC1 SHL PUSH1 0x44 DUP3 ADD MSTORE PUSH1 0x64 ADD JUMPDEST PUSH1 0x40 MLOAD DUP1 SWAP2 SUB SWAP1 REVERT JUMPDEST PUSH1 0x1 PUSH1 0x1 PUSH1 0xA0 SHL SUB DUP2 AND PUSH2 0xF0 JUMPI PUSH1 0x40 MLOAD PUSH3 0x461BCD PUSH1 0xE5 SHL DUP2 MSTORE PUSH1 0x20 PUSH1 0x4 DUP3 ADD MSTORE PUSH1 0x7 PUSH1 0x24 DUP3 ADD MSTORE PUSH7 0x4261642044414F PUSH1 0xC8 SHL PUSH1 0x44 DUP3 ADD MSTORE PUSH1 0x64 ADD PUSH2 0xA7 JUMP JUMPDEST PUSH1 0x1 PUSH1 0x1 PUSH1 0xA0 SHL SUB SWAP2 DUP3 AND PUSH1 0x80 MSTORE PUSH0 DUP1 SLOAD PUSH1 0x1 PUSH1 0x1 PUSH1 0xA0 SHL SUB NOT AND SWAP2 SWAP1 SWAP3 AND OR SWAP1 SSTORE PUSH11 0x52B7D2DCC80CD2E4000000 PUSH1 0x2 SSTORE PUSH2 0x172 JUMP JUMPDEST DUP1 MLOAD PUSH1 0x1 PUSH1 0x1 PUSH1 0xA0 SHL SUB DUP2 AND DUP2 EQ PUSH2 0x13C JUMPI PUSH0 PUSH0 REVERT JUMPDEST SWAP2 SWAP1 POP JUMP JUMPDEST PUSH0 PUSH0 PUSH1 0x40 DUP4 DUP6 SUB SLT ISZERO PUSH2 0x152 JUMPI PUSH0 PUSH0 REVERT JUMPDEST PUSH2 0x15B DUP4 PUSH2 0x126 JUMP JUMPDEST SWAP2 POP PUSH2 0x169 PUSH1 0x20 DUP5 ADD PUSH2 0x126 JUMP JUMPDEST SWAP1 POP SWAP3 POP SWAP3 SWAP1 POP JUMP JUMPDEST PUSH1 0x80 MLOAD PUSH1 0xA0 MLOAD PUSH2 0x144C PUSH2 0x1E0 PUSH0 CODECOPY PUSH0 DUP2 DUP2 PUSH2 0x1E2 ADD MSTORE PUSH2 0x33E ADD MSTORE PUSH0 DUP2 DUP2 PUSH2 0x275 ADD MSTORE DUP2 DUP2 PUSH2 0x4D6 ADD MSTORE DUP2 DUP2 PUSH2 0x615 ADD MSTORE DUP2 DUP2 PUSH2 0x6AC ADD MSTORE DUP2 DUP2 PUSH2 0x93C ADD MSTORE DUP2 DUP2 PUSH2 0xA26 ADD MSTORE DUP2 DUP2 PUSH2 0xAB8 ADD MSTORE DUP2 DUP2 PUSH2 0xB56 ADD MSTORE DUP2 DUP2 PUSH2 0xBF8 ADD MSTORE DUP2 DUP2 PUSH2 0xF5B ADD MSTORE PUSH2 0x10AC ADD MSTORE PUSH2 0x144C PUSH0 RETURN INVALID PUSH1 0x80 PUSH1 0x40 MSTORE PUSH1 0x4 CALLDATASIZE LT PUSH2 0xFD JUMPI PUSH0 CALLDATALOAD PUSH1 0xE0 SHR DUP1 PUSH4 0x9106D7BA GT PUSH2 0x92 JUMPI DUP1 PUSH4 0xD79875EB GT PUSH2 0x62 JUMPI DUP1 PUSH4 0xD79875EB EQ PUSH2 0x2B3 JUMPI DUP1 PUSH4 0xD96A094A EQ PUSH2 0x2D4 JUMPI DUP1 PUSH4 0xE7572230 EQ PUSH2 0x2E7 JUMPI DUP1 PUSH4 0xF2752D80 EQ PUSH2 0x306 JUMPI DUP1 PUSH4 0xFD3D27B8 EQ PUSH2 0x324 JUMPI PUSH0 PUSH0 REVERT JUMPDEST DUP1 PUSH4 0x9106D7BA EQ PUSH2 0x23A JUMPI DUP1 PUSH4 0xA2724A4D EQ PUSH2 0x24F JUMPI DUP1 PUSH4 0xBC96EC51 EQ PUSH2 0x264 JUMPI DUP1 PUSH4 0xC84DC519 EQ PUSH2 0x297 JUMPI PUSH0 PUSH0 REVERT JUMPDEST DUP1 PUSH4 0x2820EF51 GT PUSH2 0xCD JUMPI DUP1 PUSH4 0x2820EF51 EQ PUSH2 0x19E JUMPI DUP1 PUSH4 0x32CB6B0C EQ PUSH2 0x1B2 JUMPI DUP1 PUSH4 0x741BEF1A EQ PUSH2 0x1D1 JUMPI DUP1 PUSH4 0x79022A9F EQ PUSH2 0x21C JUMPI PUSH0 PUSH0 REVERT JUMPDEST DUP1 PUSH4 0x192D7A0 EQ PUSH2 0x108 JUMPI DUP1 PUSH4 0x1770AB4D EQ PUSH2 0x139 JUMPI DUP1 PUSH4 0x17D63605 EQ PUSH2 0x156 JUMPI DUP1 PUSH4 0x262BC03B EQ PUSH2 0x181 JUMPI PUSH0 PUSH0 REVERT JUMPDEST CALLDATASIZE PUSH2 0x104 JUMPI STOP JUMPDEST PUSH0 PUSH0 REVERT JUMPDEST CALLVALUE DUP1 ISZERO PUSH2 0x113 JUMPI PUSH0 PUSH0 REVERT JUMPDEST POP PUSH2 0x126 PUSH11 0x52B7D2DCC80CD2E4000000 DUP2 JUMP JUMPDEST PUSH1 0x40 MLOAD SWAP1 DUP2 MSTORE PUSH1 0x20 ADD JUMPDEST PUSH1 0x40 MLOAD DUP1 SWAP2 SUB SWAP1 RETURN JUMPDEST CALLVALUE DUP1 ISZERO PUSH2 0x144 JUMPI PUSH0 PUSH0 REVERT JUMPDEST POP PUSH2 0x126 PUSH10 0x21E19E0C9BAB2400000 DUP2 JUMP JUMPDEST CALLVALUE DUP1 ISZERO PUSH2 0x161 JUMPI PUSH0 PUSH0 REVERT JUMPDEST POP PUSH2 0x126 PUSH2 0x170 CALLDATASIZE PUSH1 0x4 PUSH2 0x126C JUMP JUMPDEST PUSH1 0x3 PUSH1 0x20 MSTORE PUSH0 SWAP1 DUP2 MSTORE PUSH1 0x40 SWAP1 KECCAK256 SLOAD DUP2 JUMP JUMPDEST CALLVALUE DUP1 ISZERO PUSH2 0x18C JUMPI PUSH0 PUSH0 REVERT JUMPDEST POP PUSH2 0x126 PUSH10 0x10F0CF064DD59200000 DUP2 JUMP JUMPDEST CALLVALUE DUP1 ISZERO PUSH2 0x1A9 JUMPI PUSH0 PUSH0 REVERT JUMPDEST POP PUSH2 0x126 PUSH2 0x339 JUMP JUMPDEST CALLVALUE DUP1 ISZERO PUSH2 0x1BD JUMPI PUSH0 PUSH0 REVERT JUMPDEST POP PUSH2 0x126 PUSH12 0x33B2E3C9FD0803CE8000000 DUP2 JUMP JUMPDEST CALLVALUE DUP1 ISZERO PUSH2 0x1DC JUMPI PUSH0 PUSH0 REVERT JUMPDEST POP PUSH2 0x204 PUSH32 0x0 DUP2 JUMP JUMPDEST PUSH1 0x40 MLOAD PUSH1 0x1 PUSH1 0x1 PUSH1 0xA0 SHL SUB SWAP1 SWAP2 AND DUP2 MSTORE PUSH1 0x20 ADD PUSH2 0x130 JUMP JUMPDEST CALLVALUE DUP1 ISZERO PUSH2 0x227 JUMPI PUSH0 PUSH0 REVERT JUMPDEST POP PUSH0 SLOAD PUSH2 0x204 SWAP1 PUSH1 0x1 PUSH1 0x1 PUSH1 0xA0 SHL SUB AND DUP2 JUMP JUMPDEST CALLVALUE DUP1 ISZERO PUSH2 0x245 JUMPI PUSH0 PUSH0 REVERT JUMPDEST POP PUSH2 0x126 PUSH1 0x1 SLOAD DUP2 JUMP JUMPDEST CALLVALUE DUP1 ISZERO PUSH2 0x25A JUMPI PUSH0 PUSH0 REVERT JUMPDEST POP PUSH2 0x126 PUSH2 0xA8C0 DUP2 JUMP JUMPDEST CALLVALUE DUP1 ISZERO PUSH2 0x26F JUMPI PUSH0 PUSH0 REVERT JUMPDEST POP PUSH2 0x204 PUSH32 0x0 DUP2 JUMP JUMPDEST CALLVALUE DUP1 ISZERO PUSH2 0x2A2 JUMPI PUSH0 PUSH0 REVERT JUMPDEST POP PUSH2 0x126 PUSH9 0x56BC75E2D63100000 DUP2 JUMP JUMPDEST CALLVALUE DUP1 ISZERO PUSH2 0x2BE JUMPI PUSH0 PUSH0 REVERT JUMPDEST POP PUSH2 0x2D2 PUSH2 0x2CD CALLDATASIZE PUSH1 0x4 PUSH2 0x1299 JUMP JUMPDEST PUSH2 0x44C JUMP JUMPDEST STOP JUMPDEST PUSH2 0x2D2 PUSH2 0x2E2 CALLDATASIZE PUSH1 0x4 PUSH2 0x12B9 JUMP JUMPDEST PUSH2 0x82D JUMP JUMPDEST CALLVALUE DUP1 ISZERO PUSH2 0x2F2 JUMPI PUSH0 PUSH0 REVERT JUMPDEST POP PUSH2 0x126 PUSH2 0x301 CALLDATASIZE PUSH1 0x4 PUSH2 0x12B9 JUMP JUMPDEST PUSH2 0xDA5 JUMP JUMPDEST CALLVALUE DUP1 ISZERO PUSH2 0x311 JUMPI PUSH0 PUSH0 REVERT JUMPDEST POP PUSH2 0x126 PUSH11 0x295BE96E64066972000000 DUP2 JUMP JUMPDEST CALLVALUE DUP1 ISZERO PUSH2 0x32F JUMPI PUSH0 PUSH0 REVERT JUMPDEST POP PUSH2 0x126 PUSH1 0x2 SLOAD DUP2 JUMP JUMPDEST PUSH0 PUSH0 PUSH0 PUSH32 0x0 PUSH1 0x1 PUSH1 0x1 PUSH1 0xA0 SHL SUB AND PUSH4 0xFEAF968C PUSH1 0x40 MLOAD DUP2 PUSH4 0xFFFFFFFF AND PUSH1 0xE0 SHL DUP2 MSTORE PUSH1 0x4 ADD PUSH1 0xA0 PUSH1 0x40 MLOAD DUP1 DUP4 SUB DUP2 DUP7 GAS STATICCALL ISZERO DUP1 ISZERO PUSH2 0x398 JUMPI RETURNDATASIZE PUSH0 PUSH0 RETURNDATACOPY RETURNDATASIZE PUSH0 REVERT JUMPDEST POP POP POP POP PUSH1 0x40 MLOAD RETURNDATASIZE PUSH1 0x1F NOT PUSH1 0x1F DUP3 ADD AND DUP3 ADD DUP1 PUSH1 0x40 MSTORE POP DUP2 ADD SWAP1 PUSH2 0x3BC SWAP2 SWAP1 PUSH2 0x12EE JUMP JUMPDEST POP SWAP4 POP POP SWAP3 POP POP PUSH0 DUP3 SGT PUSH2 0x404 JUMPI PUSH1 0x40 MLOAD PUSH3 0x461BCD PUSH1 0xE5 SHL DUP2 MSTORE PUSH1 0x20 PUSH1 0x4 DUP3 ADD MSTORE PUSH1 0xA PUSH1 0x24 DUP3 ADD MSTORE PUSH10 0x426164206F7261636C65 PUSH1 0xB0 SHL PUSH1 0x44 DUP3 ADD MSTORE PUSH1 0x64 ADD JUMPDEST PUSH1 0x40 MLOAD DUP1 SWAP2 SUB SWAP1 REVERT JUMPDEST PUSH2 0x410 PUSH2 0x708 TIMESTAMP PUSH2 0x1350 JUMP JUMPDEST DUP2 GT PUSH2 0x446 JUMPI PUSH1 0x40 MLOAD PUSH3 0x461BCD PUSH1 0xE5 SHL DUP2 MSTORE PUSH1 0x20 PUSH1 0x4 DUP3 ADD MSTORE PUSH1 0x5 PUSH1 0x24 DUP3 ADD MSTORE PUSH5 0x5374616C65 PUSH1 0xD8 SHL PUSH1 0x44 DUP3 ADD MSTORE PUSH1 0x64 ADD PUSH2 0x3FB JUMP JUMPDEST POP SWAP2 SWAP1 POP JUMP JUMPDEST PUSH2 0x454 PUSH2 0xED6 JUMP JUMPDEST CALLER PUSH0 SWAP1 DUP2 MSTORE PUSH1 0x3 PUSH1 0x20 MSTORE PUSH1 0x40 SWAP1 KECCAK256 SLOAD PUSH2 0x470 SWAP1 PUSH2 0xA8C0 SWAP1 PUSH2 0x1369 JUMP JUMPDEST TIMESTAMP LT ISZERO PUSH2 0x4AA JUMPI PUSH1 0x40 MLOAD PUSH3 0x461BCD PUSH1 0xE5 SHL DUP2 MSTORE PUSH1 0x20 PUSH1 0x4 DUP3 ADD MSTORE PUSH1 0x8 PUSH1 0x24 DUP3 ADD MSTORE PUSH8 0x21B7B7B63237BBB7 PUSH1 0xC1 SHL PUSH1 0x44 DUP3 ADD MSTORE PUSH1 0x64 ADD PUSH2 0x3FB JUMP JUMPDEST PUSH0 DUP3 GT PUSH2 0x4B5 JUMPI PUSH0 PUSH0 REVERT JUMPDEST PUSH1 0x40 MLOAD PUSH4 0x70A08231 PUSH1 0xE0 SHL DUP2 MSTORE CALLER PUSH1 0x4 DUP3 ADD MSTORE PUSH10 0x21E19E0C9BAB2400000 SWAP1 PUSH32 0x0 PUSH1 0x1 PUSH1 0x1 PUSH1 0xA0 SHL SUB AND SWAP1 PUSH4 0x70A08231 SWAP1 PUSH1 0x24 ADD PUSH1 0x20 PUSH1 0x40 MLOAD DUP1 DUP4 SUB DUP2 DUP7 GAS STATICCALL ISZERO DUP1 ISZERO PUSH2 0x523 JUMPI RETURNDATASIZE PUSH0 PUSH0 RETURNDATACOPY RETURNDATASIZE PUSH0 REVERT JUMPDEST POP POP POP POP PUSH1 0x40 MLOAD RETURNDATASIZE PUSH1 0x1F NOT PUSH1 0x1F DUP3 ADD AND DUP3 ADD DUP1 PUSH1 0x40 MSTORE POP DUP2 ADD SWAP1 PUSH2 0x547 SWAP2 SWAP1 PUSH2 0x137C JUMP JUMPDEST GT ISZERO PUSH2 0x58C JUMPI PUSH1 0x40 MLOAD PUSH3 0x461BCD PUSH1 0xE5 SHL DUP2 MSTORE PUSH1 0x20 PUSH1 0x4 DUP3 ADD MSTORE PUSH1 0x14 PUSH1 0x24 DUP3 ADD MSTORE PUSH20 0x15D85B1B195D08195E18D959591CC81B1A5B5A5D PUSH1 0x62 SHL PUSH1 0x44 DUP3 ADD MSTORE PUSH1 0x64 ADD PUSH2 0x3FB JUMP JUMPDEST PUSH10 0x10F0CF064DD59200000 DUP3 GT ISZERO PUSH2 0x5D9 JUMPI PUSH1 0x40 MLOAD PUSH3 0x461BCD PUSH1 0xE5 SHL DUP2 MSTORE PUSH1 0x20 PUSH1 0x4 DUP3 ADD MSTORE PUSH1 0x10 PUSH1 0x24 DUP3 ADD MSTORE PUSH16 0x115E18D959591CC81D1E081B1A5B5A5D PUSH1 0x82 SHL PUSH1 0x44 DUP3 ADD MSTORE PUSH1 0x64 ADD PUSH2 0x3FB JUMP JUMPDEST PUSH1 0x1 SLOAD DUP3 GT ISZERO PUSH2 0x5E7 JUMPI PUSH0 PUSH0 REVERT JUMPDEST PUSH0 PUSH2 0x5F3 PUSH1 0x1 SLOAD PUSH2 0xDA5 JUMP JUMPDEST PUSH1 0x40 MLOAD PUSH4 0x70A08231 PUSH1 0xE0 SHL DUP2 MSTORE ADDRESS PUSH1 0x4 DUP3 ADD MSTORE SWAP1 SWAP2 POP PUSH0 SWAP1 PUSH1 0x1 PUSH1 0x1 PUSH1 0xA0 SHL SUB PUSH32 0x0 AND SWAP1 PUSH4 0x70A08231 SWAP1 PUSH1 0x24 ADD PUSH1 0x20 PUSH1 0x40 MLOAD DUP1 DUP4 SUB DUP2 DUP7 GAS STATICCALL ISZERO DUP1 ISZERO PUSH2 0x65A JUMPI RETURNDATASIZE PUSH0 PUSH0 RETURNDATACOPY RETURNDATASIZE PUSH0 REVERT JUMPDEST POP POP POP POP PUSH1 0x40 MLOAD RETURNDATASIZE PUSH1 0x1F NOT PUSH1 0x1F DUP3 ADD AND DUP3 ADD DUP1 PUSH1 0x40 MSTORE POP DUP2 ADD SWAP1 PUSH2 0x67E SWAP2 SWAP1 PUSH2 0x137C JUMP JUMPDEST SWAP1 POP PUSH2 0x68B CALLER ADDRESS DUP7 PUSH2 0xF04 JUMP JUMPDEST PUSH1 0x40 MLOAD PUSH4 0x70A08231 PUSH1 0xE0 SHL DUP2 MSTORE ADDRESS PUSH1 0x4 DUP3 ADD MSTORE PUSH0 SWAP1 DUP3 SWAP1 PUSH1 0x1 PUSH1 0x1 PUSH1 0xA0 SHL SUB PUSH32 0x0 AND SWAP1 PUSH4 0x70A08231 SWAP1 PUSH1 0x24 ADD PUSH1 0x20 PUSH1 0x40 MLOAD DUP1 DUP4 SUB DUP2 DUP7 GAS STATICCALL ISZERO DUP1 ISZERO PUSH2 0x6F1 JUMPI RETURNDATASIZE PUSH0 PUSH0 RETURNDATACOPY RETURNDATASIZE PUSH0 REVERT JUMPDEST POP POP POP POP PUSH1 0x40 MLOAD RETURNDATASIZE PUSH1 0x1F NOT PUSH1 0x1F DUP3 ADD AND DUP3 ADD DUP1 PUSH1 0x40 MSTORE POP DUP2 ADD SWAP1 PUSH2 0x715 SWAP2 SWAP1 PUSH2 0x137C JUMP JUMPDEST PUSH2 0x71F SWAP2 SWAP1 PUSH2 0x1350 JUMP JUMPDEST SWAP1 POP DUP1 PUSH1 0x1 SLOAD LT ISZERO PUSH2 0x72F JUMPI PUSH0 PUSH0 REVERT JUMPDEST PUSH0 PUSH8 0xDE0B6B3A7640000 PUSH2 0x743 DUP6 DUP5 PUSH2 0x1393 JUMP JUMPDEST PUSH2 0x74D SWAP2 SWAP1 PUSH2 0x13AA JUMP JUMPDEST SWAP1 POP DUP5 DUP2 LT ISZERO PUSH2 0x75B JUMPI PUSH0 PUSH0 REVERT JUMPDEST DUP1 SELFBALANCE LT ISZERO PUSH2 0x767 JUMPI PUSH0 PUSH0 REVERT JUMPDEST DUP2 PUSH1 0x1 PUSH0 DUP3 DUP3 SLOAD PUSH2 0x778 SWAP2 SWAP1 PUSH2 0x1350 JUMP JUMPDEST SWAP1 SWAP2 SSTORE POP POP PUSH1 0x40 MLOAD PUSH0 SWAP1 CALLER SWAP1 DUP4 SWAP1 DUP4 DUP2 DUP2 DUP2 DUP6 DUP8 GAS CALL SWAP3 POP POP POP RETURNDATASIZE DUP1 PUSH0 DUP2 EQ PUSH2 0x7BC JUMPI PUSH1 0x40 MLOAD SWAP2 POP PUSH1 0x1F NOT PUSH1 0x3F RETURNDATASIZE ADD AND DUP3 ADD PUSH1 0x40 MSTORE RETURNDATASIZE DUP3 MSTORE RETURNDATASIZE PUSH0 PUSH1 0x20 DUP5 ADD RETURNDATACOPY PUSH2 0x7C1 JUMP JUMPDEST PUSH1 0x60 SWAP2 POP JUMPDEST POP POP SWAP1 POP DUP1 PUSH2 0x7CE JUMPI PUSH0 PUSH0 REVERT JUMPDEST PUSH1 0x40 DUP1 MLOAD DUP5 DUP2 MSTORE PUSH1 0x20 DUP2 ADD DUP5 SWAP1 MSTORE CALLER SWAP2 PUSH32 0xED7A144FAD14804D5C249145E3E0E2B63A9EB455B76AEE5BC92D711E9BBA3E4A SWAP2 ADD PUSH1 0x40 MLOAD DUP1 SWAP2 SUB SWAP1 LOG2 POP POP CALLER PUSH0 SWAP1 DUP2 MSTORE PUSH1 0x3 PUSH1 0x20 MSTORE PUSH1 0x40 SWAP1 KECCAK256 TIMESTAMP SWAP1 SSTORE POP PUSH2 0x829 SWAP2 POP PUSH2 0x1037 SWAP1 POP JUMP JUMPDEST POP POP JUMP JUMPDEST PUSH2 0x835 PUSH2 0xED6 JUMP JUMPDEST CALLER PUSH0 SWAP1 DUP2 MSTORE PUSH1 0x3 PUSH1 0x20 MSTORE PUSH1 0x40 SWAP1 KECCAK256 SLOAD PUSH2 0x851 SWAP1 PUSH2 0xA8C0 SWAP1 PUSH2 0x1369 JUMP JUMPDEST TIMESTAMP LT ISZERO PUSH2 0x88B JUMPI PUSH1 0x40 MLOAD PUSH3 0x461BCD PUSH1 0xE5 SHL DUP2 MSTORE PUSH1 0x20 PUSH1 0x4 DUP3 ADD MSTORE PUSH1 0x8 PUSH1 0x24 DUP3 ADD MSTORE PUSH8 0x21B7B7B63237BBB7 PUSH1 0xC1 SHL PUSH1 0x44 DUP3 ADD MSTORE PUSH1 0x64 ADD PUSH2 0x3FB JUMP JUMPDEST PUSH0 CALLVALUE GT PUSH2 0x896 JUMPI PUSH0 PUSH0 REVERT JUMPDEST PUSH0 PUSH2 0x8A2 PUSH1 0x1 SLOAD PUSH2 0xDA5 JUMP JUMPDEST SWAP1 POP PUSH0 DUP2 PUSH2 0x8B8 CALLVALUE PUSH8 0xDE0B6B3A7640000 PUSH2 0x1393 JUMP JUMPDEST PUSH2 0x8C2 SWAP2 SWAP1 PUSH2 0x13AA JUMP JUMPDEST SWAP1 POP PUSH10 0x10F0CF064DD59200000 DUP2 GT ISZERO PUSH2 0x911 JUMPI PUSH1 0x40 MLOAD PUSH3 0x461BCD PUSH1 0xE5 SHL DUP2 MSTORE PUSH1 0x20 PUSH1 0x4 DUP3 ADD MSTORE PUSH1 0x10 PUSH1 0x24 DUP3 ADD MSTORE PUSH16 0x115E18D959591CC81D1E081B1A5B5A5D PUSH1 0x82 SHL PUSH1 0x44 DUP3 ADD MSTORE PUSH1 0x64 ADD PUSH2 0x3FB JUMP JUMPDEST PUSH1 0x40 MLOAD PUSH4 0x70A08231 PUSH1 0xE0 SHL DUP2 MSTORE CALLER PUSH1 0x4 DUP3 ADD MSTORE PUSH10 0x21E19E0C9BAB2400000 SWAP1 DUP3 SWAP1 PUSH1 0x1 PUSH1 0x1 PUSH1 0xA0 SHL SUB PUSH32 0x0 AND SWAP1 PUSH4 0x70A08231 SWAP1 PUSH1 0x24 ADD PUSH1 0x20 PUSH1 0x40 MLOAD DUP1 DUP4 SUB DUP2 DUP7 GAS STATICCALL ISZERO DUP1 ISZERO PUSH2 0x981 JUMPI RETURNDATASIZE PUSH0 PUSH0 RETURNDATACOPY RETURNDATASIZE PUSH0 REVERT JUMPDEST POP POP POP POP PUSH1 0x40 MLOAD RETURNDATASIZE PUSH1 0x1F NOT PUSH1 0x1F DUP3 ADD AND DUP3 ADD DUP1 PUSH1 0x40 MSTORE POP DUP2 ADD SWAP1 PUSH2 0x9A5 SWAP2 SWAP1 PUSH2 0x137C JUMP JUMPDEST PUSH2 0x9AF SWAP2 SWAP1 PUSH2 0x1369 JUMP JUMPDEST GT ISZERO PUSH2 0x9F4 JUMPI PUSH1 0x40 MLOAD PUSH3 0x461BCD PUSH1 0xE5 SHL DUP2 MSTORE PUSH1 0x20 PUSH1 0x4 DUP3 ADD MSTORE PUSH1 0x14 PUSH1 0x24 DUP3 ADD MSTORE PUSH20 0x115E18D959591CC81DD85B1B195D081B1A5B5A5D PUSH1 0x62 SHL PUSH1 0x44 DUP3 ADD MSTORE PUSH1 0x64 ADD PUSH2 0x3FB JUMP JUMPDEST PUSH1 0x2 SLOAD DUP2 PUSH1 0x1 SLOAD PUSH2 0xA05 SWAP2 SWAP1 PUSH2 0x1369 JUMP JUMPDEST GT ISZERO PUSH2 0xA0F JUMPI PUSH0 PUSH0 REVERT JUMPDEST PUSH1 0x40 MLOAD PUSH4 0x70A08231 PUSH1 0xE0 SHL DUP2 MSTORE ADDRESS PUSH1 0x4 DUP3 ADD MSTORE DUP2 SWAP1 PUSH32 0x0 PUSH1 0x1 PUSH1 0x1 PUSH1 0xA0 SHL SUB AND SWAP1 PUSH4 0x70A08231 SWAP1 PUSH1 0x24 ADD PUSH1 0x20 PUSH1 0x40 MLOAD DUP1 DUP4 SUB DUP2 DUP7 GAS STATICCALL ISZERO DUP1 ISZERO PUSH2 0xA73 JUMPI RETURNDATASIZE PUSH0 PUSH0 RETURNDATACOPY RETURNDATASIZE PUSH0 REVERT JUMPDEST POP POP POP POP PUSH1 0x40 MLOAD RETURNDATASIZE PUSH1 0x1F NOT PUSH1 0x1F DUP3 ADD AND DUP3 ADD DUP1 PUSH1 0x40 MSTORE POP DUP2 ADD SWAP1 PUSH2 0xA97 SWAP2 SWAP1 PUSH2 0x137C JUMP JUMPDEST LT ISZERO PUSH2 0xAA1 JUMPI PUSH0 PUSH0 REVERT JUMPDEST PUSH1 0x40 MLOAD PUSH4 0x70A08231 PUSH1 0xE0 SHL DUP2 MSTORE CALLER PUSH1 0x4 DUP3 ADD MSTORE PUSH0 SWAP1 PUSH32 0x0 PUSH1 0x1 PUSH1 0x1 PUSH1 0xA0 SHL SUB AND SWAP1 PUSH4 0x70A08231 SWAP1 PUSH1 0x24 ADD PUSH1 0x20 PUSH1 0x40 MLOAD DUP1 DUP4 SUB DUP2 DUP7 GAS STATICCALL ISZERO DUP1 ISZERO PUSH2 0xB05 JUMPI RETURNDATASIZE PUSH0 PUSH0 RETURNDATACOPY RETURNDATASIZE PUSH0 REVERT JUMPDEST POP POP POP POP PUSH1 0x40 MLOAD RETURNDATASIZE PUSH1 0x1F NOT PUSH1 0x1F DUP3 ADD AND DUP3 ADD DUP1 PUSH1 0x40 MSTORE POP DUP2 ADD SWAP1 PUSH2 0xB29 SWAP2 SWAP1 PUSH2 0x137C JUMP JUMPDEST SWAP1 POP PUSH2 0xB35 CALLER DUP4 PUSH2 0x105D JUMP JUMPDEST PUSH1 0x40 MLOAD PUSH4 0x70A08231 PUSH1 0xE0 SHL DUP2 MSTORE CALLER PUSH1 0x4 DUP3 ADD MSTORE PUSH0 SWAP1 DUP3 SWAP1 PUSH1 0x1 PUSH1 0x1 PUSH1 0xA0 SHL SUB PUSH32 0x0 AND SWAP1 PUSH4 0x70A08231 SWAP1 PUSH1 0x24 ADD PUSH1 0x20 PUSH1 0x40 MLOAD DUP1 DUP4 SUB DUP2 DUP7 GAS STATICCALL ISZERO DUP1 ISZERO PUSH2 0xB9B JUMPI RETURNDATASIZE PUSH0 PUSH0 RETURNDATACOPY RETURNDATASIZE PUSH0 REVERT JUMPDEST POP POP POP POP PUSH1 0x40 MLOAD RETURNDATASIZE PUSH1 0x1F NOT PUSH1 0x1F DUP3 ADD AND DUP3 ADD DUP1 PUSH1 0x40 MSTORE POP DUP2 ADD SWAP1 PUSH2 0xBBF SWAP2 SWAP1 PUSH2 0x137C JUMP JUMPDEST PUSH2 0xBC9 SWAP2 SWAP1 PUSH2 0x1350 JUMP JUMPDEST SWAP1 POP DUP5 DUP2 LT ISZERO PUSH2 0xBD7 JUMPI PUSH0 PUSH0 REVERT JUMPDEST PUSH1 0x40 MLOAD PUSH4 0x70A08231 PUSH1 0xE0 SHL DUP2 MSTORE CALLER PUSH1 0x4 DUP3 ADD MSTORE PUSH10 0x21E19E0C9BAB2400000 SWAP1 PUSH32 0x0 PUSH1 0x1 PUSH1 0x1 PUSH1 0xA0 SHL SUB AND SWAP1 PUSH4 0x70A08231 SWAP1 PUSH1 0x24 ADD PUSH1 0x20 PUSH1 0x40 MLOAD DUP1 DUP4 SUB DUP2 DUP7 GAS STATICCALL ISZERO DUP1 ISZERO PUSH2 0xC45 JUMPI RETURNDATASIZE PUSH0 PUSH0 RETURNDATACOPY RETURNDATASIZE PUSH0 REVERT JUMPDEST POP POP POP POP PUSH1 0x40 MLOAD RETURNDATASIZE PUSH1 0x1F NOT PUSH1 0x1F DUP3 ADD AND DUP3 ADD DUP1 PUSH1 0x40 MSTORE POP DUP2 ADD SWAP1 PUSH2 0xC69 SWAP2 SWAP1 PUSH2 0x137C JUMP JUMPDEST GT ISZERO PUSH2 0xCAE JUMPI PUSH1 0x40 MLOAD PUSH3 0x461BCD PUSH1 0xE5 SHL DUP2 MSTORE PUSH1 0x20 PUSH1 0x4 DUP3 ADD MSTORE PUSH1 0x14 PUSH1 0x24 DUP3 ADD MSTORE PUSH20 0x115E18D959591CC81DD85B1B195D081B1A5B5A5D PUSH1 0x62 SHL PUSH1 0x44 DUP3 ADD MSTORE PUSH1 0x64 ADD PUSH2 0x3FB JUMP JUMPDEST DUP1 PUSH1 0x1 PUSH0 DUP3 DUP3 SLOAD PUSH2 0xCBF SWAP2 SWAP1 PUSH2 0x1369 JUMP JUMPDEST SWAP1 SWAP2 SSTORE POP PUSH2 0xCCD SWAP1 POP PUSH2 0x1183 JUMP JUMPDEST PUSH0 PUSH1 0x64 PUSH2 0xCDB CALLVALUE PUSH1 0xA PUSH2 0x1393 JUMP JUMPDEST PUSH2 0xCE5 SWAP2 SWAP1 PUSH2 0x13AA JUMP JUMPDEST PUSH0 DUP1 SLOAD PUSH1 0x40 MLOAD SWAP3 SWAP4 POP SWAP1 SWAP2 PUSH1 0x1 PUSH1 0x1 PUSH1 0xA0 SHL SUB SWAP1 SWAP2 AND SWAP1 DUP4 SWAP1 DUP4 DUP2 DUP2 DUP2 DUP6 DUP8 GAS CALL SWAP3 POP POP POP RETURNDATASIZE DUP1 PUSH0 DUP2 EQ PUSH2 0xD34 JUMPI PUSH1 0x40 MLOAD SWAP2 POP PUSH1 0x1F NOT PUSH1 0x3F RETURNDATASIZE ADD AND DUP3 ADD PUSH1 0x40 MSTORE RETURNDATASIZE DUP3 MSTORE RETURNDATASIZE PUSH0 PUSH1 0x20 DUP5 ADD RETURNDATACOPY PUSH2 0xD39 JUMP JUMPDEST PUSH1 0x60 SWAP2 POP JUMPDEST POP POP SWAP1 POP DUP1 PUSH2 0xD46 JUMPI PUSH0 PUSH0 REVERT JUMPDEST PUSH1 0x40 DUP1 MLOAD CALLVALUE DUP2 MSTORE PUSH1 0x20 DUP2 ADD DUP6 SWAP1 MSTORE CALLER SWAP2 PUSH32 0x1CBC5AB135991BD2B6A4B034A04AA2AA086DAC1371CB9B16B8B5E2ED6B036BED SWAP2 ADD PUSH1 0x40 MLOAD DUP1 SWAP2 SUB SWAP1 LOG2 POP POP CALLER PUSH0 SWAP1 DUP2 MSTORE PUSH1 0x3 PUSH1 0x20 MSTORE PUSH1 0x40 SWAP1 KECCAK256 TIMESTAMP SWAP1 SSTORE POP PUSH2 0xDA2 SWAP3 POP PUSH2 0x1037 SWAP2 POP POP JUMP JUMPDEST POP JUMP JUMPDEST PUSH0 PUSH12 0x33B2E3C9FD0803CE8000000 DUP3 GT ISZERO PUSH2 0xDCA JUMPI PUSH12 0x33B2E3C9FD0803CE8000000 SWAP2 POP JUMPDEST PUSH4 0x5F5E100 PUSH4 0x59682F00 PUSH0 PUSH12 0x33B2E3C9FD0803CE8000000 PUSH2 0xDF4 DUP7 PUSH8 0xDE0B6B3A7640000 PUSH2 0x1393 JUMP JUMPDEST PUSH2 0xDFE SWAP2 SWAP1 PUSH2 0x13AA JUMP JUMPDEST SWAP1 POP PUSH0 PUSH8 0xDE0B6B3A7640000 PUSH2 0xE14 DUP4 DUP1 PUSH2 0x1393 JUMP JUMPDEST PUSH2 0xE1E SWAP2 SWAP1 PUSH2 0x13AA JUMP JUMPDEST SWAP1 POP PUSH0 PUSH8 0xDE0B6B3A7640000 DUP3 PUSH2 0xE35 DUP8 DUP8 PUSH2 0x1350 JUMP JUMPDEST PUSH2 0xE3F SWAP2 SWAP1 PUSH2 0x1393 JUMP JUMPDEST PUSH2 0xE49 SWAP2 SWAP1 PUSH2 0x13AA JUMP JUMPDEST PUSH2 0xE53 SWAP1 DUP7 PUSH2 0x1369 JUMP JUMPDEST SWAP1 POP PUSH0 PUSH2 0xE5E PUSH2 0x339 JUMP JUMPDEST SWAP1 POP PUSH0 DUP2 PUSH2 0xE74 DUP5 PUSH8 0xDE0B6B3A7640000 PUSH2 0x1393 JUMP JUMPDEST PUSH2 0xE7E SWAP2 SWAP1 PUSH2 0x13AA JUMP JUMPDEST SWAP1 POP PUSH9 0x56BC75E2D63100000 DUP2 GT ISZERO PUSH2 0xECA JUMPI PUSH1 0x40 MLOAD PUSH3 0x461BCD PUSH1 0xE5 SHL DUP2 MSTORE PUSH1 0x20 PUSH1 0x4 DUP3 ADD MSTORE PUSH1 0xE PUSH1 0x24 DUP3 ADD MSTORE PUSH14 0x4F7261636C6520616E6F6D616C79 PUSH1 0x90 SHL PUSH1 0x44 DUP3 ADD MSTORE PUSH1 0x64 ADD PUSH2 0x3FB JUMP JUMPDEST SWAP9 SWAP8 POP POP POP POP POP POP POP POP JUMP JUMPDEST PUSH2 0xEDE PUSH2 0x1228 JUMP JUMPDEST PUSH1 0x2 PUSH32 0x9B779B17422D0DF92223018B32B4D1FA46E071723D6817E2486D003BECC55F00 SSTORE JUMP JUMPDEST PUSH1 0x40 DUP1 MLOAD PUSH1 0x1 PUSH1 0x1 PUSH1 0xA0 SHL SUB DUP6 DUP2 AND PUSH1 0x24 DUP4 ADD MSTORE DUP5 DUP2 AND PUSH1 0x44 DUP4 ADD MSTORE PUSH1 0x64 DUP1 DUP4 ADD DUP6 SWAP1 MSTORE DUP4 MLOAD DUP1 DUP5 SUB SWAP1 SWAP2 ADD DUP2 MSTORE PUSH1 0x84 SWAP1 SWAP3 ADD DUP4 MSTORE PUSH1 0x20 DUP3 ADD DUP1 MLOAD PUSH1 0x1 PUSH1 0x1 PUSH1 0xE0 SHL SUB AND PUSH4 0x23B872DD PUSH1 0xE0 SHL OR SWAP1 MSTORE SWAP2 MLOAD PUSH0 SWAP3 DUP4 SWAP3 PUSH32 0x0 SWAP1 SWAP2 AND SWAP2 PUSH2 0xF88 SWAP2 SWAP1 PUSH2 0x13C9 JUMP JUMPDEST PUSH0 PUSH1 0x40 MLOAD DUP1 DUP4 SUB DUP2 PUSH0 DUP7 GAS CALL SWAP2 POP POP RETURNDATASIZE DUP1 PUSH0 DUP2 EQ PUSH2 0xFC1 JUMPI PUSH1 0x40 MLOAD SWAP2 POP PUSH1 0x1F NOT PUSH1 0x3F RETURNDATASIZE ADD AND DUP3 ADD PUSH1 0x40 MSTORE RETURNDATASIZE DUP3 MSTORE RETURNDATASIZE PUSH0 PUSH1 0x20 DUP5 ADD RETURNDATACOPY PUSH2 0xFC6 JUMP JUMPDEST PUSH1 0x60 SWAP2 POP JUMPDEST POP SWAP2 POP SWAP2 POP DUP2 DUP1 ISZERO PUSH2 0xFF0 JUMPI POP DUP1 MLOAD ISZERO DUP1 PUSH2 0xFF0 JUMPI POP DUP1 DUP1 PUSH1 0x20 ADD SWAP1 MLOAD DUP2 ADD SWAP1 PUSH2 0xFF0 SWAP2 SWAP1 PUSH2 0x13DF JUMP JUMPDEST PUSH2 0x1030 JUMPI PUSH1 0x40 MLOAD PUSH3 0x461BCD PUSH1 0xE5 SHL DUP2 MSTORE PUSH1 0x20 PUSH1 0x4 DUP3 ADD MSTORE PUSH1 0x11 PUSH1 0x24 DUP3 ADD MSTORE PUSH17 0x151C985B9CD9995C919C9BDB4819985A5B PUSH1 0x7A SHL PUSH1 0x44 DUP3 ADD MSTORE PUSH1 0x64 ADD PUSH2 0x3FB JUMP JUMPDEST POP POP POP POP POP JUMP JUMPDEST PUSH1 0x1 PUSH32 0x9B779B17422D0DF92223018B32B4D1FA46E071723D6817E2486D003BECC55F00 SSTORE JUMP JUMPDEST PUSH1 0x40 DUP1 MLOAD PUSH1 0x1 PUSH1 0x1 PUSH1 0xA0 SHL SUB DUP5 DUP2 AND PUSH1 0x24 DUP4 ADD MSTORE PUSH1 0x44 DUP1 DUP4 ADD DUP6 SWAP1 MSTORE DUP4 MLOAD DUP1 DUP5 SUB SWAP1 SWAP2 ADD DUP2 MSTORE PUSH1 0x64 SWAP1 SWAP3 ADD DUP4 MSTORE PUSH1 0x20 DUP3 ADD DUP1 MLOAD PUSH1 0x1 PUSH1 0x1 PUSH1 0xE0 SHL SUB AND PUSH4 0xA9059CBB PUSH1 0xE0 SHL OR SWAP1 MSTORE SWAP2 MLOAD PUSH0 SWAP3 DUP4 SWAP3 PUSH32 0x0 SWAP1 SWAP2 AND SWAP2 PUSH2 0x10D9 SWAP2 SWAP1 PUSH2 0x13C9 JUMP JUMPDEST PUSH0 PUSH1 0x40 MLOAD DUP1 DUP4 SUB DUP2 PUSH0 DUP7 GAS CALL SWAP2 POP POP RETURNDATASIZE DUP1 PUSH0 DUP2 EQ PUSH2 0x1112 JUMPI PUSH1 0x40 MLOAD SWAP2 POP PUSH1 0x1F NOT PUSH1 0x3F RETURNDATASIZE ADD AND DUP3 ADD PUSH1 0x40 MSTORE RETURNDATASIZE DUP3 MSTORE RETURNDATASIZE PUSH0 PUSH1 0x20 DUP5 ADD RETURNDATACOPY PUSH2 0x1117 JUMP JUMPDEST PUSH1 0x60 SWAP2 POP JUMPDEST POP SWAP2 POP SWAP2 POP DUP2 DUP1 ISZERO PUSH2 0x1141 JUMPI POP DUP1 MLOAD ISZERO DUP1 PUSH2 0x1141 JUMPI POP DUP1 DUP1 PUSH1 0x20 ADD SWAP1 MLOAD DUP2 ADD SWAP1 PUSH2 0x1141 SWAP2 SWAP1 PUSH2 0x13DF JUMP JUMPDEST PUSH2 0x117D JUMPI PUSH1 0x40 MLOAD PUSH3 0x461BCD PUSH1 0xE5 SHL DUP2 MSTORE PUSH1 0x20 PUSH1 0x4 DUP3 ADD MSTORE PUSH1 0xD PUSH1 0x24 DUP3 ADD MSTORE PUSH13 0x151C985B9CD9995C8819985A5B PUSH1 0x9A SHL PUSH1 0x44 DUP3 ADD MSTORE PUSH1 0x64 ADD PUSH2 0x3FB JUMP JUMPDEST POP POP POP POP JUMP JUMPDEST PUSH0 JUMPDEST PUSH1 0x2 SLOAD PUSH1 0x1 SLOAD LT ISZERO DUP1 ISZERO PUSH2 0x1199 JUMPI POP PUSH1 0xA DUP2 LT JUMPDEST ISZERO PUSH2 0xDA2 JUMPI PUSH0 PUSH11 0x295BE96E64066972000000 PUSH1 0x2 SLOAD PUSH2 0x11B8 SWAP2 SWAP1 PUSH2 0x1369 JUMP JUMPDEST SWAP1 POP PUSH12 0x33B2E3C9FD0803CE8000000 DUP2 GT ISZERO PUSH2 0x11DD JUMPI POP PUSH12 0x33B2E3C9FD0803CE8000000 JUMPDEST PUSH1 0x2 DUP2 SWAP1 SSTORE PUSH1 0x40 MLOAD DUP2 DUP2 MSTORE PUSH32 0xC1FA8E88841FA38AED8218549BD24903570C58976A974EB8B3329E98A92A9C3C SWAP1 PUSH1 0x20 ADD PUSH1 0x40 MLOAD DUP1 SWAP2 SUB SWAP1 LOG1 DUP2 PUSH2 0x121F DUP2 PUSH2 0x13FE JUMP JUMPDEST SWAP3 POP POP POP PUSH2 0x1185 JUMP JUMPDEST PUSH32 0x9B779B17422D0DF92223018B32B4D1FA46E071723D6817E2486D003BECC55F00 SLOAD PUSH1 0x2 SUB PUSH2 0x126A JUMPI PUSH1 0x40 MLOAD PUSH4 0x3EE5AEB5 PUSH1 0xE0 SHL DUP2 MSTORE PUSH1 0x4 ADD PUSH1 0x40 MLOAD DUP1 SWAP2 SUB SWAP1 REVERT JUMPDEST JUMP JUMPDEST PUSH0 PUSH1 0x20 DUP3 DUP5 SUB SLT ISZERO PUSH2 0x127C JUMPI PUSH0 PUSH0 REVERT JUMPDEST DUP2 CALLDATALOAD PUSH1 0x1 PUSH1 0x1 PUSH1 0xA0 SHL SUB DUP2 AND DUP2 EQ PUSH2 0x1292 JUMPI PUSH0 PUSH0 REVERT JUMPDEST SWAP4 SWAP3 POP POP POP JUMP JUMPDEST PUSH0 PUSH0 PUSH1 0x40 DUP4 DUP6 SUB SLT ISZERO PUSH2 0x12AA JUMPI PUSH0 PUSH0 REVERT JUMPDEST POP POP DUP1 CALLDATALOAD SWAP3 PUSH1 0x20 SWAP1 SWAP2 ADD CALLDATALOAD SWAP2 POP JUMP JUMPDEST PUSH0 PUSH1 0x20 DUP3 DUP5 SUB SLT ISZERO PUSH2 0x12C9 JUMPI PUSH0 PUSH0 REVERT JUMPDEST POP CALLDATALOAD SWAP2 SWAP1 POP JUMP JUMPDEST DUP1 MLOAD PUSH10 0xFFFFFFFFFFFFFFFFFFFF DUP2 AND DUP2 EQ PUSH2 0x12E9 JUMPI PUSH0 PUSH0 REVERT JUMPDEST SWAP2 SWAP1 POP JUMP JUMPDEST PUSH0 PUSH0 PUSH0 PUSH0 PUSH0 PUSH1 0xA0 DUP7 DUP9 SUB SLT ISZERO PUSH2 0x1302 JUMPI PUSH0 PUSH0 REVERT JUMPDEST PUSH2 0x130B DUP7 PUSH2 0x12D0 JUMP JUMPDEST PUSH1 0x20 DUP8 ADD MLOAD PUSH1 0x40 DUP9 ADD MLOAD PUSH1 0x60 DUP10 ADD MLOAD SWAP3 SWAP8 POP SWAP1 SWAP6 POP SWAP4 POP SWAP2 POP PUSH2 0x1330 PUSH1 0x80 DUP8 ADD PUSH2 0x12D0 JUMP JUMPDEST SWAP1 POP SWAP3 SWAP6 POP SWAP3 SWAP6 SWAP1 SWAP4 POP JUMP JUMPDEST PUSH4 0x4E487B71 PUSH1 0xE0 SHL PUSH0 MSTORE PUSH1 0x11 PUSH1 0x4 MSTORE PUSH1 0x24 PUSH0 REVERT JUMPDEST DUP2 DUP2 SUB DUP2 DUP2 GT ISZERO PUSH2 0x1363 JUMPI PUSH2 0x1363 PUSH2 0x133C JUMP JUMPDEST SWAP3 SWAP2 POP POP JUMP JUMPDEST DUP1 DUP3 ADD DUP1 DUP3 GT ISZERO PUSH2 0x1363 JUMPI PUSH2 0x1363 PUSH2 0x133C JUMP JUMPDEST PUSH0 PUSH1 0x20 DUP3 DUP5 SUB SLT ISZERO PUSH2 0x138C JUMPI PUSH0 PUSH0 REVERT JUMPDEST POP MLOAD SWAP2 SWAP1 POP JUMP JUMPDEST DUP1 DUP3 MUL DUP2 ISZERO DUP3 DUP3 DIV DUP5 EQ OR PUSH2 0x1363 JUMPI PUSH2 0x1363 PUSH2 0x133C JUMP JUMPDEST PUSH0 DUP3 PUSH2 0x13C4 JUMPI PUSH4 0x4E487B71 PUSH1 0xE0 SHL PUSH0 MSTORE PUSH1 0x12 PUSH1 0x4 MSTORE PUSH1 0x24 PUSH0 REVERT JUMPDEST POP DIV SWAP1 JUMP JUMPDEST PUSH0 DUP3 MLOAD DUP1 PUSH1 0x20 DUP6 ADD DUP5 MCOPY PUSH0 SWAP3 ADD SWAP2 DUP3 MSTORE POP SWAP2 SWAP1 POP JUMP JUMPDEST PUSH0 PUSH1 0x20 DUP3 DUP5 SUB SLT ISZERO PUSH2 0x13EF JUMPI PUSH0 PUSH0 REVERT JUMPDEST DUP2 MLOAD DUP1 ISZERO ISZERO DUP2 EQ PUSH2 0x1292 JUMPI PUSH0 PUSH0 REVERT JUMPDEST PUSH0 PUSH1 0x1 DUP3 ADD PUSH2 0x140F JUMPI PUSH2 0x140F PUSH2 0x133C JUMP JUMPDEST POP PUSH1 0x1 ADD SWAP1 JUMP INVALID LOG2 PUSH5 0x6970667358 0x22 SLT KECCAK256 SMOD PUSH3 0x2DEB8A 0xE 0xD EXTDELEGATECALL CALLER ADD REVERT 0xCB 0xE8 0xC9 ADDMOD 0xC1 0x4D RETURNCONTRACT 0x22 ORIGIN RETURNDATASIZE ORIGIN OR 0x1F 0xAA 0xBD 0xD8 CALLDATACOPY 0xC5 0xB7 TIMESTAMP 0x29 PUSH5 0x736F6C6343 STOP ADDMOD 0x1E STOP CALLER "
				},
				"gasEstimates": {
					"creation": {
						"codeDepositCost": "1039200",
						"executionCost": "infinite",
						"totalCost": "infinite"
					},
					"external": {
						"COOLDOWN()": "228",
						"INITIAL_TRANCHE()": "207",
						"LABR()": "infinite",
						"MAX_EXCHANGE_TX()": "273",
						"MAX_EXCHANGE_WALLET()": "229",
						"MAX_PRICE_POL()": "272",
						"MAX_SUPPLY()": "228",
						"TRANCHE_SIZE()": "271",
						"buy(uint256)": "infinite",
						"daoTreasury()": "2424",
						"getPOLPriceUSD()": "infinite",
						"getPrice(uint256)": "infinite",
						"lastTxTime(address)": "2538",
						"priceFeed()": "infinite",
						"sell(uint256,uint256)": "infinite",
						"totalSold()": "2306",
						"unlockedSupply()": "2393"
					},
					"internal": {
						"_autoUnlock()": "infinite",
						"_safeTransfer(address,uint256)": "infinite",
						"_safeTransferFrom(address,address,uint256)": "infinite"
					}
				},
				"methodIdentifiers": {
					"COOLDOWN()": "a2724a4d",
					"INITIAL_TRANCHE()": "0192d7a0",
					"LABR()": "bc96ec51",
					"MAX_EXCHANGE_TX()": "262bc03b",
					"MAX_EXCHANGE_WALLET()": "1770ab4d",
					"MAX_PRICE_POL()": "c84dc519",
					"MAX_SUPPLY()": "32cb6b0c",
					"TRANCHE_SIZE()": "f2752d80",
					"buy(uint256)": "d96a094a",
					"daoTreasury()": "79022a9f",
					"getPOLPriceUSD()": "2820ef51",
					"getPrice(uint256)": "e7572230",
					"lastTxTime(address)": "17d63605",
					"priceFeed()": "741bef1a",
					"sell(uint256,uint256)": "d79875eb",
					"totalSold()": "9106d7ba",
					"unlockedSupply()": "fd3d27b8"
				}
			},
			"storageLayout": {
				"storage": [
					{
						"astId": 294,
						"contract": "final-contracts/LaborCoinExchangeV4.sol:LaborCoinExchangeV4",
						"label": "daoTreasury",
						"offset": 0,
						"slot": "0",
						"type": "t_address"
					},
					{
						"astId": 317,
						"contract": "final-contracts/LaborCoinExchangeV4.sol:LaborCoinExchangeV4",
						"label": "totalSold",
						"offset": 0,
						"slot": "1",
						"type": "t_uint256"
					},
					{
						"astId": 319,
						"contract": "final-contracts/LaborCoinExchangeV4.sol:LaborCoinExchangeV4",
						"label": "unlockedSupply",
						"offset": 0,
						"slot": "2",
						"type": "t_uint256"
					},
					{
						"astId": 323,
						"contract": "final-contracts/LaborCoinExchangeV4.sol:LaborCoinExchangeV4",
						"label": "lastTxTime",
						"offset": 0,
						"slot": "3",
						"type": "t_mapping(t_address,t_uint256)"
					}
				],
				"types": {
					"t_address": {
						"encoding": "inplace",
						"label": "address",
						"numberOfBytes": "20"
					},
					"t_mapping(t_address,t_uint256)": {
						"encoding": "mapping",
						"key": "t_address",
						"label": "mapping(address => uint256)",
						"numberOfBytes": "32",
						"value": "t_uint256"
					},
					"t_uint256": {
						"encoding": "inplace",
						"label": "uint256",
						"numberOfBytes": "32"
					}
				}
			},
			"userdoc": {
				"kind": "user",
				"methods": {},
				"version": 1
			}
		}
	}
}